{"contracts/VoidGame.sol":{"VoidGame":{"abi":[{"inputs":[{"internalType":"address","name":"_voidToken","type":"address"}],"stateMutability":"nonpayable","type":"constructor"},{"inputs":[{"internalType":"address","name":"owner","type":"address"}],"name":"OwnableInvalidOwner","type":"error"},{"inputs":[{"internalType":"address","name":"account","type":"address"}],"name":"OwnableUnauthorizedAccount","type":"error"},{"inputs":[],"name":"ReentrancyGuardReentrantCall","type":"error"},{"anonymous":false,"inputs":[{"indexed":true,"internalType":"address","name":"player","type":"address"},{"indexed":true,"internalType":"uint256","name":"colonyId","type":"uint256"},{"indexed":false,"internalType":"uint256","name":"galaxy","type":"uint256"},{"indexed":false,"internalType":"uint256","name":"system","type":"uint256"},{"indexed":false,"internalType":"uint256","name":"position","type":"uint256"}],"name":"ColonyCreated","type":"event"},{"anonymous":false,"inputs":[{"indexed":true,"internalType":"uint256","name":"fleetId","type":"uint256"},{"indexed":true,"internalType":"uint256","name":"targetColonyId","type":"uint256"},{"indexed":false,"internalType":"bool","name":"attackerWon","type":"bool"}],"name":"CombatResolved","type":"event"},{"anonymous":false,"inputs":[{"indexed":true,"internalType":"uint256","name":"colonyId","type":"uint256"},{"indexed":false,"internalType":"enum VoidGame.FacilityType","name":"facilityType","type":"uint8"},{"indexed":false,"internalType":"uint256","name":"level","type":"uint256"}],"name":"FacilityUpgradeCompleted","type":"event"},{"anonymous":false,"inputs":[{"indexed":true,"internalType":"uint256","name":"colonyId","type":"uint256"},{"indexed":false,"internalType":"enum VoidGame.FacilityType","name":"facilityType","type":"uint8"},{"indexed":false,"internalType":"uint256","name":"newLevel","type":"uint256"},{"indexed":false,"internalType":"uint256","name":"completionTime","type":"uint256"}],"name":"FacilityUpgradeStarted","type":"event"},{"anonymous":false,"inputs":[{"indexed":true,"internalType":"uint256","name":"fleetId","type":"uint256"},{"indexed":true,"internalType":"address","name":"owner","type":"address"},{"indexed":false,"internalType":"uint256","name":"originId","type":"uint256"},{"indexed":false,"internalType":"uint256","name":"targetId","type":"uint256"},{"indexed":false,"internalType":"uint256","name":"arrivalTime","type":"uint256"}],"name":"FleetDispatched","type":"event"},{"anonymous":false,"inputs":[{"indexed":true,"internalType":"address","name":"previousOwner","type":"address"},{"indexed":true,"internalType":"address","name":"newOwner","type":"address"}],"name":"OwnershipTransferred","type":"event"},{"anonymous":false,"inputs":[{"indexed":true,"internalType":"address","name":"player","type":"address"},{"indexed":false,"internalType":"uint256","name":"timestamp","type":"uint256"}],"name":"PlayerRegistered","type":"event"},{"anonymous":false,"inputs":[{"indexed":true,"internalType":"address","name":"player","type":"address"},{"indexed":false,"internalType":"enum VoidGame.ResearchType","name":"researchType","type":"uint8"},{"indexed":false,"internalType":"uint256","name":"level","type":"uint256"}],"name":"ResearchCompleted","type":"event"},{"anonymous":false,"inputs":[{"indexed":true,"internalType":"address","name":"player","type":"address"},{"indexed":false,"internalType":"enum VoidGame.ResearchType","name":"researchType","type":"uint8"},{"indexed":false,"internalType":"uint256","name":"level","type":"uint256"},{"indexed":false,"internalType":"uint256","name":"completionTime","type":"uint256"}],"name":"ResearchStarted","type":"event"},{"anonymous":false,"inputs":[{"indexed":true,"internalType":"uint256","name":"colonyId","type":"uint256"},{"indexed":false,"internalType":"uint256","name":"ore","type":"uint256"},{"indexed":false,"internalType":"uint256","name":"crystal","type":"uint256"},{"indexed":false,"internalType":"uint256","name":"plasma","type":"uint256"}],"name":"ResourcesUpdated","type":"event"},{"anonymous":false,"inputs":[{"indexed":true,"internalType":"uint256","name":"colonyId","type":"uint256"},{"indexed":false,"internalType":"enum VoidGame.VesselType","name":"vesselType","type":"uint8"},{"indexed":false,"internalType":"uint256","name":"quantity","type":"uint256"}],"name":"VesselBuilt","type":"event"},{"inputs":[],"name":"GAME_TICK_INTERVAL","outputs":[{"internalType":"uint256","name":"","type":"uint256"}],"stateMutability":"view","type":"function"},{"inputs":[],"name":"MAX_COLONIES_BASE","outputs":[{"internalType":"uint256","name":"","type":"uint256"}],"stateMutability":"view","type":"function"},{"inputs":[],"name":"MAX_FACILITIES","outputs":[{"internalType":"uint256","name":"","type":"uint256"}],"stateMutability":"view","type":"function"},{"inputs":[],"name":"MAX_FACILITY_LEVEL","outputs":[{"internalType":"uint256","name":"","type":"uint256"}],"stateMutability":"view","type":"function"},{"inputs":[{"internalType":"address","name":"","type":"address"}],"name":"activeResearch","outputs":[{"internalType":"enum VoidGame.ResearchType","name":"researchType","type":"uint8"},{"internalType":"uint256","name":"level","type":"uint256"},{"internalType":"uint256","name":"startTime","type":"uint256"},{"internalType":"uint256","name":"endTime","type":"uint256"}],"stateMutability":"view","type":"function"},{"inputs":[],"name":"boostsContract","outputs":[{"internalType":"address","name":"","type":"address"}],"stateMutability":"view","type":"function"},{"inputs":[{"internalType":"uint256","name":"","type":"uint256"}],"name":"colonies","outputs":[{"internalType":"uint256","name":"id","type":"uint256"},{"internalType":"address","name":"owner","type":"address"},{"internalType":"string","name":"name","type":"string"},{"internalType":"uint256","name":"galaxy","type":"uint256"},{"internalType":"uint256","name":"system","type":"uint256"},{"internalType":"uint256","name":"position","type":"uint256"},{"internalType":"uint256","name":"fields","type":"uint256"},{"internalType":"uint256","name":"fieldsUsed","type":"uint256"},{"internalType":"uint256","name":"createdAt","type":"uint256"}],"stateMutability":"view","type":"function"},{"inputs":[{"internalType":"uint256","name":"","type":"uint256"},{"internalType":"enum VoidGame.FacilityType","name":"","type":"uint8"}],"name":"colonyFacilities","outputs":[{"internalType":"enum VoidGame.FacilityType","name":"facilityType","type":"uint8"},{"internalType":"uint256","name":"level","type":"uint256"},{"internalType":"uint256","name":"upgradeStartTime","type":"uint256"},{"internalType":"uint256","name":"upgradeEndTime","type":"uint256"}],"stateMutability":"view","type":"function"},{"inputs":[{"internalType":"uint256","name":"","type":"uint256"}],"name":"colonyResources","outputs":[{"internalType":"uint256","name":"ore","type":"uint256"},{"internalType":"uint256","name":"crystal","type":"uint256"},{"internalType":"uint256","name":"plasma","type":"uint256"},{"internalType":"uint256","name":"energy","type":"uint256"},{"internalType":"uint256","name":"lastUpdate","type":"uint256"}],"stateMutability":"view","type":"function"},{"inputs":[{"internalType":"uint256","name":"","type":"uint256"},{"internalType":"enum VoidGame.VesselType","name":"","type":"uint8"}],"name":"colonyVessels","outputs":[{"internalType":"uint256","name":"","type":"uint256"}],"stateMutability":"view","type":"function"},{"inputs":[{"internalType":"uint256","name":"colonyId","type":"uint256"},{"internalType":"enum VoidGame.FacilityType","name":"facilityType","type":"uint8"}],"name":"completeFacilityUpgrade","outputs":[],"stateMutability":"nonpayable","type":"function"},{"inputs":[],"name":"completeResearch","outputs":[],"stateMutability":"nonpayable","type":"function"},{"inputs":[{"internalType":"uint256","name":"","type":"uint256"},{"internalType":"enum VoidGame.VesselType","name":"","type":"uint8"}],"name":"fleetComposition","outputs":[{"internalType":"uint256","name":"","type":"uint256"}],"stateMutability":"view","type":"function"},{"inputs":[{"internalType":"uint256","name":"","type":"uint256"}],"name":"fleets","outputs":[{"internalType":"uint256","name":"id","type":"uint256"},{"internalType":"address","name":"owner","type":"address"},{"internalType":"uint256","name":"originColonyId","type":"uint256"},{"internalType":"uint256","name":"targetColonyId","type":"uint256"},{"internalType":"uint256","name":"departureTime","type":"uint256"},{"internalType":"uint256","name":"arrivalTime","type":"uint256"},{"internalType":"uint256","name":"missionType","type":"uint256"},{"internalType":"bool","name":"isReturning","type":"bool"}],"stateMutability":"view","type":"function"},{"inputs":[{"internalType":"uint256","name":"colonyId","type":"uint256"}],"name":"getColonyResources","outputs":[{"internalType":"uint256","name":"ore","type":"uint256"},{"internalType":"uint256","name":"crystal","type":"uint256"},{"internalType":"uint256","name":"plasma","type":"uint256"},{"internalType":"uint256","name":"energy","type":"uint256"}],"stateMutability":"view","type":"function"},{"inputs":[{"internalType":"uint256","name":"colonyId","type":"uint256"}],"name":"getCrystalProduction","outputs":[{"internalType":"uint256","name":"","type":"uint256"}],"stateMutability":"view","type":"function"},{"inputs":[{"internalType":"uint256","name":"colonyId","type":"uint256"},{"internalType":"enum VoidGame.FacilityType","name":"","type":"uint8"},{"internalType":"uint256","name":"level","type":"uint256"}],"name":"getFacilityBuildTime","outputs":[{"internalType":"uint256","name":"","type":"uint256"}],"stateMutability":"view","type":"function"},{"inputs":[{"internalType":"enum VoidGame.FacilityType","name":"facilityType","type":"uint8"},{"internalType":"uint256","name":"level","type":"uint256"}],"name":"getFacilityCost","outputs":[{"internalType":"uint256","name":"ore","type":"uint256"},{"internalType":"uint256","name":"crystal","type":"uint256"},{"internalType":"uint256","name":"plasma","type":"uint256"}],"stateMutability":"pure","type":"function"},{"inputs":[{"internalType":"uint256","name":"colonyId","type":"uint256"},{"internalType":"enum VoidGame.FacilityType","name":"facilityType","type":"uint8"}],"name":"getFacilityLevel","outputs":[{"internalType":"uint256","name":"","type":"uint256"}],"stateMutability":"view","type":"function"},{"inputs":[{"internalType":"uint256","name":"colonyId","type":"uint256"}],"name":"getOreProduction","outputs":[{"internalType":"uint256","name":"","type":"uint256"}],"stateMutability":"view","type":"function"},{"inputs":[{"internalType":"uint256","name":"colonyId","type":"uint256"}],"name":"getPlasmaProduction","outputs":[{"internalType":"uint256","name":"","type":"uint256"}],"stateMutability":"view","type":"function"},{"inputs":[{"internalType":"address","name":"player","type":"address"}],"name":"getPlayerColonies","outputs":[{"internalType":"uint256[]","name":"","type":"uint256[]"}],"stateMutability":"view","type":"function"},{"inputs":[{"internalType":"enum VoidGame.ResearchType","name":"researchType","type":"uint8"},{"internalType":"uint256","name":"level","type":"uint256"}],"name":"getResearchCost","outputs":[{"internalType":"uint256","name":"ore","type":"uint256"},{"internalType":"uint256","name":"crystal","type":"uint256"},{"internalType":"uint256","name":"plasma","type":"uint256"}],"stateMutability":"pure","type":"function"},{"inputs":[{"internalType":"address","name":"player","type":"address"},{"internalType":"enum VoidGame.ResearchType","name":"researchType","type":"uint8"}],"name":"getResearchLevel","outputs":[{"internalType":"uint256","name":"","type":"uint256"}],"stateMutability":"view","type":"function"},{"inputs":[{"internalType":"uint256","name":"colonyId","type":"uint256"},{"internalType":"enum VoidGame.ResearchType","name":"","type":"uint8"},{"internalType":"uint256","name":"level","type":"uint256"}],"name":"getResearchTime","outputs":[{"internalType":"uint256","name":"","type":"uint256"}],"stateMutability":"view","type":"function"},{"inputs":[],"name":"lastGameTick","outputs":[{"internalType":"uint256","name":"","type":"uint256"}],"stateMutability":"view","type":"function"},{"inputs":[],"name":"nextColonyId","outputs":[{"internalType":"uint256","name":"","type":"uint256"}],"stateMutability":"view","type":"function"},{"inputs":[],"name":"nextFleetId","outputs":[{"internalType":"uint256","name":"","type":"uint256"}],"stateMutability":"view","type":"function"},{"inputs":[],"name":"owner","outputs":[{"internalType":"address","name":"","type":"address"}],"stateMutability":"view","type":"function"},{"inputs":[{"internalType":"address","name":"","type":"address"},{"internalType":"uint256","name":"","type":"uint256"}],"name":"playerColonies","outputs":[{"internalType":"uint256","name":"","type":"uint256"}],"stateMutability":"view","type":"function"},{"inputs":[{"internalType":"address","name":"","type":"address"},{"internalType":"enum VoidGame.ResearchType","name":"","type":"uint8"}],"name":"playerResearch","outputs":[{"internalType":"uint256","name":"","type":"uint256"}],"stateMutability":"view","type":"function"},{"inputs":[{"internalType":"address","name":"","type":"address"}],"name":"players","outputs":[{"internalType":"uint256","name":"totalColonies","type":"uint256"},{"internalType":"uint256","name":"totalFleetPower","type":"uint256"},{"internalType":"uint256","name":"totalResearchPoints","type":"uint256"},{"internalType":"uint256","name":"combatWins","type":"uint256"},{"internalType":"uint256","name":"combatLosses","type":"uint256"},{"internalType":"uint256","name":"registeredAt","type":"uint256"},{"internalType":"bool","name":"isActive","type":"bool"}],"stateMutability":"view","type":"function"},{"inputs":[{"internalType":"string","name":"colonyName","type":"string"},{"internalType":"uint256","name":"galaxy","type":"uint256"},{"internalType":"uint256","name":"system","type":"uint256"},{"internalType":"uint256","name":"position","type":"uint256"}],"name":"register","outputs":[],"stateMutability":"nonpayable","type":"function"},{"inputs":[],"name":"renounceOwnership","outputs":[],"stateMutability":"nonpayable","type":"function"},{"inputs":[{"internalType":"address","name":"_boosts","type":"address"}],"name":"setBoostsContract","outputs":[],"stateMutability":"nonpayable","type":"function"},{"inputs":[{"internalType":"uint256","name":"colonyId","type":"uint256"},{"internalType":"enum VoidGame.ResearchType","name":"researchType","type":"uint8"}],"name":"startResearch","outputs":[],"stateMutability":"nonpayable","type":"function"},{"inputs":[],"name":"totalPlayers","outputs":[{"internalType":"uint256","name":"","type":"uint256"}],"stateMutability":"view","type":"function"},{"inputs":[{"internalType":"address","name":"newOwner","type":"address"}],"name":"transferOwnership","outputs":[],"stateMutability":"nonpayable","type":"function"},{"inputs":[{"internalType":"uint256","name":"","type":"uint256"},{"internalType":"uint256","name":"","type":"uint256"},{"internalType":"uint256","name":"","type":"uint256"}],"name":"universeMap","outputs":[{"internalType":"uint256","name":"","type":"uint256"}],"stateMutability":"view","type":"function"},{"inputs":[{"internalType":"uint256","name":"colonyId","type":"uint256"},{"internalType":"enum VoidGame.FacilityType","name":"facilityType","type":"uint8"}],"name":"upgradeFacility","outputs":[],"stateMutability":"nonpayable","type":"function"},{"inputs":[],"name":"voidToken","outputs":[{"internalType":"contract IERC20","name":"","type":"address"}],"stateMutability":"view","type":"function"}],"evm":{"bytecode":{"linkReferences":{},"object":"6080604052600160045560016005553480156200001b57600080fd5b5060405162002aa738038062002aa78339810160408190526200003e91620000ef565b33806200006557604051631e4fbdf760e01b81526000600482015260240160405180910390fd5b62000070816200009f565b5060018055600280546001600160a01b0319166001600160a01b03929092169190911790554260075562000121565b600080546001600160a01b038381166001600160a01b0319831681178455604051919092169283917f8be0079c531659141344cd1fd0a4f28419497f9722a3daafe3b4186f6b6457e09190a35050565b6000602082840312156200010257600080fd5b81516001600160a01b03811681146200011a57600080fd5b9392505050565b61297680620001316000396000f3fe608060405234801561001057600080fd5b50600436106102535760003560e01c80637dae9b4211610146578063b8b4b173116100c3578063e2eb41ff11610087578063e2eb41ff146106ef578063ec37e93214610774578063f2fde38b1461077c578063f60cdcf61461078f578063f62754ff14610798578063f80b3dd0146107a057600080fd5b8063b8b4b173146105fd578063bd7e3656146106a0578063c1dfc73c146106b3578063d676b9ed146106d3578063d849d4ec146106e657600080fd5b80638da5cb5b1161010a5780638da5cb5b146105a057806392fdc366146105b1578063a16c1f15146105c4578063b2e1cf4e146105d7578063b522bef4146105ea57600080fd5b80637dae9b421461051f5780637f314b931461052857806380198ce11461053b5780638547e80b1461054457806386d2d07e1461055757600080fd5b8063494d988e116101d45780637137babd116101985780637137babd14610463578063715018a61461046c57806374840f7b146104745780637a50225a146104a75780637c00deff146104ba57600080fd5b8063494d988e146103b95780634c7d3fb9146103e45780634f11f4931461040f5780636943a2d11461043d5780636d11d0931461045057600080fd5b8063293a96f01161021b578063293a96f01461030f5780632cfb2053146103225780632fa4f3f61461034a5780633de4a70d1461035257806347ff13f61461036557600080fd5b8063096de6be146102585780630af3ffe014610296578063127ba5a2146102a95780631379e144146102da57806324c733b5146102e4575b600080fd5b610283610266366004612237565b600f60209081526000928352604080842090915290825290205481565b6040519081526020015b60405180910390f35b6102836102a4366004612287565b6107b3565b6102836102b73660046122b1565b601260209081526000938452604080852082529284528284209052825290205481565b6102e26107e4565b005b6003546102f7906001600160a01b031681565b6040516001600160a01b03909116815260200161028d565b6102e261031d3660046122ec565b61098c565b610335610330366004612318565b610cdc565b60405161028d99989796959493929190612331565b610283601681565b610283610360366004612318565b610db5565b6103a96103733660046122ec565b600e602090815260009283526040808420909152908252902080546001820154600283015460039093015460ff90921692909184565b60405161028d94939291906123f1565b6102836103c7366004612237565b601160209081526000928352604080842090915290825290205481565b6102836103f2366004612429565b600a60209081526000928352604080842090915290825290205481565b61042261041d366004612453565b610e1e565b6040805193845260208401929092529082015260600161028d565b6102e261044b3660046122ec565b610f36565b6102e261045e36600461246f565b61109a565b61028360075481565b6102e26110c4565b610487610482366004612318565b6110d8565b60408051948552602085019390935291830152606082015260800161028d565b6102836104b5366004612429565b6111a3565b6104f76104c8366004612318565b600d60205260009081526040902080546001820154600283015460038401546004909401549293919290919085565b604080519586526020860194909452928401919091526060830152608082015260a00161028d565b61028361025881565b6102e261053636600461248a565b6111f7565b61028360055481565b610283610552366004612318565b6115de565b61059061056536600461246f565b600b60205260009081526040902080546001820154600283015460039093015460ff90921692909184565b60405161028d94939291906124bd565b6000546001600160a01b03166102f7565b6102836105bf3660046122ec565b61162d565b6102e26105d23660046124cb565b611679565b6102836105e5366004612553565b611b1a565b6102836105f8366004612318565b611be8565b61065b61060b366004612318565b6010602052600090815260409020805460018201546002830154600384015460048501546005860154600687015460079097015495966001600160a01b0390951695939492939192909160ff1688565b604080519889526001600160a01b039097166020890152958701949094526060860192909252608085015260a084015260c0830152151560e08201526101000161028d565b6102836106ae366004612588565b611c35565b6106c66106c136600461246f565b611cb6565b60405161028d91906125ad565b6104226106e13660046125f1565b611d22565b61028360045481565b61073d6106fd36600461246f565b6008602052600090815260409020805460018201546002830154600384015460048501546005860154600690960154949593949293919290919060ff1687565b604080519788526020880196909652948601939093526060850191909152608084015260a0830152151560c082015260e00161028d565b610283601e81565b6102e261078a36600461246f565b612011565b61028360065481565b610283600181565b6002546102f7906001600160a01b031681565b600960205281600052604060002081815481106107cf57600080fd5b90600052602060002001600091509150505481565b336000908152600b6020526040902060038101546108495760405162461bcd60e51b815260206004820152601760248201527f4e6f20726573656172636820696e2070726f677265737300000000000000000060448201526064015b60405180910390fd5b42816003015411156108955760405162461bcd60e51b81526020600482015260156024820152745265736561726368206e6f7420636f6d706c65746560581b6044820152606401610840565b6001810154336000908152600a60205260408120835490919060ff16600f8111156108c2576108c26123c7565b600f8111156108d3576108d36123c7565b815260208101919091526040016000205560018101546108f4906064612623565b336000908152600860205260408120600201805490919061091690849061263a565b90915550508054600182015460405133927fcdda533d22dbea0702cee709f0ab1a26531b5852167fe00782329cd385e127ac926109589260ff9092169161264d565b60405180910390a250336000908152600b60205260408120805460ff19168155600181018290556002810182905560030155565b61099461204f565b6000828152600c6020526040902060018101546001600160a01b031633146109f15760405162461bcd60e51b815260206004820152601060248201526f2737ba1031b7b637b73c9037bbb732b960811b6044820152606401610840565b6000838152600e6020526040812081846014811115610a1257610a126123c7565b6014811115610a2357610a236123c7565b81526020019081526020016000209050806003015460001480610a4a575042816003015411155b610a8c5760405162461bcd60e51b81526020600482015260136024820152725570677261646520696e2070726f677265737360681b6044820152606401610840565b600081600101546001610a9f919061263a565b9050601e811115610ae65760405162461bcd60e51b815260206004820152601160248201527013585e081b195d995b081c995858da1959607a1b6044820152606401610840565b6000806000610af58785611d22565b60008b8152600d602052604090209295509093509150610b1489612079565b8054841115610b585760405162461bcd60e51b815260206004820152601060248201526f496e73756666696369656e74206f726560801b6044820152606401610840565b8281600101541015610ba35760405162461bcd60e51b8152602060048201526014602482015273125b9cdd59999a58da595b9d0818dc9e5cdd185b60621b6044820152606401610840565b8181600201541015610bed5760405162461bcd60e51b8152602060048201526013602482015272496e73756666696369656e7420706c61736d6160681b6044820152606401610840565b83816000016000828254610c019190612668565b9250508190555082816001016000828254610c1c9190612668565b9250508190555081816002016000828254610c379190612668565b9091555060009050610c4a8a8a88611b1a565b87549091508990889060ff19166001836014811115610c6b57610c6b6123c7565b02179055504260028801819055610c8390829061263a565b600388018190556040518b917f50d13fd41dab8891dacb9ff0ea7f54b7d6e6b2b7a2b70398e261f0b84f94bc6f91610cbf918d918b919061267b565b60405180910390a25050505050505050610cd860018055565b5050565b600c6020526000908152604090208054600182015460028301805492936001600160a01b0390921692610d0e9061269a565b80601f0160208091040260200160405190810160405280929190818152602001828054610d3a9061269a565b8015610d875780601f10610d5c57610100808354040283529160200191610d87565b820191906000526020600020905b815481529060010190602001808311610d6a57829003601f168201915b5050505050908060030154908060040154908060050154908060060154908060070154908060080154905089565b6000818152600e60209081526040808320838052909152812060010154808203610de25750601e92915050565b610ded81600a6127b8565b610df882600b6127b8565b610e0383601e612623565b610e0d9190612623565b610e1791906127c4565b9392505050565b60008080600885600f811115610e3657610e366123c7565b1480610e535750600985600f811115610e5157610e516123c7565b145b80610e6f5750600a85600f811115610e6d57610e6d6123c7565b145b15610ec4576002610e8085826127b8565b610e8c90610320612623565b610e9691906127c4565b92506002610ea485826127b8565b610eaf9060c8612623565b610eb991906127c4565b915060009050610f2f565b6002610ed085826127b8565b610edb9060c8612623565b610ee591906127c4565b92506002610ef385826127b8565b610eff90610190612623565b610f0991906127c4565b91506002610f1785826127b8565b610f22906064612623565b610f2c91906127c4565b90505b9250925092565b6000828152600e6020526040812081836014811115610f5757610f576123c7565b6014811115610f6857610f686123c7565b815260200190815260200160002090506000816003015411610fc55760405162461bcd60e51b81526020600482015260166024820152754e6f207570677261646520696e2070726f677265737360501b6044820152606401610840565b42816003015411156110105760405162461bcd60e51b815260206004820152601460248201527355706772616465206e6f7420636f6d706c65746560601b6044820152606401610840565b600181018054906000611022836127e6565b909155505060006002820181905560038201819055838152600c60205260408120600701805491611052836127e6565b9190505550827fac2deb87f89c37c0b0266760f2ad79245e2dc19ba7604cc511a2eb082608f04383836001015460405161108d9291906127ff565b60405180910390a2505050565b6110a26121ba565b600380546001600160a01b0319166001600160a01b0392909216919091179055565b6110cc6121ba565b6110d660006121e7565b565b6000818152600d6020526040812060048101548291829182919082906110fe9042612668565b9050610e108161110d89610db5565b6111179190612623565b61112191906127c4565b825461112d919061263a565b9550610e108161113c89611be8565b6111469190612623565b61115091906127c4565b826001015461115f919061263a565b9450610e108161116e896115de565b6111789190612623565b61118291906127c4565b8260020154611191919061263a565b93508160030154925050509193509193565b6001600160a01b0382166000908152600a602052604081208183600f8111156111ce576111ce6123c7565b600f8111156111df576111df6123c7565b81526020019081526020016000205490505b92915050565b6111ff61204f565b6000828152600c60205260409020600101546001600160a01b0316331461125b5760405162461bcd60e51b815260206004820152601060248201526f2737ba1031b7b637b73c9037bbb732b960811b6044820152606401610840565b336000908152600b6020526040902060030154158061128c5750336000908152600b60205260409020600301544210155b6112cf5760405162461bcd60e51b8152602060048201526014602482015273526573656172636820696e2070726f677265737360601b6044820152606401610840565b6000828152600e60209081526040808320600a8452909152902060019081015410156113345760405162461bcd60e51b81526020600482015260146024820152734e65656420536369656e63652041636164656d7960601b6044820152606401610840565b336000908152600a602052604081208183600f811115611356576113566123c7565b600f811115611367576113676123c7565b81526020019081526020016000205490506000816001611387919061263a565b905060008060006113988685610e1e565b60008a8152600d6020526040902092955090935091506113b788612079565b80548411156113fb5760405162461bcd60e51b815260206004820152601060248201526f496e73756666696369656e74206f726560801b6044820152606401610840565b82816001015410156114465760405162461bcd60e51b8152602060048201526014602482015273125b9cdd59999a58da595b9d0818dc9e5cdd185b60621b6044820152606401610840565b81816002015410156114905760405162461bcd60e51b8152602060048201526013602482015272496e73756666696369656e7420706c61736d6160681b6044820152606401610840565b838160000160008282546114a49190612668565b92505081905550828160010160008282546114bf9190612668565b92505081905550818160020160008282546114da9190612668565b90915550600090506114ed898988611c35565b9050604051806080016040528089600f81111561150c5761150c6123c7565b81526020018781526020014281526020018242611529919061263a565b9052336000908152600b6020526040902081518154829060ff1916600183600f811115611558576115586123c7565b021790555060208281015160018301556040808401516002840155606090930151600392830155336000818152600b9092529083902090910154915190917fdadb32e3914b3c41e6d60cda49731910d44116b464a5cca2257c559758792937916115c6918c918b919061280d565b60405180910390a250505050505050610cd860018055565b6000818152600e602090815260408083206002845290915281206001015480820361160c5750600092915050565b61161781600a6127b8565b61162282600b6127b8565b610e0383600a612623565b6000828152600e602052604081208183601481111561164e5761164e6123c7565b601481111561165f5761165f6123c7565b815260200190815260200160002060010154905092915050565b61168161204f565b3360009081526008602052604090206006015460ff16156116d95760405162461bcd60e51b8152602060048201526012602482015271105b1c9958591e481c9959da5cdd195c995960721b6044820152606401610840565b600183101580156116eb575060098311155b6117285760405162461bcd60e51b815260206004820152600e60248201526d496e76616c69642067616c61787960901b6044820152606401610840565b6001821015801561173b57506101f38211155b6117785760405162461bcd60e51b815260206004820152600e60248201526d496e76616c69642073797374656d60901b6044820152606401610840565b6001811015801561178a5750600f8111155b6117c95760405162461bcd60e51b815260206004820152601060248201526f24b73b30b634b2103837b9b4ba34b7b760811b6044820152606401610840565b600083815260126020908152604080832085845282528083208484529091529020541561182c5760405162461bcd60e51b8152602060048201526011602482015270141bdcda5d1a5bdb881bd8d8dd5c1a5959607a1b6044820152606401610840565b6040805160e08101825260018082526000602080840182815284860183815260608601848152608087018581524260a0890190815260c08901888152338852600890965298862097518855925195870195909555516002860155925160038501559151600484015592516005830155516006918201805460ff19169115159190911790558054916118bc836127e6565b909155505060048054600091826118d2836127e6565b919050559050604051806101200160405280828152602001336001600160a01b0316815260200187878080601f0160208091040260200160405190810160405280939291908181526020018383808284376000920182905250938552505050602080830188905260408084018890526060840187905260a3608085015260a084018390524260c090940193909352848252600c81529082902083518155908301516001820180546001600160a01b0319166001600160a01b039092169190911790559082015160028201906119a79082612880565b5060608281015160038084019190915560808085015160048086019190915560a080870151600587015560c0870151600687015560e0870151600787015561010090960151600890950194909455336000818152600960209081526040808320805460018181018355918552838520018b90558d8452601283528184208d855283528184208c855283528184208b90558151998a0182526101f4808b528a84019081528a8301858152988b0185815242978c018881528d8752600d909552948390209a518b5551908a01559551600289015590519387019390935591519490930193909355517f324cb0062138d65997c86cd3012489ceb351d602f2f55c7408306e8040c79f3f91611abc9190815260200190565b60405180910390a26040805185815260208101859052908101839052819033907f8706ac3778f134396813c204b8b38c9c98ad59346ddd7b8c74d76bd97666289c9060600160405180910390a350611b1360018055565b5050505050565b600080611b2983610e10612623565b6000868152600e6020908152604080832060088452808352818420600190810154600b86529190935292200154919250906127108215611b9157611b6e836005612623565b611b7990606461263a565b611b84826064612623565b611b8e91906127c4565b90505b8115611bc557611ba2826019612623565b611bad90606461263a565b611bb8826064612623565b611bc291906127c4565b90505b612710611bd28286612623565b611bdc91906127c4565b98975050505050505050565b6000818152600e602090815260408083206001808552925282200154808203611c145750600f92915050565b611c1f81600a6127b8565b611c2a82600b6127b8565b610e03836014612623565b600080611c4483611c20612623565b6000868152600e60209081526040808320600a84529091529020600190810154919250811115611cad57611c79600182612668565b611c8490600a612623565b611c8f90606461263a565b611c9a836064612623565b611ca491906127c4565b92505050610e17565b50949350505050565b6001600160a01b038116600090815260096020908152604091829020805483518184028101840190945280845260609392830182828015611d1657602002820191906000526020600020905b815481526020019060010190808311611d02575b50505050509050919050565b6000808080856014811115611d3957611d396123c7565b03611d8c57611d4984600a6127b8565b611d5485600f6127b8565b611d5f90603c612623565b611d6991906127c4565b9250611d7684600a6127b8565b611d8185600f6127b8565b610eaf90600f612623565b6001856014811115611da057611da06123c7565b03611df357611db084600a6127b8565b611dbb8560106127b8565b611dc6906030612623565b611dd091906127c4565b9250611ddd84600a6127b8565b611de88560106127b8565b610eaf906018612623565b6002856014811115611e0757611e076123c7565b03611e5a57611e1784600a6127b8565b611e2285600f6127b8565b611e2d9060e1612623565b611e3791906127c4565b9250611e4484600a6127b8565b611e4f85600f6127b8565b610eaf90604b612623565b6003856014811115611e6e57611e6e6123c7565b03611ec157611e7e84600a6127b8565b611e8985600f6127b8565b611e9490604b612623565b611e9e91906127c4565b9250611eab84600a6127b8565b611eb685600f6127b8565b610eaf90601e612623565b6009856014811115611ed557611ed56123c7565b03611f49576002611ee685826127b8565b611ef290610190612623565b611efc91906127c4565b92506002611f0a85826127b8565b611f159060c8612623565b611f1f91906127c4565b91506002611f2d85826127b8565b611f38906064612623565b611f4291906127c4565b9050610f2f565b600a856014811115611f5d57611f5d6123c7565b03611fc0576002611f6e85826127b8565b611f799060c8612623565b611f8391906127c4565b92506002611f9185826127b8565b611f9d90610190612623565b611fa791906127c4565b91506002611fb585826127b8565b611f389060c8612623565b6002611fcc85826127b8565b611fd7906064612623565b611fe191906127c4565b92506002611fef85826127b8565b611ffa906064612623565b61200491906127c4565b9150600090509250925092565b6120196121ba565b6001600160a01b03811661204357604051631e4fbdf760e01b815260006004820152602401610840565b61204c816121e7565b50565b60026001540361207257604051633ee5aeb560e01b815260040160405180910390fd5b6002600155565b6000818152600d6020526040812060048101549091906120999042612668565b9050806000036120a857505050565b60006120b384610db5565b905060006120c085611be8565b905060006120cd866115de565b9050610e106120dc8585612623565b6120e691906127c4565b8560000160008282546120f9919061263a565b90915550610e10905061210c8584612623565b61211691906127c4565b856001016000828254612129919061263a565b90915550610e10905061213c8583612623565b61214691906127c4565b856002016000828254612159919061263a565b90915550504260048601558454600186015460028701546040805193845260208401929092529082015286907fe7cdf9ff4e2c570b9d5045dd48cd9588959ff685ef33039c635272cb2be00c6d9060600160405180910390a2505050505050565b6000546001600160a01b031633146110d65760405163118cdaa760e01b8152336004820152602401610840565b600080546001600160a01b038381166001600160a01b0319831681178455604051919092169283917f8be0079c531659141344cd1fd0a4f28419497f9722a3daafe3b4186f6b6457e09190a35050565b6000806040838503121561224a57600080fd5b823591506020830135600f811061226057600080fd5b809150509250929050565b80356001600160a01b038116811461228257600080fd5b919050565b6000806040838503121561229a57600080fd5b6122a38361226b565b946020939093013593505050565b6000806000606084860312156122c657600080fd5b505081359360208301359350604090920135919050565b80356015811061228257600080fd5b600080604083850312156122ff57600080fd5b8235915061230f602084016122dd565b90509250929050565b60006020828403121561232a57600080fd5b5035919050565b60006101208b8352602060018060a01b038c16818501528160408501528a518083860152600092505b80831015612379578b830182015185840161014001529181019161235a565b6000610140828701810191909152606086019b909b52608085019990995250505060a081019490945260c084019290925260e0830152610100820152601f909101601f191601019392505050565b634e487b7160e01b600052602160045260246000fd5b601581106123ed576123ed6123c7565b9052565b608081016123ff82876123dd565b84602083015283604083015282606083015295945050505050565b80356010811061228257600080fd5b6000806040838503121561243c57600080fd5b6124458361226b565b915061230f6020840161241a565b6000806040838503121561246657600080fd5b6122a38361241a565b60006020828403121561248157600080fd5b610e178261226b565b6000806040838503121561249d57600080fd5b8235915061230f6020840161241a565b601081106123ed576123ed6123c7565b608081016123ff82876124ad565b6000806000806000608086880312156124e357600080fd5b853567ffffffffffffffff808211156124fb57600080fd5b818801915088601f83011261250f57600080fd5b81358181111561251e57600080fd5b89602082850101111561253057600080fd5b60209283019a909950918801359760408101359750606001359550909350505050565b60008060006060848603121561256857600080fd5b83359250612578602085016122dd565b9150604084013590509250925092565b60008060006060848603121561259d57600080fd5b833592506125786020850161241a565b6020808252825182820181905260009190848201906040850190845b818110156125e5578351835292840192918401916001016125c9565b50909695505050505050565b6000806040838503121561260457600080fd5b6122a3836122dd565b634e487b7160e01b600052601160045260246000fd5b80820281158282048414176111f1576111f161260d565b808201808211156111f1576111f161260d565b6040810161265b82856124ad565b8260208301529392505050565b818103818111156111f1576111f161260d565b6060810161268982866123dd565b602082019390935260400152919050565b600181811c908216806126ae57607f821691505b6020821081036126ce57634e487b7160e01b600052602260045260246000fd5b50919050565b600181815b8085111561270f5781600019048211156126f5576126f561260d565b8085161561270257918102915b93841c93908002906126d9565b509250929050565b600082612726575060016111f1565b81612733575060006111f1565b816001811461274957600281146127535761276f565b60019150506111f1565b60ff8411156127645761276461260d565b50506001821b6111f1565b5060208310610133831016604e8410600b8410161715612792575081810a6111f1565b61279c83836126d4565b80600019048211156127b0576127b061260d565b029392505050565b6000610e178383612717565b6000826127e157634e487b7160e01b600052601260045260246000fd5b500490565b6000600182016127f8576127f861260d565b5060010190565b6040810161265b82856123dd565b6060810161268982866124ad565b634e487b7160e01b600052604160045260246000fd5b601f82111561287b57600081815260208120601f850160051c810160208610156128585750805b601f850160051c820191505b8181101561287757828155600101612864565b5050505b505050565b815167ffffffffffffffff81111561289a5761289a61281b565b6128ae816128a8845461269a565b84612831565b602080601f8311600181146128e357600084156128cb5750858301515b600019600386901b1c1916600185901b178555612877565b600085815260208120601f198616915b82811015612912578886015182559484019460019091019084016128f3565b50858210156129305787850151600019600388901b60f8161c191681555b5050505050600190811b0190555056fea2646970667358221220f0c649a9db17ce33ff99f5140e5459c710b1e4a64f906d5b05b229e3502b72cf64736f6c63430008140033","opcodes":"PUSH1 0x80 PUSH1 0x40 MSTORE PUSH1 0x1 PUSH1 0x4 SSTORE PUSH1 0x1 PUSH1 0x5 SSTORE CALLVALUE DUP1 ISZERO PUSH3 0x1B JUMPI PUSH1 0x0 DUP1 REVERT JUMPDEST POP PUSH1 0x40 MLOAD PUSH3 0x2AA7 CODESIZE SUB DUP1 PUSH3 0x2AA7 DUP4 CODECOPY DUP2 ADD PUSH1 0x40 DUP2 SWAP1 MSTORE PUSH3 0x3E SWAP2 PUSH3 0xEF JUMP JUMPDEST CALLER DUP1 PUSH3 0x65 JUMPI PUSH1 0x40 MLOAD PUSH4 0x1E4FBDF7 PUSH1 0xE0 SHL DUP2 MSTORE PUSH1 0x0 PUSH1 0x4 DUP3 ADD MSTORE PUSH1 0x24 ADD PUSH1 0x40 MLOAD DUP1 SWAP2 SUB SWAP1 REVERT JUMPDEST PUSH3 0x70 DUP2 PUSH3 0x9F JUMP JUMPDEST POP PUSH1 0x1 DUP1 SSTORE PUSH1 0x2 DUP1 SLOAD PUSH1 0x1 PUSH1 0x1 PUSH1 0xA0 SHL SUB NOT AND PUSH1 0x1 PUSH1 0x1 PUSH1 0xA0 SHL SUB SWAP3 SWAP1 SWAP3 AND SWAP2 SWAP1 SWAP2 OR SWAP1 SSTORE TIMESTAMP PUSH1 0x7 SSTORE PUSH3 0x121 JUMP JUMPDEST PUSH1 0x0 DUP1 SLOAD PUSH1 0x1 PUSH1 0x1 PUSH1 0xA0 SHL SUB DUP4 DUP2 AND PUSH1 0x1 PUSH1 0x1 PUSH1 0xA0 SHL SUB NOT DUP4 AND DUP2 OR DUP5 SSTORE PUSH1 0x40 MLOAD SWAP2 SWAP1 SWAP3 AND SWAP3 DUP4 SWAP2 PUSH32 0x8BE0079C531659141344CD1FD0A4F28419497F9722A3DAAFE3B4186F6B6457E0 SWAP2 SWAP1 LOG3 POP POP JUMP JUMPDEST PUSH1 0x0 PUSH1 0x20 DUP3 DUP5 SUB SLT ISZERO PUSH3 0x102 JUMPI PUSH1 0x0 DUP1 REVERT JUMPDEST DUP2 MLOAD PUSH1 0x1 PUSH1 0x1 PUSH1 0xA0 SHL SUB DUP2 AND DUP2 EQ PUSH3 0x11A JUMPI PUSH1 0x0 DUP1 REVERT JUMPDEST SWAP4 SWAP3 POP POP POP JUMP JUMPDEST PUSH2 0x2976 DUP1 PUSH3 0x131 PUSH1 0x0 CODECOPY PUSH1 0x0 RETURN INVALID PUSH1 0x80 PUSH1 0x40 MSTORE CALLVALUE DUP1 ISZERO PUSH2 0x10 JUMPI PUSH1 0x0 DUP1 REVERT JUMPDEST POP PUSH1 0x4 CALLDATASIZE LT PUSH2 0x253 JUMPI PUSH1 0x0 CALLDATALOAD PUSH1 0xE0 SHR DUP1 PUSH4 0x7DAE9B42 GT PUSH2 0x146 JUMPI DUP1 PUSH4 0xB8B4B173 GT PUSH2 0xC3 JUMPI DUP1 PUSH4 0xE2EB41FF GT PUSH2 0x87 JUMPI DUP1 PUSH4 0xE2EB41FF EQ PUSH2 0x6EF JUMPI DUP1 PUSH4 0xEC37E932 EQ PUSH2 0x774 JUMPI DUP1 PUSH4 0xF2FDE38B EQ PUSH2 0x77C JUMPI DUP1 PUSH4 0xF60CDCF6 EQ PUSH2 0x78F JUMPI DUP1 PUSH4 0xF62754FF EQ PUSH2 0x798 JUMPI DUP1 PUSH4 0xF80B3DD0 EQ PUSH2 0x7A0 JUMPI PUSH1 0x0 DUP1 REVERT JUMPDEST DUP1 PUSH4 0xB8B4B173 EQ PUSH2 0x5FD JUMPI DUP1 PUSH4 0xBD7E3656 EQ PUSH2 0x6A0 JUMPI DUP1 PUSH4 0xC1DFC73C EQ PUSH2 0x6B3 JUMPI DUP1 PUSH4 0xD676B9ED EQ PUSH2 0x6D3 JUMPI DUP1 PUSH4 0xD849D4EC EQ PUSH2 0x6E6 JUMPI PUSH1 0x0 DUP1 REVERT JUMPDEST DUP1 PUSH4 0x8DA5CB5B GT PUSH2 0x10A JUMPI DUP1 PUSH4 0x8DA5CB5B EQ PUSH2 0x5A0 JUMPI DUP1 PUSH4 0x92FDC366 EQ PUSH2 0x5B1 JUMPI DUP1 PUSH4 0xA16C1F15 EQ PUSH2 0x5C4 JUMPI DUP1 PUSH4 0xB2E1CF4E EQ PUSH2 0x5D7 JUMPI DUP1 PUSH4 0xB522BEF4 EQ PUSH2 0x5EA JUMPI PUSH1 0x0 DUP1 REVERT JUMPDEST DUP1 PUSH4 0x7DAE9B42 EQ PUSH2 0x51F JUMPI DUP1 PUSH4 0x7F314B93 EQ PUSH2 0x528 JUMPI DUP1 PUSH4 0x80198CE1 EQ PUSH2 0x53B JUMPI DUP1 PUSH4 0x8547E80B EQ PUSH2 0x544 JUMPI DUP1 PUSH4 0x86D2D07E EQ PUSH2 0x557 JUMPI PUSH1 0x0 DUP1 REVERT JUMPDEST DUP1 PUSH4 0x494D988E GT PUSH2 0x1D4 JUMPI DUP1 PUSH4 0x7137BABD GT PUSH2 0x198 JUMPI DUP1 PUSH4 0x7137BABD EQ PUSH2 0x463 JUMPI DUP1 PUSH4 0x715018A6 EQ PUSH2 0x46C JUMPI DUP1 PUSH4 0x74840F7B EQ PUSH2 0x474 JUMPI DUP1 PUSH4 0x7A50225A EQ PUSH2 0x4A7 JUMPI DUP1 PUSH4 0x7C00DEFF EQ PUSH2 0x4BA JUMPI PUSH1 0x0 DUP1 REVERT JUMPDEST DUP1 PUSH4 0x494D988E EQ PUSH2 0x3B9 JUMPI DUP1 PUSH4 0x4C7D3FB9 EQ PUSH2 0x3E4 JUMPI DUP1 PUSH4 0x4F11F493 EQ PUSH2 0x40F JUMPI DUP1 PUSH4 0x6943A2D1 EQ PUSH2 0x43D JUMPI DUP1 PUSH4 0x6D11D093 EQ PUSH2 0x450 JUMPI PUSH1 0x0 DUP1 REVERT JUMPDEST DUP1 PUSH4 0x293A96F0 GT PUSH2 0x21B JUMPI DUP1 PUSH4 0x293A96F0 EQ PUSH2 0x30F JUMPI DUP1 PUSH4 0x2CFB2053 EQ PUSH2 0x322 JUMPI DUP1 PUSH4 0x2FA4F3F6 EQ PUSH2 0x34A JUMPI DUP1 PUSH4 0x3DE4A70D EQ PUSH2 0x352 JUMPI DUP1 PUSH4 0x47FF13F6 EQ PUSH2 0x365 JUMPI PUSH1 0x0 DUP1 REVERT JUMPDEST DUP1 PUSH4 0x96DE6BE EQ PUSH2 0x258 JUMPI DUP1 PUSH4 0xAF3FFE0 EQ PUSH2 0x296 JUMPI DUP1 PUSH4 0x127BA5A2 EQ PUSH2 0x2A9 JUMPI DUP1 PUSH4 0x1379E144 EQ PUSH2 0x2DA JUMPI DUP1 PUSH4 0x24C733B5 EQ PUSH2 0x2E4 JUMPI JUMPDEST PUSH1 0x0 DUP1 REVERT JUMPDEST PUSH2 0x283 PUSH2 0x266 CALLDATASIZE PUSH1 0x4 PUSH2 0x2237 JUMP JUMPDEST PUSH1 0xF PUSH1 0x20 SWAP1 DUP2 MSTORE PUSH1 0x0 SWAP3 DUP4 MSTORE PUSH1 0x40 DUP1 DUP5 KECCAK256 SWAP1 SWAP2 MSTORE SWAP1 DUP3 MSTORE SWAP1 KECCAK256 SLOAD DUP2 JUMP JUMPDEST PUSH1 0x40 MLOAD SWAP1 DUP2 MSTORE PUSH1 0x20 ADD JUMPDEST PUSH1 0x40 MLOAD DUP1 SWAP2 SUB SWAP1 RETURN JUMPDEST PUSH2 0x283 PUSH2 0x2A4 CALLDATASIZE PUSH1 0x4 PUSH2 0x2287 JUMP JUMPDEST PUSH2 0x7B3 JUMP JUMPDEST PUSH2 0x283 PUSH2 0x2B7 CALLDATASIZE PUSH1 0x4 PUSH2 0x22B1 JUMP JUMPDEST PUSH1 0x12 PUSH1 0x20 SWAP1 DUP2 MSTORE PUSH1 0x0 SWAP4 DUP5 MSTORE PUSH1 0x40 DUP1 DUP6 KECCAK256 DUP3 MSTORE SWAP3 DUP5 MSTORE DUP3 DUP5 KECCAK256 SWAP1 MSTORE DUP3 MSTORE SWAP1 KECCAK256 SLOAD DUP2 JUMP JUMPDEST PUSH2 0x2E2 PUSH2 0x7E4 JUMP JUMPDEST STOP JUMPDEST PUSH1 0x3 SLOAD PUSH2 0x2F7 SWAP1 PUSH1 0x1 PUSH1 0x1 PUSH1 0xA0 SHL SUB AND DUP2 JUMP JUMPDEST PUSH1 0x40 MLOAD PUSH1 0x1 PUSH1 0x1 PUSH1 0xA0 SHL SUB SWAP1 SWAP2 AND DUP2 MSTORE PUSH1 0x20 ADD PUSH2 0x28D JUMP JUMPDEST PUSH2 0x2E2 PUSH2 0x31D CALLDATASIZE PUSH1 0x4 PUSH2 0x22EC JUMP JUMPDEST PUSH2 0x98C JUMP JUMPDEST PUSH2 0x335 PUSH2 0x330 CALLDATASIZE PUSH1 0x4 PUSH2 0x2318 JUMP JUMPDEST PUSH2 0xCDC JUMP JUMPDEST PUSH1 0x40 MLOAD PUSH2 0x28D SWAP10 SWAP9 SWAP8 SWAP7 SWAP6 SWAP5 SWAP4 SWAP3 SWAP2 SWAP1 PUSH2 0x2331 JUMP JUMPDEST PUSH2 0x283 PUSH1 0x16 DUP2 JUMP JUMPDEST PUSH2 0x283 PUSH2 0x360 CALLDATASIZE PUSH1 0x4 PUSH2 0x2318 JUMP JUMPDEST PUSH2 0xDB5 JUMP JUMPDEST PUSH2 0x3A9 PUSH2 0x373 CALLDATASIZE PUSH1 0x4 PUSH2 0x22EC JUMP JUMPDEST PUSH1 0xE PUSH1 0x20 SWAP1 DUP2 MSTORE PUSH1 0x0 SWAP3 DUP4 MSTORE PUSH1 0x40 DUP1 DUP5 KECCAK256 SWAP1 SWAP2 MSTORE SWAP1 DUP3 MSTORE SWAP1 KECCAK256 DUP1 SLOAD PUSH1 0x1 DUP3 ADD SLOAD PUSH1 0x2 DUP4 ADD SLOAD PUSH1 0x3 SWAP1 SWAP4 ADD SLOAD PUSH1 0xFF SWAP1 SWAP3 AND SWAP3 SWAP1 SWAP2 DUP5 JUMP JUMPDEST PUSH1 0x40 MLOAD PUSH2 0x28D SWAP5 SWAP4 SWAP3 SWAP2 SWAP1 PUSH2 0x23F1 JUMP JUMPDEST PUSH2 0x283 PUSH2 0x3C7 CALLDATASIZE PUSH1 0x4 PUSH2 0x2237 JUMP JUMPDEST PUSH1 0x11 PUSH1 0x20 SWAP1 DUP2 MSTORE PUSH1 0x0 SWAP3 DUP4 MSTORE PUSH1 0x40 DUP1 DUP5 KECCAK256 SWAP1 SWAP2 MSTORE SWAP1 DUP3 MSTORE SWAP1 KECCAK256 SLOAD DUP2 JUMP JUMPDEST PUSH2 0x283 PUSH2 0x3F2 CALLDATASIZE PUSH1 0x4 PUSH2 0x2429 JUMP JUMPDEST PUSH1 0xA PUSH1 0x20 SWAP1 DUP2 MSTORE PUSH1 0x0 SWAP3 DUP4 MSTORE PUSH1 0x40 DUP1 DUP5 KECCAK256 SWAP1 SWAP2 MSTORE SWAP1 DUP3 MSTORE SWAP1 KECCAK256 SLOAD DUP2 JUMP JUMPDEST PUSH2 0x422 PUSH2 0x41D CALLDATASIZE PUSH1 0x4 PUSH2 0x2453 JUMP JUMPDEST PUSH2 0xE1E JUMP JUMPDEST PUSH1 0x40 DUP1 MLOAD SWAP4 DUP5 MSTORE PUSH1 0x20 DUP5 ADD SWAP3 SWAP1 SWAP3 MSTORE SWAP1 DUP3 ADD MSTORE PUSH1 0x60 ADD PUSH2 0x28D JUMP JUMPDEST PUSH2 0x2E2 PUSH2 0x44B CALLDATASIZE PUSH1 0x4 PUSH2 0x22EC JUMP JUMPDEST PUSH2 0xF36 JUMP JUMPDEST PUSH2 0x2E2 PUSH2 0x45E CALLDATASIZE PUSH1 0x4 PUSH2 0x246F JUMP JUMPDEST PUSH2 0x109A JUMP JUMPDEST PUSH2 0x283 PUSH1 0x7 SLOAD DUP2 JUMP JUMPDEST PUSH2 0x2E2 PUSH2 0x10C4 JUMP JUMPDEST PUSH2 0x487 PUSH2 0x482 CALLDATASIZE PUSH1 0x4 PUSH2 0x2318 JUMP JUMPDEST PUSH2 0x10D8 JUMP JUMPDEST PUSH1 0x40 DUP1 MLOAD SWAP5 DUP6 MSTORE PUSH1 0x20 DUP6 ADD SWAP4 SWAP1 SWAP4 MSTORE SWAP2 DUP4 ADD MSTORE PUSH1 0x60 DUP3 ADD MSTORE PUSH1 0x80 ADD PUSH2 0x28D JUMP JUMPDEST PUSH2 0x283 PUSH2 0x4B5 CALLDATASIZE PUSH1 0x4 PUSH2 0x2429 JUMP JUMPDEST PUSH2 0x11A3 JUMP JUMPDEST PUSH2 0x4F7 PUSH2 0x4C8 CALLDATASIZE PUSH1 0x4 PUSH2 0x2318 JUMP JUMPDEST PUSH1 0xD PUSH1 0x20 MSTORE PUSH1 0x0 SWAP1 DUP2 MSTORE PUSH1 0x40 SWAP1 KECCAK256 DUP1 SLOAD PUSH1 0x1 DUP3 ADD SLOAD PUSH1 0x2 DUP4 ADD SLOAD PUSH1 0x3 DUP5 ADD SLOAD PUSH1 0x4 SWAP1 SWAP5 ADD SLOAD SWAP3 SWAP4 SWAP2 SWAP3 SWAP1 SWAP2 SWAP1 DUP6 JUMP JUMPDEST PUSH1 0x40 DUP1 MLOAD SWAP6 DUP7 MSTORE PUSH1 0x20 DUP7 ADD SWAP5 SWAP1 SWAP5 MSTORE SWAP3 DUP5 ADD SWAP2 SWAP1 SWAP2 MSTORE PUSH1 0x60 DUP4 ADD MSTORE PUSH1 0x80 DUP3 ADD MSTORE PUSH1 0xA0 ADD PUSH2 0x28D JUMP JUMPDEST PUSH2 0x283 PUSH2 0x258 DUP2 JUMP JUMPDEST PUSH2 0x2E2 PUSH2 0x536 CALLDATASIZE PUSH1 0x4 PUSH2 0x248A JUMP JUMPDEST PUSH2 0x11F7 JUMP JUMPDEST PUSH2 0x283 PUSH1 0x5 SLOAD DUP2 JUMP JUMPDEST PUSH2 0x283 PUSH2 0x552 CALLDATASIZE PUSH1 0x4 PUSH2 0x2318 JUMP JUMPDEST PUSH2 0x15DE JUMP JUMPDEST PUSH2 0x590 PUSH2 0x565 CALLDATASIZE PUSH1 0x4 PUSH2 0x246F JUMP JUMPDEST PUSH1 0xB PUSH1 0x20 MSTORE PUSH1 0x0 SWAP1 DUP2 MSTORE PUSH1 0x40 SWAP1 KECCAK256 DUP1 SLOAD PUSH1 0x1 DUP3 ADD SLOAD PUSH1 0x2 DUP4 ADD SLOAD PUSH1 0x3 SWAP1 SWAP4 ADD SLOAD PUSH1 0xFF SWAP1 SWAP3 AND SWAP3 SWAP1 SWAP2 DUP5 JUMP JUMPDEST PUSH1 0x40 MLOAD PUSH2 0x28D SWAP5 SWAP4 SWAP3 SWAP2 SWAP1 PUSH2 0x24BD JUMP JUMPDEST PUSH1 0x0 SLOAD PUSH1 0x1 PUSH1 0x1 PUSH1 0xA0 SHL SUB AND PUSH2 0x2F7 JUMP JUMPDEST PUSH2 0x283 PUSH2 0x5BF CALLDATASIZE PUSH1 0x4 PUSH2 0x22EC JUMP JUMPDEST PUSH2 0x162D JUMP JUMPDEST PUSH2 0x2E2 PUSH2 0x5D2 CALLDATASIZE PUSH1 0x4 PUSH2 0x24CB JUMP JUMPDEST PUSH2 0x1679 JUMP JUMPDEST PUSH2 0x283 PUSH2 0x5E5 CALLDATASIZE PUSH1 0x4 PUSH2 0x2553 JUMP JUMPDEST PUSH2 0x1B1A JUMP JUMPDEST PUSH2 0x283 PUSH2 0x5F8 CALLDATASIZE PUSH1 0x4 PUSH2 0x2318 JUMP JUMPDEST PUSH2 0x1BE8 JUMP JUMPDEST PUSH2 0x65B PUSH2 0x60B CALLDATASIZE PUSH1 0x4 PUSH2 0x2318 JUMP JUMPDEST PUSH1 0x10 PUSH1 0x20 MSTORE PUSH1 0x0 SWAP1 DUP2 MSTORE PUSH1 0x40 SWAP1 KECCAK256 DUP1 SLOAD PUSH1 0x1 DUP3 ADD SLOAD PUSH1 0x2 DUP4 ADD SLOAD PUSH1 0x3 DUP5 ADD SLOAD PUSH1 0x4 DUP6 ADD SLOAD PUSH1 0x5 DUP7 ADD SLOAD PUSH1 0x6 DUP8 ADD SLOAD PUSH1 0x7 SWAP1 SWAP8 ADD SLOAD SWAP6 SWAP7 PUSH1 0x1 PUSH1 0x1 PUSH1 0xA0 SHL SUB SWAP1 SWAP6 AND SWAP6 SWAP4 SWAP5 SWAP3 SWAP4 SWAP2 SWAP3 SWAP1 SWAP2 PUSH1 0xFF AND DUP9 JUMP JUMPDEST PUSH1 0x40 DUP1 MLOAD SWAP9 DUP10 MSTORE PUSH1 0x1 PUSH1 0x1 PUSH1 0xA0 SHL SUB SWAP1 SWAP8 AND PUSH1 0x20 DUP10 ADD MSTORE SWAP6 DUP8 ADD SWAP5 SWAP1 SWAP5 MSTORE PUSH1 0x60 DUP7 ADD SWAP3 SWAP1 SWAP3 MSTORE PUSH1 0x80 DUP6 ADD MSTORE PUSH1 0xA0 DUP5 ADD MSTORE PUSH1 0xC0 DUP4 ADD MSTORE ISZERO ISZERO PUSH1 0xE0 DUP3 ADD MSTORE PUSH2 0x100 ADD PUSH2 0x28D JUMP JUMPDEST PUSH2 0x283 PUSH2 0x6AE CALLDATASIZE PUSH1 0x4 PUSH2 0x2588 JUMP JUMPDEST PUSH2 0x1C35 JUMP JUMPDEST PUSH2 0x6C6 PUSH2 0x6C1 CALLDATASIZE PUSH1 0x4 PUSH2 0x246F JUMP JUMPDEST PUSH2 0x1CB6 JUMP JUMPDEST PUSH1 0x40 MLOAD PUSH2 0x28D SWAP2 SWAP1 PUSH2 0x25AD JUMP JUMPDEST PUSH2 0x422 PUSH2 0x6E1 CALLDATASIZE PUSH1 0x4 PUSH2 0x25F1 JUMP JUMPDEST PUSH2 0x1D22 JUMP JUMPDEST PUSH2 0x283 PUSH1 0x4 SLOAD DUP2 JUMP JUMPDEST PUSH2 0x73D PUSH2 0x6FD CALLDATASIZE PUSH1 0x4 PUSH2 0x246F JUMP JUMPDEST PUSH1 0x8 PUSH1 0x20 MSTORE PUSH1 0x0 SWAP1 DUP2 MSTORE PUSH1 0x40 SWAP1 KECCAK256 DUP1 SLOAD PUSH1 0x1 DUP3 ADD SLOAD PUSH1 0x2 DUP4 ADD SLOAD PUSH1 0x3 DUP5 ADD SLOAD PUSH1 0x4 DUP6 ADD SLOAD PUSH1 0x5 DUP7 ADD SLOAD PUSH1 0x6 SWAP1 SWAP7 ADD SLOAD SWAP5 SWAP6 SWAP4 SWAP5 SWAP3 SWAP4 SWAP2 SWAP3 SWAP1 SWAP2 SWAP1 PUSH1 0xFF AND DUP8 JUMP JUMPDEST PUSH1 0x40 DUP1 MLOAD SWAP8 DUP9 MSTORE PUSH1 0x20 DUP9 ADD SWAP7 SWAP1 SWAP7 MSTORE SWAP5 DUP7 ADD SWAP4 SWAP1 SWAP4 MSTORE PUSH1 0x60 DUP6 ADD SWAP2 SWAP1 SWAP2 MSTORE PUSH1 0x80 DUP5 ADD MSTORE PUSH1 0xA0 DUP4 ADD MSTORE ISZERO ISZERO PUSH1 0xC0 DUP3 ADD MSTORE PUSH1 0xE0 ADD PUSH2 0x28D JUMP JUMPDEST PUSH2 0x283 PUSH1 0x1E DUP2 JUMP JUMPDEST PUSH2 0x2E2 PUSH2 0x78A CALLDATASIZE PUSH1 0x4 PUSH2 0x246F JUMP JUMPDEST PUSH2 0x2011 JUMP JUMPDEST PUSH2 0x283 PUSH1 0x6 SLOAD DUP2 JUMP JUMPDEST PUSH2 0x283 PUSH1 0x1 DUP2 JUMP JUMPDEST PUSH1 0x2 SLOAD PUSH2 0x2F7 SWAP1 PUSH1 0x1 PUSH1 0x1 PUSH1 0xA0 SHL SUB AND DUP2 JUMP JUMPDEST PUSH1 0x9 PUSH1 0x20 MSTORE DUP2 PUSH1 0x0 MSTORE PUSH1 0x40 PUSH1 0x0 KECCAK256 DUP2 DUP2 SLOAD DUP2 LT PUSH2 0x7CF JUMPI PUSH1 0x0 DUP1 REVERT JUMPDEST SWAP1 PUSH1 0x0 MSTORE PUSH1 0x20 PUSH1 0x0 KECCAK256 ADD PUSH1 0x0 SWAP2 POP SWAP2 POP POP SLOAD DUP2 JUMP JUMPDEST CALLER PUSH1 0x0 SWAP1 DUP2 MSTORE PUSH1 0xB PUSH1 0x20 MSTORE PUSH1 0x40 SWAP1 KECCAK256 PUSH1 0x3 DUP2 ADD SLOAD PUSH2 0x849 JUMPI PUSH1 0x40 MLOAD PUSH3 0x461BCD PUSH1 0xE5 SHL DUP2 MSTORE PUSH1 0x20 PUSH1 0x4 DUP3 ADD MSTORE PUSH1 0x17 PUSH1 0x24 DUP3 ADD MSTORE PUSH32 0x4E6F20726573656172636820696E2070726F6772657373000000000000000000 PUSH1 0x44 DUP3 ADD MSTORE PUSH1 0x64 ADD JUMPDEST PUSH1 0x40 MLOAD DUP1 SWAP2 SUB SWAP1 REVERT JUMPDEST TIMESTAMP DUP2 PUSH1 0x3 ADD SLOAD GT ISZERO PUSH2 0x895 JUMPI PUSH1 0x40 MLOAD PUSH3 0x461BCD PUSH1 0xE5 SHL DUP2 MSTORE PUSH1 0x20 PUSH1 0x4 DUP3 ADD MSTORE PUSH1 0x15 PUSH1 0x24 DUP3 ADD MSTORE PUSH21 0x5265736561726368206E6F7420636F6D706C657465 PUSH1 0x58 SHL PUSH1 0x44 DUP3 ADD MSTORE PUSH1 0x64 ADD PUSH2 0x840 JUMP JUMPDEST PUSH1 0x1 DUP2 ADD SLOAD CALLER PUSH1 0x0 SWAP1 DUP2 MSTORE PUSH1 0xA PUSH1 0x20 MSTORE PUSH1 0x40 DUP2 KECCAK256 DUP4 SLOAD SWAP1 SWAP2 SWAP1 PUSH1 0xFF AND PUSH1 0xF DUP2 GT ISZERO PUSH2 0x8C2 JUMPI PUSH2 0x8C2 PUSH2 0x23C7 JUMP JUMPDEST PUSH1 0xF DUP2 GT ISZERO PUSH2 0x8D3 JUMPI PUSH2 0x8D3 PUSH2 0x23C7 JUMP JUMPDEST DUP2 MSTORE PUSH1 0x20 DUP2 ADD SWAP2 SWAP1 SWAP2 MSTORE PUSH1 0x40 ADD PUSH1 0x0 KECCAK256 SSTORE PUSH1 0x1 DUP2 ADD SLOAD PUSH2 0x8F4 SWAP1 PUSH1 0x64 PUSH2 0x2623 JUMP JUMPDEST CALLER PUSH1 0x0 SWAP1 DUP2 MSTORE PUSH1 0x8 PUSH1 0x20 MSTORE PUSH1 0x40 DUP2 KECCAK256 PUSH1 0x2 ADD DUP1 SLOAD SWAP1 SWAP2 SWAP1 PUSH2 0x916 SWAP1 DUP5 SWAP1 PUSH2 0x263A JUMP JUMPDEST SWAP1 SWAP2 SSTORE POP POP DUP1 SLOAD PUSH1 0x1 DUP3 ADD SLOAD PUSH1 0x40 MLOAD CALLER SWAP3 PUSH32 0xCDDA533D22DBEA0702CEE709F0AB1A26531B5852167FE00782329CD385E127AC SWAP3 PUSH2 0x958 SWAP3 PUSH1 0xFF SWAP1 SWAP3 AND SWAP2 PUSH2 0x264D JUMP JUMPDEST PUSH1 0x40 MLOAD DUP1 SWAP2 SUB SWAP1 LOG2 POP CALLER PUSH1 0x0 SWAP1 DUP2 MSTORE PUSH1 0xB PUSH1 0x20 MSTORE PUSH1 0x40 DUP2 KECCAK256 DUP1 SLOAD PUSH1 0xFF NOT AND DUP2 SSTORE PUSH1 0x1 DUP2 ADD DUP3 SWAP1 SSTORE PUSH1 0x2 DUP2 ADD DUP3 SWAP1 SSTORE PUSH1 0x3 ADD SSTORE JUMP JUMPDEST PUSH2 0x994 PUSH2 0x204F JUMP JUMPDEST PUSH1 0x0 DUP3 DUP2 MSTORE PUSH1 0xC PUSH1 0x20 MSTORE PUSH1 0x40 SWAP1 KECCAK256 PUSH1 0x1 DUP2 ADD SLOAD PUSH1 0x1 PUSH1 0x1 PUSH1 0xA0 SHL SUB AND CALLER EQ PUSH2 0x9F1 JUMPI PUSH1 0x40 MLOAD PUSH3 0x461BCD PUSH1 0xE5 SHL DUP2 MSTORE PUSH1 0x20 PUSH1 0x4 DUP3 ADD MSTORE PUSH1 0x10 PUSH1 0x24 DUP3 ADD MSTORE PUSH16 0x2737BA1031B7B637B73C9037BBB732B9 PUSH1 0x81 SHL PUSH1 0x44 DUP3 ADD MSTORE PUSH1 0x64 ADD PUSH2 0x840 JUMP JUMPDEST PUSH1 0x0 DUP4 DUP2 MSTORE PUSH1 0xE PUSH1 0x20 MSTORE PUSH1 0x40 DUP2 KECCAK256 DUP2 DUP5 PUSH1 0x14 DUP2 GT ISZERO PUSH2 0xA12 JUMPI PUSH2 0xA12 PUSH2 0x23C7 JUMP JUMPDEST PUSH1 0x14 DUP2 GT ISZERO PUSH2 0xA23 JUMPI PUSH2 0xA23 PUSH2 0x23C7 JUMP JUMPDEST DUP2 MSTORE PUSH1 0x20 ADD SWAP1 DUP2 MSTORE PUSH1 0x20 ADD PUSH1 0x0 KECCAK256 SWAP1 POP DUP1 PUSH1 0x3 ADD SLOAD PUSH1 0x0 EQ DUP1 PUSH2 0xA4A JUMPI POP TIMESTAMP DUP2 PUSH1 0x3 ADD SLOAD GT ISZERO JUMPDEST PUSH2 0xA8C JUMPI PUSH1 0x40 MLOAD PUSH3 0x461BCD PUSH1 0xE5 SHL DUP2 MSTORE PUSH1 0x20 PUSH1 0x4 DUP3 ADD MSTORE PUSH1 0x13 PUSH1 0x24 DUP3 ADD MSTORE PUSH19 0x5570677261646520696E2070726F6772657373 PUSH1 0x68 SHL PUSH1 0x44 DUP3 ADD MSTORE PUSH1 0x64 ADD PUSH2 0x840 JUMP JUMPDEST PUSH1 0x0 DUP2 PUSH1 0x1 ADD SLOAD PUSH1 0x1 PUSH2 0xA9F SWAP2 SWAP1 PUSH2 0x263A JUMP JUMPDEST SWAP1 POP PUSH1 0x1E DUP2 GT ISZERO PUSH2 0xAE6 JUMPI PUSH1 0x40 MLOAD PUSH3 0x461BCD PUSH1 0xE5 SHL DUP2 MSTORE PUSH1 0x20 PUSH1 0x4 DUP3 ADD MSTORE PUSH1 0x11 PUSH1 0x24 DUP3 ADD MSTORE PUSH17 0x13585E081B195D995B081C995858DA1959 PUSH1 0x7A SHL PUSH1 0x44 DUP3 ADD MSTORE PUSH1 0x64 ADD PUSH2 0x840 JUMP JUMPDEST PUSH1 0x0 DUP1 PUSH1 0x0 PUSH2 0xAF5 DUP8 DUP6 PUSH2 0x1D22 JUMP JUMPDEST PUSH1 0x0 DUP12 DUP2 MSTORE PUSH1 0xD PUSH1 0x20 MSTORE PUSH1 0x40 SWAP1 KECCAK256 SWAP3 SWAP6 POP SWAP1 SWAP4 POP SWAP2 POP PUSH2 0xB14 DUP10 PUSH2 0x2079 JUMP JUMPDEST DUP1 SLOAD DUP5 GT ISZERO PUSH2 0xB58 JUMPI PUSH1 0x40 MLOAD PUSH3 0x461BCD PUSH1 0xE5 SHL DUP2 MSTORE PUSH1 0x20 PUSH1 0x4 DUP3 ADD MSTORE PUSH1 0x10 PUSH1 0x24 DUP3 ADD MSTORE PUSH16 0x496E73756666696369656E74206F7265 PUSH1 0x80 SHL PUSH1 0x44 DUP3 ADD MSTORE PUSH1 0x64 ADD PUSH2 0x840 JUMP JUMPDEST DUP3 DUP2 PUSH1 0x1 ADD SLOAD LT ISZERO PUSH2 0xBA3 JUMPI PUSH1 0x40 MLOAD PUSH3 0x461BCD PUSH1 0xE5 SHL DUP2 MSTORE PUSH1 0x20 PUSH1 0x4 DUP3 ADD MSTORE PUSH1 0x14 PUSH1 0x24 DUP3 ADD MSTORE PUSH20 0x125B9CDD59999A58DA595B9D0818DC9E5CDD185B PUSH1 0x62 SHL PUSH1 0x44 DUP3 ADD MSTORE PUSH1 0x64 ADD PUSH2 0x840 JUMP JUMPDEST DUP2 DUP2 PUSH1 0x2 ADD SLOAD LT ISZERO PUSH2 0xBED JUMPI PUSH1 0x40 MLOAD PUSH3 0x461BCD PUSH1 0xE5 SHL DUP2 MSTORE PUSH1 0x20 PUSH1 0x4 DUP3 ADD MSTORE PUSH1 0x13 PUSH1 0x24 DUP3 ADD MSTORE PUSH19 0x496E73756666696369656E7420706C61736D61 PUSH1 0x68 SHL PUSH1 0x44 DUP3 ADD MSTORE PUSH1 0x64 ADD PUSH2 0x840 JUMP JUMPDEST DUP4 DUP2 PUSH1 0x0 ADD PUSH1 0x0 DUP3 DUP3 SLOAD PUSH2 0xC01 SWAP2 SWAP1 PUSH2 0x2668 JUMP JUMPDEST SWAP3 POP POP DUP2 SWAP1 SSTORE POP DUP3 DUP2 PUSH1 0x1 ADD PUSH1 0x0 DUP3 DUP3 SLOAD PUSH2 0xC1C SWAP2 SWAP1 PUSH2 0x2668 JUMP JUMPDEST SWAP3 POP POP DUP2 SWAP1 SSTORE POP DUP2 DUP2 PUSH1 0x2 ADD PUSH1 0x0 DUP3 DUP3 SLOAD PUSH2 0xC37 SWAP2 SWAP1 PUSH2 0x2668 JUMP JUMPDEST SWAP1 SWAP2 SSTORE POP PUSH1 0x0 SWAP1 POP PUSH2 0xC4A DUP11 DUP11 DUP9 PUSH2 0x1B1A JUMP JUMPDEST DUP8 SLOAD SWAP1 SWAP2 POP DUP10 SWAP1 DUP9 SWAP1 PUSH1 0xFF NOT AND PUSH1 0x1 DUP4 PUSH1 0x14 DUP2 GT ISZERO PUSH2 0xC6B JUMPI PUSH2 0xC6B PUSH2 0x23C7 JUMP JUMPDEST MUL OR SWAP1 SSTORE POP TIMESTAMP PUSH1 0x2 DUP9 ADD DUP2 SWAP1 SSTORE PUSH2 0xC83 SWAP1 DUP3 SWAP1 PUSH2 0x263A JUMP JUMPDEST PUSH1 0x3 DUP9 ADD DUP2 SWAP1 SSTORE PUSH1 0x40 MLOAD DUP12 SWAP2 PUSH32 0x50D13FD41DAB8891DACB9FF0EA7F54B7D6E6B2B7A2B70398E261F0B84F94BC6F SWAP2 PUSH2 0xCBF SWAP2 DUP14 SWAP2 DUP12 SWAP2 SWAP1 PUSH2 0x267B JUMP JUMPDEST PUSH1 0x40 MLOAD DUP1 SWAP2 SUB SWAP1 LOG2 POP POP POP POP POP POP POP POP PUSH2 0xCD8 PUSH1 0x1 DUP1 SSTORE JUMP JUMPDEST POP POP JUMP JUMPDEST PUSH1 0xC PUSH1 0x20 MSTORE PUSH1 0x0 SWAP1 DUP2 MSTORE PUSH1 0x40 SWAP1 KECCAK256 DUP1 SLOAD PUSH1 0x1 DUP3 ADD SLOAD PUSH1 0x2 DUP4 ADD DUP1 SLOAD SWAP3 SWAP4 PUSH1 0x1 PUSH1 0x1 PUSH1 0xA0 SHL SUB SWAP1 SWAP3 AND SWAP3 PUSH2 0xD0E SWAP1 PUSH2 0x269A JUMP JUMPDEST DUP1 PUSH1 0x1F ADD PUSH1 0x20 DUP1 SWAP2 DIV MUL PUSH1 0x20 ADD PUSH1 0x40 MLOAD SWAP1 DUP2 ADD PUSH1 0x40 MSTORE DUP1 SWAP3 SWAP2 SWAP1 DUP2 DUP2 MSTORE PUSH1 0x20 ADD DUP3 DUP1 SLOAD PUSH2 0xD3A SWAP1 PUSH2 0x269A JUMP JUMPDEST DUP1 ISZERO PUSH2 0xD87 JUMPI DUP1 PUSH1 0x1F LT PUSH2 0xD5C JUMPI PUSH2 0x100 DUP1 DUP4 SLOAD DIV MUL DUP4 MSTORE SWAP2 PUSH1 0x20 ADD SWAP2 PUSH2 0xD87 JUMP JUMPDEST DUP3 ADD SWAP2 SWAP1 PUSH1 0x0 MSTORE PUSH1 0x20 PUSH1 0x0 KECCAK256 SWAP1 JUMPDEST DUP2 SLOAD DUP2 MSTORE SWAP1 PUSH1 0x1 ADD SWAP1 PUSH1 0x20 ADD DUP1 DUP4 GT PUSH2 0xD6A JUMPI DUP3 SWAP1 SUB PUSH1 0x1F AND DUP3 ADD SWAP2 JUMPDEST POP POP POP POP POP SWAP1 DUP1 PUSH1 0x3 ADD SLOAD SWAP1 DUP1 PUSH1 0x4 ADD SLOAD SWAP1 DUP1 PUSH1 0x5 ADD SLOAD SWAP1 DUP1 PUSH1 0x6 ADD SLOAD SWAP1 DUP1 PUSH1 0x7 ADD SLOAD SWAP1 DUP1 PUSH1 0x8 ADD SLOAD SWAP1 POP DUP10 JUMP JUMPDEST PUSH1 0x0 DUP2 DUP2 MSTORE PUSH1 0xE PUSH1 0x20 SWAP1 DUP2 MSTORE PUSH1 0x40 DUP1 DUP4 KECCAK256 DUP4 DUP1 MSTORE SWAP1 SWAP2 MSTORE DUP2 KECCAK256 PUSH1 0x1 ADD SLOAD DUP1 DUP3 SUB PUSH2 0xDE2 JUMPI POP PUSH1 0x1E SWAP3 SWAP2 POP POP JUMP JUMPDEST PUSH2 0xDED DUP2 PUSH1 0xA PUSH2 0x27B8 JUMP JUMPDEST PUSH2 0xDF8 DUP3 PUSH1 0xB PUSH2 0x27B8 JUMP JUMPDEST PUSH2 0xE03 DUP4 PUSH1 0x1E PUSH2 0x2623 JUMP JUMPDEST PUSH2 0xE0D SWAP2 SWAP1 PUSH2 0x2623 JUMP JUMPDEST PUSH2 0xE17 SWAP2 SWAP1 PUSH2 0x27C4 JUMP JUMPDEST SWAP4 SWAP3 POP POP POP JUMP JUMPDEST PUSH1 0x0 DUP1 DUP1 PUSH1 0x8 DUP6 PUSH1 0xF DUP2 GT ISZERO PUSH2 0xE36 JUMPI PUSH2 0xE36 PUSH2 0x23C7 JUMP JUMPDEST EQ DUP1 PUSH2 0xE53 JUMPI POP PUSH1 0x9 DUP6 PUSH1 0xF DUP2 GT ISZERO PUSH2 0xE51 JUMPI PUSH2 0xE51 PUSH2 0x23C7 JUMP JUMPDEST EQ JUMPDEST DUP1 PUSH2 0xE6F JUMPI POP PUSH1 0xA DUP6 PUSH1 0xF DUP2 GT ISZERO PUSH2 0xE6D JUMPI PUSH2 0xE6D PUSH2 0x23C7 JUMP JUMPDEST EQ JUMPDEST ISZERO PUSH2 0xEC4 JUMPI PUSH1 0x2 PUSH2 0xE80 DUP6 DUP3 PUSH2 0x27B8 JUMP JUMPDEST PUSH2 0xE8C SWAP1 PUSH2 0x320 PUSH2 0x2623 JUMP JUMPDEST PUSH2 0xE96 SWAP2 SWAP1 PUSH2 0x27C4 JUMP JUMPDEST SWAP3 POP PUSH1 0x2 PUSH2 0xEA4 DUP6 DUP3 PUSH2 0x27B8 JUMP JUMPDEST PUSH2 0xEAF SWAP1 PUSH1 0xC8 PUSH2 0x2623 JUMP JUMPDEST PUSH2 0xEB9 SWAP2 SWAP1 PUSH2 0x27C4 JUMP JUMPDEST SWAP2 POP PUSH1 0x0 SWAP1 POP PUSH2 0xF2F JUMP JUMPDEST PUSH1 0x2 PUSH2 0xED0 DUP6 DUP3 PUSH2 0x27B8 JUMP JUMPDEST PUSH2 0xEDB SWAP1 PUSH1 0xC8 PUSH2 0x2623 JUMP JUMPDEST PUSH2 0xEE5 SWAP2 SWAP1 PUSH2 0x27C4 JUMP JUMPDEST SWAP3 POP PUSH1 0x2 PUSH2 0xEF3 DUP6 DUP3 PUSH2 0x27B8 JUMP JUMPDEST PUSH2 0xEFF SWAP1 PUSH2 0x190 PUSH2 0x2623 JUMP JUMPDEST PUSH2 0xF09 SWAP2 SWAP1 PUSH2 0x27C4 JUMP JUMPDEST SWAP2 POP PUSH1 0x2 PUSH2 0xF17 DUP6 DUP3 PUSH2 0x27B8 JUMP JUMPDEST PUSH2 0xF22 SWAP1 PUSH1 0x64 PUSH2 0x2623 JUMP JUMPDEST PUSH2 0xF2C SWAP2 SWAP1 PUSH2 0x27C4 JUMP JUMPDEST SWAP1 POP JUMPDEST SWAP3 POP SWAP3 POP SWAP3 JUMP JUMPDEST PUSH1 0x0 DUP3 DUP2 MSTORE PUSH1 0xE PUSH1 0x20 MSTORE PUSH1 0x40 DUP2 KECCAK256 DUP2 DUP4 PUSH1 0x14 DUP2 GT ISZERO PUSH2 0xF57 JUMPI PUSH2 0xF57 PUSH2 0x23C7 JUMP JUMPDEST PUSH1 0x14 DUP2 GT ISZERO PUSH2 0xF68 JUMPI PUSH2 0xF68 PUSH2 0x23C7 JUMP JUMPDEST DUP2 MSTORE PUSH1 0x20 ADD SWAP1 DUP2 MSTORE PUSH1 0x20 ADD PUSH1 0x0 KECCAK256 SWAP1 POP PUSH1 0x0 DUP2 PUSH1 0x3 ADD SLOAD GT PUSH2 0xFC5 JUMPI PUSH1 0x40 MLOAD PUSH3 0x461BCD PUSH1 0xE5 SHL DUP2 MSTORE PUSH1 0x20 PUSH1 0x4 DUP3 ADD MSTORE PUSH1 0x16 PUSH1 0x24 DUP3 ADD MSTORE PUSH22 0x4E6F207570677261646520696E2070726F6772657373 PUSH1 0x50 SHL PUSH1 0x44 DUP3 ADD MSTORE PUSH1 0x64 ADD PUSH2 0x840 JUMP JUMPDEST TIMESTAMP DUP2 PUSH1 0x3 ADD SLOAD GT ISZERO PUSH2 0x1010 JUMPI PUSH1 0x40 MLOAD PUSH3 0x461BCD PUSH1 0xE5 SHL DUP2 MSTORE PUSH1 0x20 PUSH1 0x4 DUP3 ADD MSTORE PUSH1 0x14 PUSH1 0x24 DUP3 ADD MSTORE PUSH20 0x55706772616465206E6F7420636F6D706C657465 PUSH1 0x60 SHL PUSH1 0x44 DUP3 ADD MSTORE PUSH1 0x64 ADD PUSH2 0x840 JUMP JUMPDEST PUSH1 0x1 DUP2 ADD DUP1 SLOAD SWAP1 PUSH1 0x0 PUSH2 0x1022 DUP4 PUSH2 0x27E6 JUMP JUMPDEST SWAP1 SWAP2 SSTORE POP POP PUSH1 0x0 PUSH1 0x2 DUP3 ADD DUP2 SWAP1 SSTORE PUSH1 0x3 DUP3 ADD DUP2 SWAP1 SSTORE DUP4 DUP2 MSTORE PUSH1 0xC PUSH1 0x20 MSTORE PUSH1 0x40 DUP2 KECCAK256 PUSH1 0x7 ADD DUP1 SLOAD SWAP2 PUSH2 0x1052 DUP4 PUSH2 0x27E6 JUMP JUMPDEST SWAP2 SWAP1 POP SSTORE POP DUP3 PUSH32 0xAC2DEB87F89C37C0B0266760F2AD79245E2DC19BA7604CC511A2EB082608F043 DUP4 DUP4 PUSH1 0x1 ADD SLOAD PUSH1 0x40 MLOAD PUSH2 0x108D SWAP3 SWAP2 SWAP1 PUSH2 0x27FF JUMP JUMPDEST PUSH1 0x40 MLOAD DUP1 SWAP2 SUB SWAP1 LOG2 POP POP POP JUMP JUMPDEST PUSH2 0x10A2 PUSH2 0x21BA JUMP JUMPDEST PUSH1 0x3 DUP1 SLOAD PUSH1 0x1 PUSH1 0x1 PUSH1 0xA0 SHL SUB NOT AND PUSH1 0x1 PUSH1 0x1 PUSH1 0xA0 SHL SUB SWAP3 SWAP1 SWAP3 AND SWAP2 SWAP1 SWAP2 OR SWAP1 SSTORE JUMP JUMPDEST PUSH2 0x10CC PUSH2 0x21BA JUMP JUMPDEST PUSH2 0x10D6 PUSH1 0x0 PUSH2 0x21E7 JUMP JUMPDEST JUMP JUMPDEST PUSH1 0x0 DUP2 DUP2 MSTORE PUSH1 0xD PUSH1 0x20 MSTORE PUSH1 0x40 DUP2 KECCAK256 PUSH1 0x4 DUP2 ADD SLOAD DUP3 SWAP2 DUP3 SWAP2 DUP3 SWAP2 SWAP1 DUP3 SWAP1 PUSH2 0x10FE SWAP1 TIMESTAMP PUSH2 0x2668 JUMP JUMPDEST SWAP1 POP PUSH2 0xE10 DUP2 PUSH2 0x110D DUP10 PUSH2 0xDB5 JUMP JUMPDEST PUSH2 0x1117 SWAP2 SWAP1 PUSH2 0x2623 JUMP JUMPDEST PUSH2 0x1121 SWAP2 SWAP1 PUSH2 0x27C4 JUMP JUMPDEST DUP3 SLOAD PUSH2 0x112D SWAP2 SWAP1 PUSH2 0x263A JUMP JUMPDEST SWAP6 POP PUSH2 0xE10 DUP2 PUSH2 0x113C DUP10 PUSH2 0x1BE8 JUMP JUMPDEST PUSH2 0x1146 SWAP2 SWAP1 PUSH2 0x2623 JUMP JUMPDEST PUSH2 0x1150 SWAP2 SWAP1 PUSH2 0x27C4 JUMP JUMPDEST DUP3 PUSH1 0x1 ADD SLOAD PUSH2 0x115F SWAP2 SWAP1 PUSH2 0x263A JUMP JUMPDEST SWAP5 POP PUSH2 0xE10 DUP2 PUSH2 0x116E DUP10 PUSH2 0x15DE JUMP JUMPDEST PUSH2 0x1178 SWAP2 SWAP1 PUSH2 0x2623 JUMP JUMPDEST PUSH2 0x1182 SWAP2 SWAP1 PUSH2 0x27C4 JUMP JUMPDEST DUP3 PUSH1 0x2 ADD SLOAD PUSH2 0x1191 SWAP2 SWAP1 PUSH2 0x263A JUMP JUMPDEST SWAP4 POP DUP2 PUSH1 0x3 ADD SLOAD SWAP3 POP POP POP SWAP2 SWAP4 POP SWAP2 SWAP4 JUMP JUMPDEST PUSH1 0x1 PUSH1 0x1 PUSH1 0xA0 SHL SUB DUP3 AND PUSH1 0x0 SWAP1 DUP2 MSTORE PUSH1 0xA PUSH1 0x20 MSTORE PUSH1 0x40 DUP2 KECCAK256 DUP2 DUP4 PUSH1 0xF DUP2 GT ISZERO PUSH2 0x11CE JUMPI PUSH2 0x11CE PUSH2 0x23C7 JUMP JUMPDEST PUSH1 0xF DUP2 GT ISZERO PUSH2 0x11DF JUMPI PUSH2 0x11DF PUSH2 0x23C7 JUMP JUMPDEST DUP2 MSTORE PUSH1 0x20 ADD SWAP1 DUP2 MSTORE PUSH1 0x20 ADD PUSH1 0x0 KECCAK256 SLOAD SWAP1 POP JUMPDEST SWAP3 SWAP2 POP POP JUMP JUMPDEST PUSH2 0x11FF PUSH2 0x204F JUMP JUMPDEST PUSH1 0x0 DUP3 DUP2 MSTORE PUSH1 0xC PUSH1 0x20 MSTORE PUSH1 0x40 SWAP1 KECCAK256 PUSH1 0x1 ADD SLOAD PUSH1 0x1 PUSH1 0x1 PUSH1 0xA0 SHL SUB AND CALLER EQ PUSH2 0x125B JUMPI PUSH1 0x40 MLOAD PUSH3 0x461BCD PUSH1 0xE5 SHL DUP2 MSTORE PUSH1 0x20 PUSH1 0x4 DUP3 ADD MSTORE PUSH1 0x10 PUSH1 0x24 DUP3 ADD MSTORE PUSH16 0x2737BA1031B7B637B73C9037BBB732B9 PUSH1 0x81 SHL PUSH1 0x44 DUP3 ADD MSTORE PUSH1 0x64 ADD PUSH2 0x840 JUMP JUMPDEST CALLER PUSH1 0x0 SWAP1 DUP2 MSTORE PUSH1 0xB PUSH1 0x20 MSTORE PUSH1 0x40 SWAP1 KECCAK256 PUSH1 0x3 ADD SLOAD ISZERO DUP1 PUSH2 0x128C JUMPI POP CALLER PUSH1 0x0 SWAP1 DUP2 MSTORE PUSH1 0xB PUSH1 0x20 MSTORE PUSH1 0x40 SWAP1 KECCAK256 PUSH1 0x3 ADD SLOAD TIMESTAMP LT ISZERO JUMPDEST PUSH2 0x12CF JUMPI PUSH1 0x40 MLOAD PUSH3 0x461BCD PUSH1 0xE5 SHL DUP2 MSTORE PUSH1 0x20 PUSH1 0x4 DUP3 ADD MSTORE PUSH1 0x14 PUSH1 0x24 DUP3 ADD MSTORE PUSH20 0x526573656172636820696E2070726F6772657373 PUSH1 0x60 SHL PUSH1 0x44 DUP3 ADD MSTORE PUSH1 0x64 ADD PUSH2 0x840 JUMP JUMPDEST PUSH1 0x0 DUP3 DUP2 MSTORE PUSH1 0xE PUSH1 0x20 SWAP1 DUP2 MSTORE PUSH1 0x40 DUP1 DUP4 KECCAK256 PUSH1 0xA DUP5 MSTORE SWAP1 SWAP2 MSTORE SWAP1 KECCAK256 PUSH1 0x1 SWAP1 DUP2 ADD SLOAD LT ISZERO PUSH2 0x1334 JUMPI PUSH1 0x40 MLOAD PUSH3 0x461BCD PUSH1 0xE5 SHL DUP2 MSTORE PUSH1 0x20 PUSH1 0x4 DUP3 ADD MSTORE PUSH1 0x14 PUSH1 0x24 DUP3 ADD MSTORE PUSH20 0x4E65656420536369656E63652041636164656D79 PUSH1 0x60 SHL PUSH1 0x44 DUP3 ADD MSTORE PUSH1 0x64 ADD PUSH2 0x840 JUMP JUMPDEST CALLER PUSH1 0x0 SWAP1 DUP2 MSTORE PUSH1 0xA PUSH1 0x20 MSTORE PUSH1 0x40 DUP2 KECCAK256 DUP2 DUP4 PUSH1 0xF DUP2 GT ISZERO PUSH2 0x1356 JUMPI PUSH2 0x1356 PUSH2 0x23C7 JUMP JUMPDEST PUSH1 0xF DUP2 GT ISZERO PUSH2 0x1367 JUMPI PUSH2 0x1367 PUSH2 0x23C7 JUMP JUMPDEST DUP2 MSTORE PUSH1 0x20 ADD SWAP1 DUP2 MSTORE PUSH1 0x20 ADD PUSH1 0x0 KECCAK256 SLOAD SWAP1 POP PUSH1 0x0 DUP2 PUSH1 0x1 PUSH2 0x1387 SWAP2 SWAP1 PUSH2 0x263A JUMP JUMPDEST SWAP1 POP PUSH1 0x0 DUP1 PUSH1 0x0 PUSH2 0x1398 DUP7 DUP6 PUSH2 0xE1E JUMP JUMPDEST PUSH1 0x0 DUP11 DUP2 MSTORE PUSH1 0xD PUSH1 0x20 MSTORE PUSH1 0x40 SWAP1 KECCAK256 SWAP3 SWAP6 POP SWAP1 SWAP4 POP SWAP2 POP PUSH2 0x13B7 DUP9 PUSH2 0x2079 JUMP JUMPDEST DUP1 SLOAD DUP5 GT ISZERO PUSH2 0x13FB JUMPI PUSH1 0x40 MLOAD PUSH3 0x461BCD PUSH1 0xE5 SHL DUP2 MSTORE PUSH1 0x20 PUSH1 0x4 DUP3 ADD MSTORE PUSH1 0x10 PUSH1 0x24 DUP3 ADD MSTORE PUSH16 0x496E73756666696369656E74206F7265 PUSH1 0x80 SHL PUSH1 0x44 DUP3 ADD MSTORE PUSH1 0x64 ADD PUSH2 0x840 JUMP JUMPDEST DUP3 DUP2 PUSH1 0x1 ADD SLOAD LT ISZERO PUSH2 0x1446 JUMPI PUSH1 0x40 MLOAD PUSH3 0x461BCD PUSH1 0xE5 SHL DUP2 MSTORE PUSH1 0x20 PUSH1 0x4 DUP3 ADD MSTORE PUSH1 0x14 PUSH1 0x24 DUP3 ADD MSTORE PUSH20 0x125B9CDD59999A58DA595B9D0818DC9E5CDD185B PUSH1 0x62 SHL PUSH1 0x44 DUP3 ADD MSTORE PUSH1 0x64 ADD PUSH2 0x840 JUMP JUMPDEST DUP2 DUP2 PUSH1 0x2 ADD SLOAD LT ISZERO PUSH2 0x1490 JUMPI PUSH1 0x40 MLOAD PUSH3 0x461BCD PUSH1 0xE5 SHL DUP2 MSTORE PUSH1 0x20 PUSH1 0x4 DUP3 ADD MSTORE PUSH1 0x13 PUSH1 0x24 DUP3 ADD MSTORE PUSH19 0x496E73756666696369656E7420706C61736D61 PUSH1 0x68 SHL PUSH1 0x44 DUP3 ADD MSTORE PUSH1 0x64 ADD PUSH2 0x840 JUMP JUMPDEST DUP4 DUP2 PUSH1 0x0 ADD PUSH1 0x0 DUP3 DUP3 SLOAD PUSH2 0x14A4 SWAP2 SWAP1 PUSH2 0x2668 JUMP JUMPDEST SWAP3 POP POP DUP2 SWAP1 SSTORE POP DUP3 DUP2 PUSH1 0x1 ADD PUSH1 0x0 DUP3 DUP3 SLOAD PUSH2 0x14BF SWAP2 SWAP1 PUSH2 0x2668 JUMP JUMPDEST SWAP3 POP POP DUP2 SWAP1 SSTORE POP DUP2 DUP2 PUSH1 0x2 ADD PUSH1 0x0 DUP3 DUP3 SLOAD PUSH2 0x14DA SWAP2 SWAP1 PUSH2 0x2668 JUMP JUMPDEST SWAP1 SWAP2 SSTORE POP PUSH1 0x0 SWAP1 POP PUSH2 0x14ED DUP10 DUP10 DUP9 PUSH2 0x1C35 JUMP JUMPDEST SWAP1 POP PUSH1 0x40 MLOAD DUP1 PUSH1 0x80 ADD PUSH1 0x40 MSTORE DUP1 DUP10 PUSH1 0xF DUP2 GT ISZERO PUSH2 0x150C JUMPI PUSH2 0x150C PUSH2 0x23C7 JUMP JUMPDEST DUP2 MSTORE PUSH1 0x20 ADD DUP8 DUP2 MSTORE PUSH1 0x20 ADD TIMESTAMP DUP2 MSTORE PUSH1 0x20 ADD DUP3 TIMESTAMP PUSH2 0x1529 SWAP2 SWAP1 PUSH2 0x263A JUMP JUMPDEST SWAP1 MSTORE CALLER PUSH1 0x0 SWAP1 DUP2 MSTORE PUSH1 0xB PUSH1 0x20 MSTORE PUSH1 0x40 SWAP1 KECCAK256 DUP2 MLOAD DUP2 SLOAD DUP3 SWAP1 PUSH1 0xFF NOT AND PUSH1 0x1 DUP4 PUSH1 0xF DUP2 GT ISZERO PUSH2 0x1558 JUMPI PUSH2 0x1558 PUSH2 0x23C7 JUMP JUMPDEST MUL OR SWAP1 SSTORE POP PUSH1 0x20 DUP3 DUP2 ADD MLOAD PUSH1 0x1 DUP4 ADD SSTORE PUSH1 0x40 DUP1 DUP5 ADD MLOAD PUSH1 0x2 DUP5 ADD SSTORE PUSH1 0x60 SWAP1 SWAP4 ADD MLOAD PUSH1 0x3 SWAP3 DUP4 ADD SSTORE CALLER PUSH1 0x0 DUP2 DUP2 MSTORE PUSH1 0xB SWAP1 SWAP3 MSTORE SWAP1 DUP4 SWAP1 KECCAK256 SWAP1 SWAP2 ADD SLOAD SWAP2 MLOAD SWAP1 SWAP2 PUSH32 0xDADB32E3914B3C41E6D60CDA49731910D44116B464A5CCA2257C559758792937 SWAP2 PUSH2 0x15C6 SWAP2 DUP13 SWAP2 DUP12 SWAP2 SWAP1 PUSH2 0x280D JUMP JUMPDEST PUSH1 0x40 MLOAD DUP1 SWAP2 SUB SWAP1 LOG2 POP POP POP POP POP POP POP PUSH2 0xCD8 PUSH1 0x1 DUP1 SSTORE JUMP JUMPDEST PUSH1 0x0 DUP2 DUP2 MSTORE PUSH1 0xE PUSH1 0x20 SWAP1 DUP2 MSTORE PUSH1 0x40 DUP1 DUP4 KECCAK256 PUSH1 0x2 DUP5 MSTORE SWAP1 SWAP2 MSTORE DUP2 KECCAK256 PUSH1 0x1 ADD SLOAD DUP1 DUP3 SUB PUSH2 0x160C JUMPI POP PUSH1 0x0 SWAP3 SWAP2 POP POP JUMP JUMPDEST PUSH2 0x1617 DUP2 PUSH1 0xA PUSH2 0x27B8 JUMP JUMPDEST PUSH2 0x1622 DUP3 PUSH1 0xB PUSH2 0x27B8 JUMP JUMPDEST PUSH2 0xE03 DUP4 PUSH1 0xA PUSH2 0x2623 JUMP JUMPDEST PUSH1 0x0 DUP3 DUP2 MSTORE PUSH1 0xE PUSH1 0x20 MSTORE PUSH1 0x40 DUP2 KECCAK256 DUP2 DUP4 PUSH1 0x14 DUP2 GT ISZERO PUSH2 0x164E JUMPI PUSH2 0x164E PUSH2 0x23C7 JUMP JUMPDEST PUSH1 0x14 DUP2 GT ISZERO PUSH2 0x165F JUMPI PUSH2 0x165F PUSH2 0x23C7 JUMP JUMPDEST DUP2 MSTORE PUSH1 0x20 ADD SWAP1 DUP2 MSTORE PUSH1 0x20 ADD PUSH1 0x0 KECCAK256 PUSH1 0x1 ADD SLOAD SWAP1 POP SWAP3 SWAP2 POP POP JUMP JUMPDEST PUSH2 0x1681 PUSH2 0x204F JUMP JUMPDEST CALLER PUSH1 0x0 SWAP1 DUP2 MSTORE PUSH1 0x8 PUSH1 0x20 MSTORE PUSH1 0x40 SWAP1 KECCAK256 PUSH1 0x6 ADD SLOAD PUSH1 0xFF AND ISZERO PUSH2 0x16D9 JUMPI PUSH1 0x40 MLOAD PUSH3 0x461BCD PUSH1 0xE5 SHL DUP2 MSTORE PUSH1 0x20 PUSH1 0x4 DUP3 ADD MSTORE PUSH1 0x12 PUSH1 0x24 DUP3 ADD MSTORE PUSH18 0x105B1C9958591E481C9959DA5CDD195C9959 PUSH1 0x72 SHL PUSH1 0x44 DUP3 ADD MSTORE PUSH1 0x64 ADD PUSH2 0x840 JUMP JUMPDEST PUSH1 0x1 DUP4 LT ISZERO DUP1 ISZERO PUSH2 0x16EB JUMPI POP PUSH1 0x9 DUP4 GT ISZERO JUMPDEST PUSH2 0x1728 JUMPI PUSH1 0x40 MLOAD PUSH3 0x461BCD PUSH1 0xE5 SHL DUP2 MSTORE PUSH1 0x20 PUSH1 0x4 DUP3 ADD MSTORE PUSH1 0xE PUSH1 0x24 DUP3 ADD MSTORE PUSH14 0x496E76616C69642067616C617879 PUSH1 0x90 SHL PUSH1 0x44 DUP3 ADD MSTORE PUSH1 0x64 ADD PUSH2 0x840 JUMP JUMPDEST PUSH1 0x1 DUP3 LT ISZERO DUP1 ISZERO PUSH2 0x173B JUMPI POP PUSH2 0x1F3 DUP3 GT ISZERO JUMPDEST PUSH2 0x1778 JUMPI PUSH1 0x40 MLOAD PUSH3 0x461BCD PUSH1 0xE5 SHL DUP2 MSTORE PUSH1 0x20 PUSH1 0x4 DUP3 ADD MSTORE PUSH1 0xE PUSH1 0x24 DUP3 ADD MSTORE PUSH14 0x496E76616C69642073797374656D PUSH1 0x90 SHL PUSH1 0x44 DUP3 ADD MSTORE PUSH1 0x64 ADD PUSH2 0x840 JUMP JUMPDEST PUSH1 0x1 DUP2 LT ISZERO DUP1 ISZERO PUSH2 0x178A JUMPI POP PUSH1 0xF DUP2 GT ISZERO JUMPDEST PUSH2 0x17C9 JUMPI PUSH1 0x40 MLOAD PUSH3 0x461BCD PUSH1 0xE5 SHL DUP2 MSTORE PUSH1 0x20 PUSH1 0x4 DUP3 ADD MSTORE PUSH1 0x10 PUSH1 0x24 DUP3 ADD MSTORE PUSH16 0x24B73B30B634B2103837B9B4BA34B7B7 PUSH1 0x81 SHL PUSH1 0x44 DUP3 ADD MSTORE PUSH1 0x64 ADD PUSH2 0x840 JUMP JUMPDEST PUSH1 0x0 DUP4 DUP2 MSTORE PUSH1 0x12 PUSH1 0x20 SWAP1 DUP2 MSTORE PUSH1 0x40 DUP1 DUP4 KECCAK256 DUP6 DUP5 MSTORE DUP3 MSTORE DUP1 DUP4 KECCAK256 DUP5 DUP5 MSTORE SWAP1 SWAP2 MSTORE SWAP1 KECCAK256 SLOAD ISZERO PUSH2 0x182C JUMPI PUSH1 0x40 MLOAD PUSH3 0x461BCD PUSH1 0xE5 SHL DUP2 MSTORE PUSH1 0x20 PUSH1 0x4 DUP3 ADD MSTORE PUSH1 0x11 PUSH1 0x24 DUP3 ADD MSTORE PUSH17 0x141BDCDA5D1A5BDB881BD8D8DD5C1A5959 PUSH1 0x7A SHL PUSH1 0x44 DUP3 ADD MSTORE PUSH1 0x64 ADD PUSH2 0x840 JUMP JUMPDEST PUSH1 0x40 DUP1 MLOAD PUSH1 0xE0 DUP2 ADD DUP3 MSTORE PUSH1 0x1 DUP1 DUP3 MSTORE PUSH1 0x0 PUSH1 0x20 DUP1 DUP5 ADD DUP3 DUP2 MSTORE DUP5 DUP7 ADD DUP4 DUP2 MSTORE PUSH1 0x60 DUP7 ADD DUP5 DUP2 MSTORE PUSH1 0x80 DUP8 ADD DUP6 DUP2 MSTORE TIMESTAMP PUSH1 0xA0 DUP10 ADD SWAP1 DUP2 MSTORE PUSH1 0xC0 DUP10 ADD DUP9 DUP2 MSTORE CALLER DUP9 MSTORE PUSH1 0x8 SWAP1 SWAP7 MSTORE SWAP9 DUP7 KECCAK256 SWAP8 MLOAD DUP9 SSTORE SWAP3 MLOAD SWAP6 DUP8 ADD SWAP6 SWAP1 SWAP6 SSTORE MLOAD PUSH1 0x2 DUP7 ADD SSTORE SWAP3 MLOAD PUSH1 0x3 DUP6 ADD SSTORE SWAP2 MLOAD PUSH1 0x4 DUP5 ADD SSTORE SWAP3 MLOAD PUSH1 0x5 DUP4 ADD SSTORE MLOAD PUSH1 0x6 SWAP2 DUP3 ADD DUP1 SLOAD PUSH1 0xFF NOT AND SWAP2 ISZERO ISZERO SWAP2 SWAP1 SWAP2 OR SWAP1 SSTORE DUP1 SLOAD SWAP2 PUSH2 0x18BC DUP4 PUSH2 0x27E6 JUMP JUMPDEST SWAP1 SWAP2 SSTORE POP POP PUSH1 0x4 DUP1 SLOAD PUSH1 0x0 SWAP2 DUP3 PUSH2 0x18D2 DUP4 PUSH2 0x27E6 JUMP JUMPDEST SWAP2 SWAP1 POP SSTORE SWAP1 POP PUSH1 0x40 MLOAD DUP1 PUSH2 0x120 ADD PUSH1 0x40 MSTORE DUP1 DUP3 DUP2 MSTORE PUSH1 0x20 ADD CALLER PUSH1 0x1 PUSH1 0x1 PUSH1 0xA0 SHL SUB AND DUP2 MSTORE PUSH1 0x20 ADD DUP8 DUP8 DUP1 DUP1 PUSH1 0x1F ADD PUSH1 0x20 DUP1 SWAP2 DIV MUL PUSH1 0x20 ADD PUSH1 0x40 MLOAD SWAP1 DUP2 ADD PUSH1 0x40 MSTORE DUP1 SWAP4 SWAP3 SWAP2 SWAP1 DUP2 DUP2 MSTORE PUSH1 0x20 ADD DUP4 DUP4 DUP1 DUP3 DUP5 CALLDATACOPY PUSH1 0x0 SWAP3 ADD DUP3 SWAP1 MSTORE POP SWAP4 DUP6 MSTORE POP POP POP PUSH1 0x20 DUP1 DUP4 ADD DUP9 SWAP1 MSTORE PUSH1 0x40 DUP1 DUP5 ADD DUP9 SWAP1 MSTORE PUSH1 0x60 DUP5 ADD DUP8 SWAP1 MSTORE PUSH1 0xA3 PUSH1 0x80 DUP6 ADD MSTORE PUSH1 0xA0 DUP5 ADD DUP4 SWAP1 MSTORE TIMESTAMP PUSH1 0xC0 SWAP1 SWAP5 ADD SWAP4 SWAP1 SWAP4 MSTORE DUP5 DUP3 MSTORE PUSH1 0xC DUP2 MSTORE SWAP1 DUP3 SWAP1 KECCAK256 DUP4 MLOAD DUP2 SSTORE SWAP1 DUP4 ADD MLOAD PUSH1 0x1 DUP3 ADD DUP1 SLOAD PUSH1 0x1 PUSH1 0x1 PUSH1 0xA0 SHL SUB NOT AND PUSH1 0x1 PUSH1 0x1 PUSH1 0xA0 SHL SUB SWAP1 SWAP3 AND SWAP2 SWAP1 SWAP2 OR SWAP1 SSTORE SWAP1 DUP3 ADD MLOAD PUSH1 0x2 DUP3 ADD SWAP1 PUSH2 0x19A7 SWAP1 DUP3 PUSH2 0x2880 JUMP JUMPDEST POP PUSH1 0x60 DUP3 DUP2 ADD MLOAD PUSH1 0x3 DUP1 DUP5 ADD SWAP2 SWAP1 SWAP2 SSTORE PUSH1 0x80 DUP1 DUP6 ADD MLOAD PUSH1 0x4 DUP1 DUP7 ADD SWAP2 SWAP1 SWAP2 SSTORE PUSH1 0xA0 DUP1 DUP8 ADD MLOAD PUSH1 0x5 DUP8 ADD SSTORE PUSH1 0xC0 DUP8 ADD MLOAD PUSH1 0x6 DUP8 ADD SSTORE PUSH1 0xE0 DUP8 ADD MLOAD PUSH1 0x7 DUP8 ADD SSTORE PUSH2 0x100 SWAP1 SWAP7 ADD MLOAD PUSH1 0x8 SWAP1 SWAP6 ADD SWAP5 SWAP1 SWAP5 SSTORE CALLER PUSH1 0x0 DUP2 DUP2 MSTORE PUSH1 0x9 PUSH1 0x20 SWAP1 DUP2 MSTORE PUSH1 0x40 DUP1 DUP4 KECCAK256 DUP1 SLOAD PUSH1 0x1 DUP2 DUP2 ADD DUP4 SSTORE SWAP2 DUP6 MSTORE DUP4 DUP6 KECCAK256 ADD DUP12 SWAP1 SSTORE DUP14 DUP5 MSTORE PUSH1 0x12 DUP4 MSTORE DUP2 DUP5 KECCAK256 DUP14 DUP6 MSTORE DUP4 MSTORE DUP2 DUP5 KECCAK256 DUP13 DUP6 MSTORE DUP4 MSTORE DUP2 DUP5 KECCAK256 DUP12 SWAP1 SSTORE DUP2 MLOAD SWAP10 DUP11 ADD DUP3 MSTORE PUSH2 0x1F4 DUP1 DUP12 MSTORE DUP11 DUP5 ADD SWAP1 DUP2 MSTORE DUP11 DUP4 ADD DUP6 DUP2 MSTORE SWAP9 DUP12 ADD DUP6 DUP2 MSTORE TIMESTAMP SWAP8 DUP13 ADD DUP9 DUP2 MSTORE DUP14 DUP8 MSTORE PUSH1 0xD SWAP1 SWAP6 MSTORE SWAP5 DUP4 SWAP1 KECCAK256 SWAP11 MLOAD DUP12 SSTORE MLOAD SWAP1 DUP11 ADD SSTORE SWAP6 MLOAD PUSH1 0x2 DUP10 ADD SSTORE SWAP1 MLOAD SWAP4 DUP8 ADD SWAP4 SWAP1 SWAP4 SSTORE SWAP2 MLOAD SWAP5 SWAP1 SWAP4 ADD SWAP4 SWAP1 SWAP4 SSTORE MLOAD PUSH32 0x324CB0062138D65997C86CD3012489CEB351D602F2F55C7408306E8040C79F3F SWAP2 PUSH2 0x1ABC SWAP2 SWAP1 DUP2 MSTORE PUSH1 0x20 ADD SWAP1 JUMP JUMPDEST PUSH1 0x40 MLOAD DUP1 SWAP2 SUB SWAP1 LOG2 PUSH1 0x40 DUP1 MLOAD DUP6 DUP2 MSTORE PUSH1 0x20 DUP2 ADD DUP6 SWAP1 MSTORE SWAP1 DUP2 ADD DUP4 SWAP1 MSTORE DUP2 SWAP1 CALLER SWAP1 PUSH32 0x8706AC3778F134396813C204B8B38C9C98AD59346DDD7B8C74D76BD97666289C SWAP1 PUSH1 0x60 ADD PUSH1 0x40 MLOAD DUP1 SWAP2 SUB SWAP1 LOG3 POP PUSH2 0x1B13 PUSH1 0x1 DUP1 SSTORE JUMP JUMPDEST POP POP POP POP POP JUMP JUMPDEST PUSH1 0x0 DUP1 PUSH2 0x1B29 DUP4 PUSH2 0xE10 PUSH2 0x2623 JUMP JUMPDEST PUSH1 0x0 DUP7 DUP2 MSTORE PUSH1 0xE PUSH1 0x20 SWAP1 DUP2 MSTORE PUSH1 0x40 DUP1 DUP4 KECCAK256 PUSH1 0x8 DUP5 MSTORE DUP1 DUP4 MSTORE DUP2 DUP5 KECCAK256 PUSH1 0x1 SWAP1 DUP2 ADD SLOAD PUSH1 0xB DUP7 MSTORE SWAP2 SWAP1 SWAP4 MSTORE SWAP3 KECCAK256 ADD SLOAD SWAP2 SWAP3 POP SWAP1 PUSH2 0x2710 DUP3 ISZERO PUSH2 0x1B91 JUMPI PUSH2 0x1B6E DUP4 PUSH1 0x5 PUSH2 0x2623 JUMP JUMPDEST PUSH2 0x1B79 SWAP1 PUSH1 0x64 PUSH2 0x263A JUMP JUMPDEST PUSH2 0x1B84 DUP3 PUSH1 0x64 PUSH2 0x2623 JUMP JUMPDEST PUSH2 0x1B8E SWAP2 SWAP1 PUSH2 0x27C4 JUMP JUMPDEST SWAP1 POP JUMPDEST DUP2 ISZERO PUSH2 0x1BC5 JUMPI PUSH2 0x1BA2 DUP3 PUSH1 0x19 PUSH2 0x2623 JUMP JUMPDEST PUSH2 0x1BAD SWAP1 PUSH1 0x64 PUSH2 0x263A JUMP JUMPDEST PUSH2 0x1BB8 DUP3 PUSH1 0x64 PUSH2 0x2623 JUMP JUMPDEST PUSH2 0x1BC2 SWAP2 SWAP1 PUSH2 0x27C4 JUMP JUMPDEST SWAP1 POP JUMPDEST PUSH2 0x2710 PUSH2 0x1BD2 DUP3 DUP7 PUSH2 0x2623 JUMP JUMPDEST PUSH2 0x1BDC SWAP2 SWAP1 PUSH2 0x27C4 JUMP JUMPDEST SWAP9 SWAP8 POP POP POP POP POP POP POP POP JUMP JUMPDEST PUSH1 0x0 DUP2 DUP2 MSTORE PUSH1 0xE PUSH1 0x20 SWAP1 DUP2 MSTORE PUSH1 0x40 DUP1 DUP4 KECCAK256 PUSH1 0x1 DUP1 DUP6 MSTORE SWAP3 MSTORE DUP3 KECCAK256 ADD SLOAD DUP1 DUP3 SUB PUSH2 0x1C14 JUMPI POP PUSH1 0xF SWAP3 SWAP2 POP POP JUMP JUMPDEST PUSH2 0x1C1F DUP2 PUSH1 0xA PUSH2 0x27B8 JUMP JUMPDEST PUSH2 0x1C2A DUP3 PUSH1 0xB PUSH2 0x27B8 JUMP JUMPDEST PUSH2 0xE03 DUP4 PUSH1 0x14 PUSH2 0x2623 JUMP JUMPDEST PUSH1 0x0 DUP1 PUSH2 0x1C44 DUP4 PUSH2 0x1C20 PUSH2 0x2623 JUMP JUMPDEST PUSH1 0x0 DUP7 DUP2 MSTORE PUSH1 0xE PUSH1 0x20 SWAP1 DUP2 MSTORE PUSH1 0x40 DUP1 DUP4 KECCAK256 PUSH1 0xA DUP5 MSTORE SWAP1 SWAP2 MSTORE SWAP1 KECCAK256 PUSH1 0x1 SWAP1 DUP2 ADD SLOAD SWAP2 SWAP3 POP DUP2 GT ISZERO PUSH2 0x1CAD JUMPI PUSH2 0x1C79 PUSH1 0x1 DUP3 PUSH2 0x2668 JUMP JUMPDEST PUSH2 0x1C84 SWAP1 PUSH1 0xA PUSH2 0x2623 JUMP JUMPDEST PUSH2 0x1C8F SWAP1 PUSH1 0x64 PUSH2 0x263A JUMP JUMPDEST PUSH2 0x1C9A DUP4 PUSH1 0x64 PUSH2 0x2623 JUMP JUMPDEST PUSH2 0x1CA4 SWAP2 SWAP1 PUSH2 0x27C4 JUMP JUMPDEST SWAP3 POP POP POP PUSH2 0xE17 JUMP JUMPDEST POP SWAP5 SWAP4 POP POP POP POP JUMP JUMPDEST PUSH1 0x1 PUSH1 0x1 PUSH1 0xA0 SHL SUB DUP2 AND PUSH1 0x0 SWAP1 DUP2 MSTORE PUSH1 0x9 PUSH1 0x20 SWAP1 DUP2 MSTORE PUSH1 0x40 SWAP2 DUP3 SWAP1 KECCAK256 DUP1 SLOAD DUP4 MLOAD DUP2 DUP5 MUL DUP2 ADD DUP5 ADD SWAP1 SWAP5 MSTORE DUP1 DUP5 MSTORE PUSH1 0x60 SWAP4 SWAP3 DUP4 ADD DUP3 DUP3 DUP1 ISZERO PUSH2 0x1D16 JUMPI PUSH1 0x20 MUL DUP3 ADD SWAP2 SWAP1 PUSH1 0x0 MSTORE PUSH1 0x20 PUSH1 0x0 KECCAK256 SWAP1 JUMPDEST DUP2 SLOAD DUP2 MSTORE PUSH1 0x20 ADD SWAP1 PUSH1 0x1 ADD SWAP1 DUP1 DUP4 GT PUSH2 0x1D02 JUMPI JUMPDEST POP POP POP POP POP SWAP1 POP SWAP2 SWAP1 POP JUMP JUMPDEST PUSH1 0x0 DUP1 DUP1 DUP1 DUP6 PUSH1 0x14 DUP2 GT ISZERO PUSH2 0x1D39 JUMPI PUSH2 0x1D39 PUSH2 0x23C7 JUMP JUMPDEST SUB PUSH2 0x1D8C JUMPI PUSH2 0x1D49 DUP5 PUSH1 0xA PUSH2 0x27B8 JUMP JUMPDEST PUSH2 0x1D54 DUP6 PUSH1 0xF PUSH2 0x27B8 JUMP JUMPDEST PUSH2 0x1D5F SWAP1 PUSH1 0x3C PUSH2 0x2623 JUMP JUMPDEST PUSH2 0x1D69 SWAP2 SWAP1 PUSH2 0x27C4 JUMP JUMPDEST SWAP3 POP PUSH2 0x1D76 DUP5 PUSH1 0xA PUSH2 0x27B8 JUMP JUMPDEST PUSH2 0x1D81 DUP6 PUSH1 0xF PUSH2 0x27B8 JUMP JUMPDEST PUSH2 0xEAF SWAP1 PUSH1 0xF PUSH2 0x2623 JUMP JUMPDEST PUSH1 0x1 DUP6 PUSH1 0x14 DUP2 GT ISZERO PUSH2 0x1DA0 JUMPI PUSH2 0x1DA0 PUSH2 0x23C7 JUMP JUMPDEST SUB PUSH2 0x1DF3 JUMPI PUSH2 0x1DB0 DUP5 PUSH1 0xA PUSH2 0x27B8 JUMP JUMPDEST PUSH2 0x1DBB DUP6 PUSH1 0x10 PUSH2 0x27B8 JUMP JUMPDEST PUSH2 0x1DC6 SWAP1 PUSH1 0x30 PUSH2 0x2623 JUMP JUMPDEST PUSH2 0x1DD0 SWAP2 SWAP1 PUSH2 0x27C4 JUMP JUMPDEST SWAP3 POP PUSH2 0x1DDD DUP5 PUSH1 0xA PUSH2 0x27B8 JUMP JUMPDEST PUSH2 0x1DE8 DUP6 PUSH1 0x10 PUSH2 0x27B8 JUMP JUMPDEST PUSH2 0xEAF SWAP1 PUSH1 0x18 PUSH2 0x2623 JUMP JUMPDEST PUSH1 0x2 DUP6 PUSH1 0x14 DUP2 GT ISZERO PUSH2 0x1E07 JUMPI PUSH2 0x1E07 PUSH2 0x23C7 JUMP JUMPDEST SUB PUSH2 0x1E5A JUMPI PUSH2 0x1E17 DUP5 PUSH1 0xA PUSH2 0x27B8 JUMP JUMPDEST PUSH2 0x1E22 DUP6 PUSH1 0xF PUSH2 0x27B8 JUMP JUMPDEST PUSH2 0x1E2D SWAP1 PUSH1 0xE1 PUSH2 0x2623 JUMP JUMPDEST PUSH2 0x1E37 SWAP2 SWAP1 PUSH2 0x27C4 JUMP JUMPDEST SWAP3 POP PUSH2 0x1E44 DUP5 PUSH1 0xA PUSH2 0x27B8 JUMP JUMPDEST PUSH2 0x1E4F DUP6 PUSH1 0xF PUSH2 0x27B8 JUMP JUMPDEST PUSH2 0xEAF SWAP1 PUSH1 0x4B PUSH2 0x2623 JUMP JUMPDEST PUSH1 0x3 DUP6 PUSH1 0x14 DUP2 GT ISZERO PUSH2 0x1E6E JUMPI PUSH2 0x1E6E PUSH2 0x23C7 JUMP JUMPDEST SUB PUSH2 0x1EC1 JUMPI PUSH2 0x1E7E DUP5 PUSH1 0xA PUSH2 0x27B8 JUMP JUMPDEST PUSH2 0x1E89 DUP6 PUSH1 0xF PUSH2 0x27B8 JUMP JUMPDEST PUSH2 0x1E94 SWAP1 PUSH1 0x4B PUSH2 0x2623 JUMP JUMPDEST PUSH2 0x1E9E SWAP2 SWAP1 PUSH2 0x27C4 JUMP JUMPDEST SWAP3 POP PUSH2 0x1EAB DUP5 PUSH1 0xA PUSH2 0x27B8 JUMP JUMPDEST PUSH2 0x1EB6 DUP6 PUSH1 0xF PUSH2 0x27B8 JUMP JUMPDEST PUSH2 0xEAF SWAP1 PUSH1 0x1E PUSH2 0x2623 JUMP JUMPDEST PUSH1 0x9 DUP6 PUSH1 0x14 DUP2 GT ISZERO PUSH2 0x1ED5 JUMPI PUSH2 0x1ED5 PUSH2 0x23C7 JUMP JUMPDEST SUB PUSH2 0x1F49 JUMPI PUSH1 0x2 PUSH2 0x1EE6 DUP6 DUP3 PUSH2 0x27B8 JUMP JUMPDEST PUSH2 0x1EF2 SWAP1 PUSH2 0x190 PUSH2 0x2623 JUMP JUMPDEST PUSH2 0x1EFC SWAP2 SWAP1 PUSH2 0x27C4 JUMP JUMPDEST SWAP3 POP PUSH1 0x2 PUSH2 0x1F0A DUP6 DUP3 PUSH2 0x27B8 JUMP JUMPDEST PUSH2 0x1F15 SWAP1 PUSH1 0xC8 PUSH2 0x2623 JUMP JUMPDEST PUSH2 0x1F1F SWAP2 SWAP1 PUSH2 0x27C4 JUMP JUMPDEST SWAP2 POP PUSH1 0x2 PUSH2 0x1F2D DUP6 DUP3 PUSH2 0x27B8 JUMP JUMPDEST PUSH2 0x1F38 SWAP1 PUSH1 0x64 PUSH2 0x2623 JUMP JUMPDEST PUSH2 0x1F42 SWAP2 SWAP1 PUSH2 0x27C4 JUMP JUMPDEST SWAP1 POP PUSH2 0xF2F JUMP JUMPDEST PUSH1 0xA DUP6 PUSH1 0x14 DUP2 GT ISZERO PUSH2 0x1F5D JUMPI PUSH2 0x1F5D PUSH2 0x23C7 JUMP JUMPDEST SUB PUSH2 0x1FC0 JUMPI PUSH1 0x2 PUSH2 0x1F6E DUP6 DUP3 PUSH2 0x27B8 JUMP JUMPDEST PUSH2 0x1F79 SWAP1 PUSH1 0xC8 PUSH2 0x2623 JUMP JUMPDEST PUSH2 0x1F83 SWAP2 SWAP1 PUSH2 0x27C4 JUMP JUMPDEST SWAP3 POP PUSH1 0x2 PUSH2 0x1F91 DUP6 DUP3 PUSH2 0x27B8 JUMP JUMPDEST PUSH2 0x1F9D SWAP1 PUSH2 0x190 PUSH2 0x2623 JUMP JUMPDEST PUSH2 0x1FA7 SWAP2 SWAP1 PUSH2 0x27C4 JUMP JUMPDEST SWAP2 POP PUSH1 0x2 PUSH2 0x1FB5 DUP6 DUP3 PUSH2 0x27B8 JUMP JUMPDEST PUSH2 0x1F38 SWAP1 PUSH1 0xC8 PUSH2 0x2623 JUMP JUMPDEST PUSH1 0x2 PUSH2 0x1FCC DUP6 DUP3 PUSH2 0x27B8 JUMP JUMPDEST PUSH2 0x1FD7 SWAP1 PUSH1 0x64 PUSH2 0x2623 JUMP JUMPDEST PUSH2 0x1FE1 SWAP2 SWAP1 PUSH2 0x27C4 JUMP JUMPDEST SWAP3 POP PUSH1 0x2 PUSH2 0x1FEF DUP6 DUP3 PUSH2 0x27B8 JUMP JUMPDEST PUSH2 0x1FFA SWAP1 PUSH1 0x64 PUSH2 0x2623 JUMP JUMPDEST PUSH2 0x2004 SWAP2 SWAP1 PUSH2 0x27C4 JUMP JUMPDEST SWAP2 POP PUSH1 0x0 SWAP1 POP SWAP3 POP SWAP3 POP SWAP3 JUMP JUMPDEST PUSH2 0x2019 PUSH2 0x21BA JUMP JUMPDEST PUSH1 0x1 PUSH1 0x1 PUSH1 0xA0 SHL SUB DUP2 AND PUSH2 0x2043 JUMPI PUSH1 0x40 MLOAD PUSH4 0x1E4FBDF7 PUSH1 0xE0 SHL DUP2 MSTORE PUSH1 0x0 PUSH1 0x4 DUP3 ADD MSTORE PUSH1 0x24 ADD PUSH2 0x840 JUMP JUMPDEST PUSH2 0x204C DUP2 PUSH2 0x21E7 JUMP JUMPDEST POP JUMP JUMPDEST PUSH1 0x2 PUSH1 0x1 SLOAD SUB PUSH2 0x2072 JUMPI PUSH1 0x40 MLOAD PUSH4 0x3EE5AEB5 PUSH1 0xE0 SHL DUP2 MSTORE PUSH1 0x4 ADD PUSH1 0x40 MLOAD DUP1 SWAP2 SUB SWAP1 REVERT JUMPDEST PUSH1 0x2 PUSH1 0x1 SSTORE JUMP JUMPDEST PUSH1 0x0 DUP2 DUP2 MSTORE PUSH1 0xD PUSH1 0x20 MSTORE PUSH1 0x40 DUP2 KECCAK256 PUSH1 0x4 DUP2 ADD SLOAD SWAP1 SWAP2 SWAP1 PUSH2 0x2099 SWAP1 TIMESTAMP PUSH2 0x2668 JUMP JUMPDEST SWAP1 POP DUP1 PUSH1 0x0 SUB PUSH2 0x20A8 JUMPI POP POP POP JUMP JUMPDEST PUSH1 0x0 PUSH2 0x20B3 DUP5 PUSH2 0xDB5 JUMP JUMPDEST SWAP1 POP PUSH1 0x0 PUSH2 0x20C0 DUP6 PUSH2 0x1BE8 JUMP JUMPDEST SWAP1 POP PUSH1 0x0 PUSH2 0x20CD DUP7 PUSH2 0x15DE JUMP JUMPDEST SWAP1 POP PUSH2 0xE10 PUSH2 0x20DC DUP6 DUP6 PUSH2 0x2623 JUMP JUMPDEST PUSH2 0x20E6 SWAP2 SWAP1 PUSH2 0x27C4 JUMP JUMPDEST DUP6 PUSH1 0x0 ADD PUSH1 0x0 DUP3 DUP3 SLOAD PUSH2 0x20F9 SWAP2 SWAP1 PUSH2 0x263A JUMP JUMPDEST SWAP1 SWAP2 SSTORE POP PUSH2 0xE10 SWAP1 POP PUSH2 0x210C DUP6 DUP5 PUSH2 0x2623 JUMP JUMPDEST PUSH2 0x2116 SWAP2 SWAP1 PUSH2 0x27C4 JUMP JUMPDEST DUP6 PUSH1 0x1 ADD PUSH1 0x0 DUP3 DUP3 SLOAD PUSH2 0x2129 SWAP2 SWAP1 PUSH2 0x263A JUMP JUMPDEST SWAP1 SWAP2 SSTORE POP PUSH2 0xE10 SWAP1 POP PUSH2 0x213C DUP6 DUP4 PUSH2 0x2623 JUMP JUMPDEST PUSH2 0x2146 SWAP2 SWAP1 PUSH2 0x27C4 JUMP JUMPDEST DUP6 PUSH1 0x2 ADD PUSH1 0x0 DUP3 DUP3 SLOAD PUSH2 0x2159 SWAP2 SWAP1 PUSH2 0x263A JUMP JUMPDEST SWAP1 SWAP2 SSTORE POP POP TIMESTAMP PUSH1 0x4 DUP7 ADD SSTORE DUP5 SLOAD PUSH1 0x1 DUP7 ADD SLOAD PUSH1 0x2 DUP8 ADD SLOAD PUSH1 0x40 DUP1 MLOAD SWAP4 DUP5 MSTORE PUSH1 0x20 DUP5 ADD SWAP3 SWAP1 SWAP3 MSTORE SWAP1 DUP3 ADD MSTORE DUP7 SWAP1 PUSH32 0xE7CDF9FF4E2C570B9D5045DD48CD9588959FF685EF33039C635272CB2BE00C6D SWAP1 PUSH1 0x60 ADD PUSH1 0x40 MLOAD DUP1 SWAP2 SUB SWAP1 LOG2 POP POP POP POP POP POP JUMP JUMPDEST PUSH1 0x0 SLOAD PUSH1 0x1 PUSH1 0x1 PUSH1 0xA0 SHL SUB AND CALLER EQ PUSH2 0x10D6 JUMPI PUSH1 0x40 MLOAD PUSH4 0x118CDAA7 PUSH1 0xE0 SHL DUP2 MSTORE CALLER PUSH1 0x4 DUP3 ADD MSTORE PUSH1 0x24 ADD PUSH2 0x840 JUMP JUMPDEST PUSH1 0x0 DUP1 SLOAD PUSH1 0x1 PUSH1 0x1 PUSH1 0xA0 SHL SUB DUP4 DUP2 AND PUSH1 0x1 PUSH1 0x1 PUSH1 0xA0 SHL SUB NOT DUP4 AND DUP2 OR DUP5 SSTORE PUSH1 0x40 MLOAD SWAP2 SWAP1 SWAP3 AND SWAP3 DUP4 SWAP2 PUSH32 0x8BE0079C531659141344CD1FD0A4F28419497F9722A3DAAFE3B4186F6B6457E0 SWAP2 SWAP1 LOG3 POP POP JUMP JUMPDEST PUSH1 0x0 DUP1 PUSH1 0x40 DUP4 DUP6 SUB SLT ISZERO PUSH2 0x224A JUMPI PUSH1 0x0 DUP1 REVERT JUMPDEST DUP3 CALLDATALOAD SWAP2 POP PUSH1 0x20 DUP4 ADD CALLDATALOAD PUSH1 0xF DUP2 LT PUSH2 0x2260 JUMPI PUSH1 0x0 DUP1 REVERT JUMPDEST DUP1 SWAP2 POP POP SWAP3 POP SWAP3 SWAP1 POP JUMP JUMPDEST DUP1 CALLDATALOAD PUSH1 0x1 PUSH1 0x1 PUSH1 0xA0 SHL SUB DUP2 AND DUP2 EQ PUSH2 0x2282 JUMPI PUSH1 0x0 DUP1 REVERT JUMPDEST SWAP2 SWAP1 POP JUMP JUMPDEST PUSH1 0x0 DUP1 PUSH1 0x40 DUP4 DUP6 SUB SLT ISZERO PUSH2 0x229A JUMPI PUSH1 0x0 DUP1 REVERT JUMPDEST PUSH2 0x22A3 DUP4 PUSH2 0x226B JUMP JUMPDEST SWAP5 PUSH1 0x20 SWAP4 SWAP1 SWAP4 ADD CALLDATALOAD SWAP4 POP POP POP JUMP JUMPDEST PUSH1 0x0 DUP1 PUSH1 0x0 PUSH1 0x60 DUP5 DUP7 SUB SLT ISZERO PUSH2 0x22C6 JUMPI PUSH1 0x0 DUP1 REVERT JUMPDEST POP POP DUP2 CALLDATALOAD SWAP4 PUSH1 0x20 DUP4 ADD CALLDATALOAD SWAP4 POP PUSH1 0x40 SWAP1 SWAP3 ADD CALLDATALOAD SWAP2 SWAP1 POP JUMP JUMPDEST DUP1 CALLDATALOAD PUSH1 0x15 DUP2 LT PUSH2 0x2282 JUMPI PUSH1 0x0 DUP1 REVERT JUMPDEST PUSH1 0x0 DUP1 PUSH1 0x40 DUP4 DUP6 SUB SLT ISZERO PUSH2 0x22FF JUMPI PUSH1 0x0 DUP1 REVERT JUMPDEST DUP3 CALLDATALOAD SWAP2 POP PUSH2 0x230F PUSH1 0x20 DUP5 ADD PUSH2 0x22DD JUMP JUMPDEST SWAP1 POP SWAP3 POP SWAP3 SWAP1 POP JUMP JUMPDEST PUSH1 0x0 PUSH1 0x20 DUP3 DUP5 SUB SLT ISZERO PUSH2 0x232A JUMPI PUSH1 0x0 DUP1 REVERT JUMPDEST POP CALLDATALOAD SWAP2 SWAP1 POP JUMP JUMPDEST PUSH1 0x0 PUSH2 0x120 DUP12 DUP4 MSTORE PUSH1 0x20 PUSH1 0x1 DUP1 PUSH1 0xA0 SHL SUB DUP13 AND DUP2 DUP6 ADD MSTORE DUP2 PUSH1 0x40 DUP6 ADD MSTORE DUP11 MLOAD DUP1 DUP4 DUP7 ADD MSTORE PUSH1 0x0 SWAP3 POP JUMPDEST DUP1 DUP4 LT ISZERO PUSH2 0x2379 JUMPI DUP12 DUP4 ADD DUP3 ADD MLOAD DUP6 DUP5 ADD PUSH2 0x140 ADD MSTORE SWAP2 DUP2 ADD SWAP2 PUSH2 0x235A JUMP JUMPDEST PUSH1 0x0 PUSH2 0x140 DUP3 DUP8 ADD DUP2 ADD SWAP2 SWAP1 SWAP2 MSTORE PUSH1 0x60 DUP7 ADD SWAP12 SWAP1 SWAP12 MSTORE PUSH1 0x80 DUP6 ADD SWAP10 SWAP1 SWAP10 MSTORE POP POP POP PUSH1 0xA0 DUP2 ADD SWAP5 SWAP1 SWAP5 MSTORE PUSH1 0xC0 DUP5 ADD SWAP3 SWAP1 SWAP3 MSTORE PUSH1 0xE0 DUP4 ADD MSTORE PUSH2 0x100 DUP3 ADD MSTORE PUSH1 0x1F SWAP1 SWAP2 ADD PUSH1 0x1F NOT AND ADD ADD SWAP4 SWAP3 POP POP POP JUMP JUMPDEST PUSH4 0x4E487B71 PUSH1 0xE0 SHL PUSH1 0x0 MSTORE PUSH1 0x21 PUSH1 0x4 MSTORE PUSH1 0x24 PUSH1 0x0 REVERT JUMPDEST PUSH1 0x15 DUP2 LT PUSH2 0x23ED JUMPI PUSH2 0x23ED PUSH2 0x23C7 JUMP JUMPDEST SWAP1 MSTORE JUMP JUMPDEST PUSH1 0x80 DUP2 ADD PUSH2 0x23FF DUP3 DUP8 PUSH2 0x23DD JUMP JUMPDEST DUP5 PUSH1 0x20 DUP4 ADD MSTORE DUP4 PUSH1 0x40 DUP4 ADD MSTORE DUP3 PUSH1 0x60 DUP4 ADD MSTORE SWAP6 SWAP5 POP POP POP POP POP JUMP JUMPDEST DUP1 CALLDATALOAD PUSH1 0x10 DUP2 LT PUSH2 0x2282 JUMPI PUSH1 0x0 DUP1 REVERT JUMPDEST PUSH1 0x0 DUP1 PUSH1 0x40 DUP4 DUP6 SUB SLT ISZERO PUSH2 0x243C JUMPI PUSH1 0x0 DUP1 REVERT JUMPDEST PUSH2 0x2445 DUP4 PUSH2 0x226B JUMP JUMPDEST SWAP2 POP PUSH2 0x230F PUSH1 0x20 DUP5 ADD PUSH2 0x241A JUMP JUMPDEST PUSH1 0x0 DUP1 PUSH1 0x40 DUP4 DUP6 SUB SLT ISZERO PUSH2 0x2466 JUMPI PUSH1 0x0 DUP1 REVERT JUMPDEST PUSH2 0x22A3 DUP4 PUSH2 0x241A JUMP JUMPDEST PUSH1 0x0 PUSH1 0x20 DUP3 DUP5 SUB SLT ISZERO PUSH2 0x2481 JUMPI PUSH1 0x0 DUP1 REVERT JUMPDEST PUSH2 0xE17 DUP3 PUSH2 0x226B JUMP JUMPDEST PUSH1 0x0 DUP1 PUSH1 0x40 DUP4 DUP6 SUB SLT ISZERO PUSH2 0x249D JUMPI PUSH1 0x0 DUP1 REVERT JUMPDEST DUP3 CALLDATALOAD SWAP2 POP PUSH2 0x230F PUSH1 0x20 DUP5 ADD PUSH2 0x241A JUMP JUMPDEST PUSH1 0x10 DUP2 LT PUSH2 0x23ED JUMPI PUSH2 0x23ED PUSH2 0x23C7 JUMP JUMPDEST PUSH1 0x80 DUP2 ADD PUSH2 0x23FF DUP3 DUP8 PUSH2 0x24AD JUMP JUMPDEST PUSH1 0x0 DUP1 PUSH1 0x0 DUP1 PUSH1 0x0 PUSH1 0x80 DUP7 DUP9 SUB SLT ISZERO PUSH2 0x24E3 JUMPI PUSH1 0x0 DUP1 REVERT JUMPDEST DUP6 CALLDATALOAD PUSH8 0xFFFFFFFFFFFFFFFF DUP1 DUP3 GT ISZERO PUSH2 0x24FB JUMPI PUSH1 0x0 DUP1 REVERT JUMPDEST DUP2 DUP9 ADD SWAP2 POP DUP9 PUSH1 0x1F DUP4 ADD SLT PUSH2 0x250F JUMPI PUSH1 0x0 DUP1 REVERT JUMPDEST DUP2 CALLDATALOAD DUP2 DUP2 GT ISZERO PUSH2 0x251E JUMPI PUSH1 0x0 DUP1 REVERT JUMPDEST DUP10 PUSH1 0x20 DUP3 DUP6 ADD ADD GT ISZERO PUSH2 0x2530 JUMPI PUSH1 0x0 DUP1 REVERT JUMPDEST PUSH1 0x20 SWAP3 DUP4 ADD SWAP11 SWAP1 SWAP10 POP SWAP2 DUP9 ADD CALLDATALOAD SWAP8 PUSH1 0x40 DUP2 ADD CALLDATALOAD SWAP8 POP PUSH1 0x60 ADD CALLDATALOAD SWAP6 POP SWAP1 SWAP4 POP POP POP POP JUMP JUMPDEST PUSH1 0x0 DUP1 PUSH1 0x0 PUSH1 0x60 DUP5 DUP7 SUB SLT ISZERO PUSH2 0x2568 JUMPI PUSH1 0x0 DUP1 REVERT JUMPDEST DUP4 CALLDATALOAD SWAP3 POP PUSH2 0x2578 PUSH1 0x20 DUP6 ADD PUSH2 0x22DD JUMP JUMPDEST SWAP2 POP PUSH1 0x40 DUP5 ADD CALLDATALOAD SWAP1 POP SWAP3 POP SWAP3 POP SWAP3 JUMP JUMPDEST PUSH1 0x0 DUP1 PUSH1 0x0 PUSH1 0x60 DUP5 DUP7 SUB SLT ISZERO PUSH2 0x259D JUMPI PUSH1 0x0 DUP1 REVERT JUMPDEST DUP4 CALLDATALOAD SWAP3 POP PUSH2 0x2578 PUSH1 0x20 DUP6 ADD PUSH2 0x241A JUMP JUMPDEST PUSH1 0x20 DUP1 DUP3 MSTORE DUP3 MLOAD DUP3 DUP3 ADD DUP2 SWAP1 MSTORE PUSH1 0x0 SWAP2 SWAP1 DUP5 DUP3 ADD SWAP1 PUSH1 0x40 DUP6 ADD SWAP1 DUP5 JUMPDEST DUP2 DUP2 LT ISZERO PUSH2 0x25E5 JUMPI DUP4 MLOAD DUP4 MSTORE SWAP3 DUP5 ADD SWAP3 SWAP2 DUP5 ADD SWAP2 PUSH1 0x1 ADD PUSH2 0x25C9 JUMP JUMPDEST POP SWAP1 SWAP7 SWAP6 POP POP POP POP POP POP JUMP JUMPDEST PUSH1 0x0 DUP1 PUSH1 0x40 DUP4 DUP6 SUB SLT ISZERO PUSH2 0x2604 JUMPI PUSH1 0x0 DUP1 REVERT JUMPDEST PUSH2 0x22A3 DUP4 PUSH2 0x22DD JUMP JUMPDEST PUSH4 0x4E487B71 PUSH1 0xE0 SHL PUSH1 0x0 MSTORE PUSH1 0x11 PUSH1 0x4 MSTORE PUSH1 0x24 PUSH1 0x0 REVERT JUMPDEST DUP1 DUP3 MUL DUP2 ISZERO DUP3 DUP3 DIV DUP5 EQ OR PUSH2 0x11F1 JUMPI PUSH2 0x11F1 PUSH2 0x260D JUMP JUMPDEST DUP1 DUP3 ADD DUP1 DUP3 GT ISZERO PUSH2 0x11F1 JUMPI PUSH2 0x11F1 PUSH2 0x260D JUMP JUMPDEST PUSH1 0x40 DUP2 ADD PUSH2 0x265B DUP3 DUP6 PUSH2 0x24AD JUMP JUMPDEST DUP3 PUSH1 0x20 DUP4 ADD MSTORE SWAP4 SWAP3 POP POP POP JUMP JUMPDEST DUP2 DUP2 SUB DUP2 DUP2 GT ISZERO PUSH2 0x11F1 JUMPI PUSH2 0x11F1 PUSH2 0x260D JUMP JUMPDEST PUSH1 0x60 DUP2 ADD PUSH2 0x2689 DUP3 DUP7 PUSH2 0x23DD JUMP JUMPDEST PUSH1 0x20 DUP3 ADD SWAP4 SWAP1 SWAP4 MSTORE PUSH1 0x40 ADD MSTORE SWAP2 SWAP1 POP JUMP JUMPDEST PUSH1 0x1 DUP2 DUP2 SHR SWAP1 DUP3 AND DUP1 PUSH2 0x26AE JUMPI PUSH1 0x7F DUP3 AND SWAP2 POP JUMPDEST PUSH1 0x20 DUP3 LT DUP2 SUB PUSH2 0x26CE JUMPI PUSH4 0x4E487B71 PUSH1 0xE0 SHL PUSH1 0x0 MSTORE PUSH1 0x22 PUSH1 0x4 MSTORE PUSH1 0x24 PUSH1 0x0 REVERT JUMPDEST POP SWAP2 SWAP1 POP JUMP JUMPDEST PUSH1 0x1 DUP2 DUP2 JUMPDEST DUP1 DUP6 GT ISZERO PUSH2 0x270F JUMPI DUP2 PUSH1 0x0 NOT DIV DUP3 GT ISZERO PUSH2 0x26F5 JUMPI PUSH2 0x26F5 PUSH2 0x260D JUMP JUMPDEST DUP1 DUP6 AND ISZERO PUSH2 0x2702 JUMPI SWAP2 DUP2 MUL SWAP2 JUMPDEST SWAP4 DUP5 SHR SWAP4 SWAP1 DUP1 MUL SWAP1 PUSH2 0x26D9 JUMP JUMPDEST POP SWAP3 POP SWAP3 SWAP1 POP JUMP JUMPDEST PUSH1 0x0 DUP3 PUSH2 0x2726 JUMPI POP PUSH1 0x1 PUSH2 0x11F1 JUMP JUMPDEST DUP2 PUSH2 0x2733 JUMPI POP PUSH1 0x0 PUSH2 0x11F1 JUMP JUMPDEST DUP2 PUSH1 0x1 DUP2 EQ PUSH2 0x2749 JUMPI PUSH1 0x2 DUP2 EQ PUSH2 0x2753 JUMPI PUSH2 0x276F JUMP JUMPDEST PUSH1 0x1 SWAP2 POP POP PUSH2 0x11F1 JUMP JUMPDEST PUSH1 0xFF DUP5 GT ISZERO PUSH2 0x2764 JUMPI PUSH2 0x2764 PUSH2 0x260D JUMP JUMPDEST POP POP PUSH1 0x1 DUP3 SHL PUSH2 0x11F1 JUMP JUMPDEST POP PUSH1 0x20 DUP4 LT PUSH2 0x133 DUP4 LT AND PUSH1 0x4E DUP5 LT PUSH1 0xB DUP5 LT AND OR ISZERO PUSH2 0x2792 JUMPI POP DUP2 DUP2 EXP PUSH2 0x11F1 JUMP JUMPDEST PUSH2 0x279C DUP4 DUP4 PUSH2 0x26D4 JUMP JUMPDEST DUP1 PUSH1 0x0 NOT DIV DUP3 GT ISZERO PUSH2 0x27B0 JUMPI PUSH2 0x27B0 PUSH2 0x260D JUMP JUMPDEST MUL SWAP4 SWAP3 POP POP POP JUMP JUMPDEST PUSH1 0x0 PUSH2 0xE17 DUP4 DUP4 PUSH2 0x2717 JUMP JUMPDEST PUSH1 0x0 DUP3 PUSH2 0x27E1 JUMPI PUSH4 0x4E487B71 PUSH1 0xE0 SHL PUSH1 0x0 MSTORE PUSH1 0x12 PUSH1 0x4 MSTORE PUSH1 0x24 PUSH1 0x0 REVERT JUMPDEST POP DIV SWAP1 JUMP JUMPDEST PUSH1 0x0 PUSH1 0x1 DUP3 ADD PUSH2 0x27F8 JUMPI PUSH2 0x27F8 PUSH2 0x260D JUMP JUMPDEST POP PUSH1 0x1 ADD SWAP1 JUMP JUMPDEST PUSH1 0x40 DUP2 ADD PUSH2 0x265B DUP3 DUP6 PUSH2 0x23DD JUMP JUMPDEST PUSH1 0x60 DUP2 ADD PUSH2 0x2689 DUP3 DUP7 PUSH2 0x24AD JUMP JUMPDEST PUSH4 0x4E487B71 PUSH1 0xE0 SHL PUSH1 0x0 MSTORE PUSH1 0x41 PUSH1 0x4 MSTORE PUSH1 0x24 PUSH1 0x0 REVERT JUMPDEST PUSH1 0x1F DUP3 GT ISZERO PUSH2 0x287B JUMPI PUSH1 0x0 DUP2 DUP2 MSTORE PUSH1 0x20 DUP2 KECCAK256 PUSH1 0x1F DUP6 ADD PUSH1 0x5 SHR DUP2 ADD PUSH1 0x20 DUP7 LT ISZERO PUSH2 0x2858 JUMPI POP DUP1 JUMPDEST PUSH1 0x1F DUP6 ADD PUSH1 0x5 SHR DUP3 ADD SWAP2 POP JUMPDEST DUP2 DUP2 LT ISZERO PUSH2 0x2877 JUMPI DUP3 DUP2 SSTORE PUSH1 0x1 ADD PUSH2 0x2864 JUMP JUMPDEST POP POP POP JUMPDEST POP POP POP JUMP JUMPDEST DUP2 MLOAD PUSH8 0xFFFFFFFFFFFFFFFF DUP2 GT ISZERO PUSH2 0x289A JUMPI PUSH2 0x289A PUSH2 0x281B JUMP JUMPDEST PUSH2 0x28AE DUP2 PUSH2 0x28A8 DUP5 SLOAD PUSH2 0x269A JUMP JUMPDEST DUP5 PUSH2 0x2831 JUMP JUMPDEST PUSH1 0x20 DUP1 PUSH1 0x1F DUP4 GT PUSH1 0x1 DUP2 EQ PUSH2 0x28E3 JUMPI PUSH1 0x0 DUP5 ISZERO PUSH2 0x28CB JUMPI POP DUP6 DUP4 ADD MLOAD JUMPDEST PUSH1 0x0 NOT PUSH1 0x3 DUP7 SWAP1 SHL SHR NOT AND PUSH1 0x1 DUP6 SWAP1 SHL OR DUP6 SSTORE PUSH2 0x2877 JUMP JUMPDEST PUSH1 0x0 DUP6 DUP2 MSTORE PUSH1 0x20 DUP2 KECCAK256 PUSH1 0x1F NOT DUP7 AND SWAP2 JUMPDEST DUP3 DUP2 LT ISZERO PUSH2 0x2912 JUMPI DUP9 DUP7 ADD MLOAD DUP3 SSTORE SWAP5 DUP5 ADD SWAP5 PUSH1 0x1 SWAP1 SWAP2 ADD SWAP1 DUP5 ADD PUSH2 0x28F3 JUMP JUMPDEST POP DUP6 DUP3 LT ISZERO PUSH2 0x2930 JUMPI DUP8 DUP6 ADD MLOAD PUSH1 0x0 NOT PUSH1 0x3 DUP9 SWAP1 SHL PUSH1 0xF8 AND SHR NOT AND DUP2 SSTORE JUMPDEST POP POP POP POP POP PUSH1 0x1 SWAP1 DUP2 SHL ADD SWAP1 SSTORE POP JUMP INVALID LOG2 PUSH5 0x6970667358 0x22 SLT KECCAK256 CREATE 0xC6 0x49 0xA9 0xDB OR 0xCE CALLER SELFDESTRUCT SWAP10 CREATE2 EQ 0xE SLOAD MSIZE 0xC7 LT 0xB1 0xE4 0xA6 0x4F SWAP1 PUSH14 0x5B05B229E3502B72CF64736F6C63 NUMBER STOP ADDMOD EQ STOP CALLER "},"methodIdentifiers":{"GAME_TICK_INTERVAL()":"7dae9b42","MAX_COLONIES_BASE()":"f62754ff","MAX_FACILITIES()":"2fa4f3f6","MAX_FACILITY_LEVEL()":"ec37e932","activeResearch(address)":"86d2d07e","boostsContract()":"24c733b5","colonies(uint256)":"2cfb2053","colonyFacilities(uint256,uint8)":"47ff13f6","colonyResources(uint256)":"7c00deff","colonyVessels(uint256,uint8)":"096de6be","completeFacilityUpgrade(uint256,uint8)":"6943a2d1","completeResearch()":"1379e144","fleetComposition(uint256,uint8)":"494d988e","fleets(uint256)":"b8b4b173","getColonyResources(uint256)":"74840f7b","getCrystalProduction(uint256)":"b522bef4","getFacilityBuildTime(uint256,uint8,uint256)":"b2e1cf4e","getFacilityCost(uint8,uint256)":"d676b9ed","getFacilityLevel(uint256,uint8)":"92fdc366","getOreProduction(uint256)":"3de4a70d","getPlasmaProduction(uint256)":"8547e80b","getPlayerColonies(address)":"c1dfc73c","getResearchCost(uint8,uint256)":"4f11f493","getResearchLevel(address,uint8)":"7a50225a","getResearchTime(uint256,uint8,uint256)":"bd7e3656","lastGameTick()":"7137babd","nextColonyId()":"d849d4ec","nextFleetId()":"80198ce1","owner()":"8da5cb5b","playerColonies(address,uint256)":"0af3ffe0","playerResearch(address,uint8)":"4c7d3fb9","players(address)":"e2eb41ff","register(string,uint256,uint256,uint256)":"a16c1f15","renounceOwnership()":"715018a6","setBoostsContract(address)":"6d11d093","startResearch(uint256,uint8)":"7f314b93","totalPlayers()":"f60cdcf6","transferOwnership(address)":"f2fde38b","universeMap(uint256,uint256,uint256)":"127ba5a2","upgradeFacility(uint256,uint8)":"293a96f0","voidToken()":"f80b3dd0"}}}}}