{"contracts/VoidBoosts.sol":{"VoidBoosts":{"abi":[{"inputs":[{"internalType":"address","name":"_voidToken","type":"address"},{"internalType":"address","name":"_treasury","type":"address"},{"internalType":"address","name":"_stakingPool","type":"address"}],"stateMutability":"nonpayable","type":"constructor"},{"inputs":[{"internalType":"address","name":"owner","type":"address"}],"name":"OwnableInvalidOwner","type":"error"},{"inputs":[{"internalType":"address","name":"account","type":"address"}],"name":"OwnableUnauthorizedAccount","type":"error"},{"inputs":[],"name":"ReentrancyGuardReentrantCall","type":"error"},{"inputs":[{"internalType":"address","name":"token","type":"address"}],"name":"SafeERC20FailedOperation","type":"error"},{"anonymous":false,"inputs":[{"indexed":true,"internalType":"address","name":"player","type":"address"},{"indexed":false,"internalType":"enum VoidBoosts.BoostType","name":"boostType","type":"uint8"},{"indexed":false,"internalType":"uint256","name":"expiresAt","type":"uint256"}],"name":"BoostActivated","type":"event"},{"anonymous":false,"inputs":[{"indexed":true,"internalType":"address","name":"player","type":"address"},{"indexed":false,"internalType":"uint256","name":"totalSlots","type":"uint256"}],"name":"ColonyPermitPurchased","type":"event"},{"anonymous":false,"inputs":[{"indexed":true,"internalType":"address","name":"player","type":"address"},{"indexed":false,"internalType":"uint256","name":"fleetId","type":"uint256"}],"name":"EmergencyRecallUsed","type":"event"},{"anonymous":false,"inputs":[{"indexed":true,"internalType":"address","name":"player","type":"address"},{"indexed":false,"internalType":"uint256","name":"colonyId","type":"uint256"},{"indexed":false,"internalType":"uint256","name":"facilityId","type":"uint256"}],"name":"InstantBuildUsed","type":"event"},{"anonymous":false,"inputs":[{"indexed":true,"internalType":"address","name":"previousOwner","type":"address"},{"indexed":true,"internalType":"address","name":"newOwner","type":"address"}],"name":"OwnershipTransferred","type":"event"},{"anonymous":false,"inputs":[{"indexed":false,"internalType":"uint256","name":"burned","type":"uint256"},{"indexed":false,"internalType":"uint256","name":"toTreasury","type":"uint256"},{"indexed":false,"internalType":"uint256","name":"toStaking","type":"uint256"}],"name":"TokensDistributed","type":"event"},{"anonymous":false,"inputs":[{"indexed":true,"internalType":"address","name":"player","type":"address"},{"indexed":false,"internalType":"uint256","name":"expiresAt","type":"uint256"}],"name":"VoidShieldActivated","type":"event"},{"inputs":[],"name":"ACCELERATOR_25_COST","outputs":[{"internalType":"uint256","name":"","type":"uint256"}],"stateMutability":"view","type":"function"},{"inputs":[],"name":"ACCELERATOR_50_COST","outputs":[{"internalType":"uint256","name":"","type":"uint256"}],"stateMutability":"view","type":"function"},{"inputs":[],"name":"ACCELERATOR_DURATION","outputs":[{"internalType":"uint256","name":"","type":"uint256"}],"stateMutability":"view","type":"function"},{"inputs":[],"name":"BURN_PERCENTAGE","outputs":[{"internalType":"uint256","name":"","type":"uint256"}],"stateMutability":"view","type":"function"},{"inputs":[],"name":"COLONY_PERMIT_COST","outputs":[{"internalType":"uint256","name":"","type":"uint256"}],"stateMutability":"view","type":"function"},{"inputs":[],"name":"EMERGENCY_RECALL_COST","outputs":[{"internalType":"uint256","name":"","type":"uint256"}],"stateMutability":"view","type":"function"},{"inputs":[],"name":"INSTANT_BUILD_COST","outputs":[{"internalType":"uint256","name":"","type":"uint256"}],"stateMutability":"view","type":"function"},{"inputs":[],"name":"STAKING_PERCENTAGE","outputs":[{"internalType":"uint256","name":"","type":"uint256"}],"stateMutability":"view","type":"function"},{"inputs":[],"name":"STEALTH_MODE_COST","outputs":[{"internalType":"uint256","name":"","type":"uint256"}],"stateMutability":"view","type":"function"},{"inputs":[],"name":"STEALTH_MODE_DURATION","outputs":[{"internalType":"uint256","name":"","type":"uint256"}],"stateMutability":"view","type":"function"},{"inputs":[],"name":"TREASURY_PERCENTAGE","outputs":[{"internalType":"uint256","name":"","type":"uint256"}],"stateMutability":"view","type":"function"},{"inputs":[],"name":"VOID_SHIELD_COST","outputs":[{"internalType":"uint256","name":"","type":"uint256"}],"stateMutability":"view","type":"function"},{"inputs":[],"name":"VOID_SHIELD_DURATION","outputs":[{"internalType":"uint256","name":"","type":"uint256"}],"stateMutability":"view","type":"function"},{"inputs":[],"name":"YIELD_AMPLIFIER_COST","outputs":[{"internalType":"uint256","name":"","type":"uint256"}],"stateMutability":"view","type":"function"},{"inputs":[],"name":"YIELD_AMPLIFIER_DURATION","outputs":[{"internalType":"uint256","name":"","type":"uint256"}],"stateMutability":"view","type":"function"},{"inputs":[{"internalType":"uint256","name":"level","type":"uint256"}],"name":"activateAccelerator","outputs":[],"stateMutability":"nonpayable","type":"function"},{"inputs":[],"name":"activateStealthMode","outputs":[],"stateMutability":"nonpayable","type":"function"},{"inputs":[],"name":"activateVoidShield","outputs":[],"stateMutability":"nonpayable","type":"function"},{"inputs":[],"name":"activateYieldAmplifier","outputs":[],"stateMutability":"nonpayable","type":"function"},{"inputs":[],"name":"gameContract","outputs":[{"internalType":"address","name":"","type":"address"}],"stateMutability":"view","type":"function"},{"inputs":[{"internalType":"address","name":"player","type":"address"}],"name":"getAcceleratorMultiplier","outputs":[{"internalType":"uint256","name":"","type":"uint256"}],"stateMutability":"view","type":"function"},{"inputs":[{"internalType":"address","name":"player","type":"address"}],"name":"getExtraColonySlots","outputs":[{"internalType":"uint256","name":"","type":"uint256"}],"stateMutability":"view","type":"function"},{"inputs":[{"internalType":"address","name":"player","type":"address"}],"name":"getYieldMultiplier","outputs":[{"internalType":"uint256","name":"","type":"uint256"}],"stateMutability":"view","type":"function"},{"inputs":[{"internalType":"address","name":"","type":"address"}],"name":"hasVoidShield","outputs":[{"internalType":"bool","name":"","type":"bool"}],"stateMutability":"view","type":"function"},{"inputs":[{"internalType":"address","name":"player","type":"address"}],"name":"isShieldActive","outputs":[{"internalType":"bool","name":"","type":"bool"}],"stateMutability":"view","type":"function"},{"inputs":[{"internalType":"address","name":"player","type":"address"}],"name":"isStealthActive","outputs":[{"internalType":"bool","name":"","type":"bool"}],"stateMutability":"view","type":"function"},{"inputs":[],"name":"owner","outputs":[{"internalType":"address","name":"","type":"address"}],"stateMutability":"view","type":"function"},{"inputs":[],"name":"purchaseColonyPermit","outputs":[],"stateMutability":"nonpayable","type":"function"},{"inputs":[],"name":"renounceOwnership","outputs":[],"stateMutability":"nonpayable","type":"function"},{"inputs":[{"internalType":"address","name":"_gameContract","type":"address"}],"name":"setGameContract","outputs":[],"stateMutability":"nonpayable","type":"function"},{"inputs":[{"internalType":"address","name":"_stakingPool","type":"address"}],"name":"setStakingPool","outputs":[],"stateMutability":"nonpayable","type":"function"},{"inputs":[{"internalType":"address","name":"_treasury","type":"address"}],"name":"setTreasury","outputs":[],"stateMutability":"nonpayable","type":"function"},{"inputs":[],"name":"stakingPool","outputs":[{"internalType":"address","name":"","type":"address"}],"stateMutability":"view","type":"function"},{"inputs":[],"name":"totalBurned","outputs":[{"internalType":"uint256","name":"","type":"uint256"}],"stateMutability":"view","type":"function"},{"inputs":[],"name":"totalToStaking","outputs":[{"internalType":"uint256","name":"","type":"uint256"}],"stateMutability":"view","type":"function"},{"inputs":[],"name":"totalToTreasury","outputs":[{"internalType":"uint256","name":"","type":"uint256"}],"stateMutability":"view","type":"function"},{"inputs":[{"internalType":"address","name":"newOwner","type":"address"}],"name":"transferOwnership","outputs":[],"stateMutability":"nonpayable","type":"function"},{"inputs":[],"name":"treasury","outputs":[{"internalType":"address","name":"","type":"address"}],"stateMutability":"view","type":"function"},{"inputs":[{"internalType":"uint256","name":"fleetId","type":"uint256"}],"name":"useEmergencyRecall","outputs":[],"stateMutability":"nonpayable","type":"function"},{"inputs":[{"internalType":"uint256","name":"colonyId","type":"uint256"},{"internalType":"uint256","name":"facilityId","type":"uint256"}],"name":"useInstantBuild","outputs":[],"stateMutability":"nonpayable","type":"function"},{"inputs":[{"internalType":"address","name":"","type":"address"}],"name":"voidShieldExpiry","outputs":[{"internalType":"uint256","name":"","type":"uint256"}],"stateMutability":"view","type":"function"},{"inputs":[],"name":"voidToken","outputs":[{"internalType":"contract IERC20","name":"","type":"address"}],"stateMutability":"view","type":"function"}],"evm":{"bytecode":{"linkReferences":{},"object":"60806040523480156200001157600080fd5b50604051620013463803806200134683398101604081905262000034916200011b565b33806200005b57604051631e4fbdf760e01b81526000600482015260240160405180910390fd5b6200006681620000ae565b5060018055600280546001600160a01b039485166001600160a01b03199182161790915560038054938516938216939093179092556004805491909316911617905562000165565b600080546001600160a01b038381166001600160a01b0319831681178455604051919092169283917f8be0079c531659141344cd1fd0a4f28419497f9722a3daafe3b4186f6b6457e09190a35050565b80516001600160a01b03811681146200011657600080fd5b919050565b6000806000606084860312156200013157600080fd5b6200013c84620000fe565b92506200014c60208501620000fe565b91506200015c60408501620000fe565b90509250925092565b6111d180620001756000396000f3fe608060405234801561001057600080fd5b506004361061025e5760003560e01c8063715018a611610146578063c1b57edb116100c3578063eacf975111610087578063eacf9751146104ff578063ec9a1d51146102dd578063f0f4426014610507578063f2fde38b1461051a578063f3f8e2aa1461052d578063f80b3dd01461054057600080fd5b8063c1b57edb146104c7578063c3df9ba3146104d0578063d37b2ff9146102dd578063d3f33009146104e3578063d89135cd146104f657600080fd5b8063823d69371161010a578063823d6937146104865780638da5cb5b146104965780639649b910146104a7578063a9716f33146104af578063ba01be59146104b757600080fd5b8063715018a61461043b57806372b9b71d1461044357806374ea739e146104535780637920bb39146104635780637f600bf81461047357600080fd5b806342d4fa5c116101df578063596dfe74116101a3578063596dfe74146103ed5780635aaa7dff146103f557806360a441611461040557806361d027b314610415578063634f949314610428578063700dab7f1461043157600080fd5b806342d4fa5c1461038f57806346355d6c146103af5780634cb8efd4146103c2578063533f90a1146103d557806357d1cb6e146103dd57600080fd5b80631dd0f31e116102265780631dd0f31e1461032057806322ad3ea11461034c5780632aab971f146103565780633028f63a14610369578063405ebd4d1461037c57600080fd5b80630791f8b3146102635780630c56ae3b146102b2578063167280fa146102dd578063173b31d8146102f557806318265e08146102fd575b600080fd5b61029d610271366004611060565b6001600160a01b0316600090815260066020908152604080832060048452909152902060020154421090565b60405190151581526020015b60405180910390f35b6004546102c5906001600160a01b031681565b6040516001600160a01b0390911681526020016102a9565b6102e76201518081565b6040519081526020016102a9565b6102e7601e81565b61029d61030b366004611060565b60076020526000908152604090205460ff1681565b6102e761032e366004611060565b6001600160a01b031660009081526006602052604090206001015490565b610354610553565b005b610354610364366004611090565b6105e3565b610354610377366004611060565b610662565b61035461038a366004611060565b61068c565b6102e761039d366004611060565b60086020526000908152604090205481565b6102e76103bd366004611060565b6106b6565b6103546103d0366004611090565b61071e565b6103546108e2565b6102e7686c6b935b8bbd40000081565b6103546109c9565b6102e7681b1ae4d6e2ef50000081565b6102e76802b5e3af16b188000081565b6003546102c5906001600160a01b031681565b6102e7600b5481565b6102e76202a30081565b610354610aae565b6102e7680ad78ebc5ac620000081565b6102e7680821ab0d441498000081565b6102e7680d8d726b7177a8000081565b6102e7610481366004611060565b610ac0565b6102e7683635c9adc5dea0000081565b6000546001600160a01b03166102c5565b6102e7603281565b6102e7601481565b6102e768056bc75e2d6310000081565b6102e7600a5481565b61029d6104de366004611060565b610b04565b6005546102c5906001600160a01b031681565b6102e760095481565b610354610b49565b610354610515366004611060565b610c2f565b610354610528366004611060565b610c59565b61035461053b3660046110a9565b610c94565b6002546102c5906001600160a01b031681565b61055b610d1a565b61056e33686c6b935b8bbd400000610d44565b33600090815260066020526040812060010180549161058c836110f7565b9091555050336000818152600660209081526040918290206001015491519182527fa97775681db71bd14c6bbad8726c5ed1475c8b6e9e1afabe27c001d217dddd7c910160405180910390a26105e160018055565b565b6105eb610d1a565b6105fe336802b5e3af16b1880000610d44565b33600090815260066020526040812060030180549161061c836110f7565b909155505060405181815233907f913a79b17eea7f58a029c56d7f76a12f0c4d875d08e132bdf36dfaf2074df6349060200160405180910390a261065f60018055565b50565b61066a610ecf565b600480546001600160a01b0319166001600160a01b0392909216919091179055565b610694610ecf565b600580546001600160a01b0319166001600160a01b0392909216919091179055565b6001600160a01b0381166000908152600660209081526040808320600184529091528082206002808452918320918201549091904210156106fc57600301549392505050565b428260020154111561071357506003015492915050565b506127109392505050565b610726610d1a565b80601914806107355750806032145b6107765760405162461bcd60e51b815260206004820152600d60248201526c125b9d985b1a59081b195d995b609a1b60448201526064015b60405180910390fd5b60008160191461078757600261078a565b60015b90506000826019146107a557680d8d726b7177a800006107b0565b68056bc75e2d631000005b90506107bc3382610d44565b60006107cb6201518042611110565b905060405180608001604052808460048111156107ea576107ea6110cb565b81526020014281526020018281526020018560191461080b57613a9861080f565b6130d45b61ffff16905233600090815260066020526040812090856004811115610837576108376110cb565b6004811115610848576108486110cb565b8152602081019190915260400160002081518154829060ff19166001836004811115610876576108766110cb565b02179055506020820151600182015560408083015160028301556060909201516003909101555133907fc46f4259f073f7993c078b946b1b8e16f428b1b02940277d10d1e6fc4ad46ebe906108ce9086908590611123565b60405180910390a250505061065f60018055565b6108ea610d1a565b6108f333610b04565b156109385760405162461bcd60e51b8152602060048201526015602482015274536869656c6420616c72656164792061637469766560581b604482015260640161076d565b61094b33683635c9adc5dea00000610d44565b600061095a6202a30042611110565b336000818152600760209081526040808320805460ff1916600117905560089091529081902083905551919250907faf1157be12f167926726e9e6179192c28a7efe7892b3d367c093d5dbcb47fe01906109b79084815260200190565b60405180910390a2506105e160018055565b6109d1610d1a565b6109e433680821ab0d4414980000610d44565b60006109f36201518042611110565b6040805160808101825260048082524260208084019190915282840185905260006060840181905233815260068252848120838252909152929092208151815494955091939092839160ff1916906001908490811115610a5557610a556110cb565b02179055506020820151600182015560408083015160028301556060909201516003909101555133907fc46f4259f073f7993c078b946b1b8e16f428b1b02940277d10d1e6fc4ad46ebe906109b7906004908590611123565b610ab6610ecf565b6105e16000610efc565b6001600160a01b03811660009081526006602090815260408083206003845290915281206002810154421015610afa576003015492915050565b5061271092915050565b6001600160a01b03811660009081526007602052604081205460ff168015610b4357506001600160a01b03821660009081526008602052604090205442105b92915050565b610b51610d1a565b610b6433680ad78ebc5ac6200000610d44565b6000610b736201518042611110565b60408051608081018252600380825242602080840191909152828401859052613a9860608401523360009081526006825284812092815291905291909120815181549394509192909190829060ff19166001836004811115610bd757610bd76110cb565b0217905550602082015160018201556040808301516002830155606090920151600391820155905133917fc46f4259f073f7993c078b946b1b8e16f428b1b02940277d10d1e6fc4ad46ebe916109b791908590611123565b610c37610ecf565b600380546001600160a01b0319166001600160a01b0392909216919091179055565b610c61610ecf565b6001600160a01b038116610c8b57604051631e4fbdf760e01b81526000600482015260240161076d565b61065f81610efc565b610c9c610d1a565b610caf33681b1ae4d6e2ef500000610d44565b336000908152600660205260408120600201805491610ccd836110f7565b9091555050604080518381526020810183905233917f2b6cf4c9f1fb25eec2be894e99d6aad17c42bf7e515d389b0426766030b9dbeb910160405180910390a2610d1660018055565b5050565b600260015403610d3d57604051633ee5aeb560e01b815260040160405180910390fd5b6002600155565b600254610d5c906001600160a01b0316833084610f4c565b60006064610d6b60328461114f565b610d759190611166565b905060006064610d86601e8561114f565b610d909190611166565b9050600081610d9f8486611188565b610da99190611188565b600254604051630852cd8d60e31b8152600481018690529192506001600160a01b0316906342966c6890602401600060405180830381600087803b158015610df057600080fd5b505af1158015610e04573d6000803e3d6000fd5b505050508260096000828254610e1a9190611110565b9091555050600354600254610e3c916001600160a01b03918216911684610fb9565b81600a6000828254610e4e9190611110565b9091555050600454600254610e70916001600160a01b03918216911683610fb9565b80600b6000828254610e829190611110565b909155505060408051848152602081018490529081018290527f8739ea584738c9982d7ea914ddf018402c622087a3ac9c4eddfdaafdefab13479060600160405180910390a15050505050565b6000546001600160a01b031633146105e15760405163118cdaa760e01b815233600482015260240161076d565b600080546001600160a01b038381166001600160a01b0319831681178455604051919092169283917f8be0079c531659141344cd1fd0a4f28419497f9722a3daafe3b4186f6b6457e09190a35050565b6040516001600160a01b038481166024830152838116604483015260648201839052610fb39186918216906323b872dd906084015b604051602081830303815290604052915060e01b6020820180516001600160e01b038381831617835250505050610fef565b50505050565b6040516001600160a01b03838116602483015260448201839052610fea91859182169063a9059cbb90606401610f81565b505050565b600080602060008451602086016000885af180611012576040513d6000823e3d81fd5b50506000513d9150811561102a578060011415611037565b6001600160a01b0384163b155b15610fb357604051635274afe760e01b81526001600160a01b038516600482015260240161076d565b60006020828403121561107257600080fd5b81356001600160a01b038116811461108957600080fd5b9392505050565b6000602082840312156110a257600080fd5b5035919050565b600080604083850312156110bc57600080fd5b50508035926020909101359150565b634e487b7160e01b600052602160045260246000fd5b634e487b7160e01b600052601160045260246000fd5b600060018201611109576111096110e1565b5060010190565b80820180821115610b4357610b436110e1565b604081016005841061114557634e487b7160e01b600052602160045260246000fd5b9281526020015290565b8082028115828204841417610b4357610b436110e1565b60008261118357634e487b7160e01b600052601260045260246000fd5b500490565b81810381811115610b4357610b436110e156fea2646970667358221220a1e57879ea73e374c39944af48dfb6abbd60acd7acdc15447e0d7c8974e8323364736f6c63430008140033","opcodes":"PUSH1 0x80 PUSH1 0x40 MSTORE CALLVALUE DUP1 ISZERO PUSH3 0x11 JUMPI PUSH1 0x0 DUP1 REVERT JUMPDEST POP PUSH1 0x40 MLOAD PUSH3 0x1346 CODESIZE SUB DUP1 PUSH3 0x1346 DUP4 CODECOPY DUP2 ADD PUSH1 0x40 DUP2 SWAP1 MSTORE PUSH3 0x34 SWAP2 PUSH3 0x11B JUMP JUMPDEST CALLER DUP1 PUSH3 0x5B JUMPI PUSH1 0x40 MLOAD PUSH4 0x1E4FBDF7 PUSH1 0xE0 SHL DUP2 MSTORE PUSH1 0x0 PUSH1 0x4 DUP3 ADD MSTORE PUSH1 0x24 ADD PUSH1 0x40 MLOAD DUP1 SWAP2 SUB SWAP1 REVERT JUMPDEST PUSH3 0x66 DUP2 PUSH3 0xAE JUMP JUMPDEST POP PUSH1 0x1 DUP1 SSTORE PUSH1 0x2 DUP1 SLOAD PUSH1 0x1 PUSH1 0x1 PUSH1 0xA0 SHL SUB SWAP5 DUP6 AND PUSH1 0x1 PUSH1 0x1 PUSH1 0xA0 SHL SUB NOT SWAP2 DUP3 AND OR SWAP1 SWAP2 SSTORE PUSH1 0x3 DUP1 SLOAD SWAP4 DUP6 AND SWAP4 DUP3 AND SWAP4 SWAP1 SWAP4 OR SWAP1 SWAP3 SSTORE PUSH1 0x4 DUP1 SLOAD SWAP2 SWAP1 SWAP4 AND SWAP2 AND OR SWAP1 SSTORE PUSH3 0x165 JUMP JUMPDEST PUSH1 0x0 DUP1 SLOAD PUSH1 0x1 PUSH1 0x1 PUSH1 0xA0 SHL SUB DUP4 DUP2 AND PUSH1 0x1 PUSH1 0x1 PUSH1 0xA0 SHL SUB NOT DUP4 AND DUP2 OR DUP5 SSTORE PUSH1 0x40 MLOAD SWAP2 SWAP1 SWAP3 AND SWAP3 DUP4 SWAP2 PUSH32 0x8BE0079C531659141344CD1FD0A4F28419497F9722A3DAAFE3B4186F6B6457E0 SWAP2 SWAP1 LOG3 POP POP JUMP JUMPDEST DUP1 MLOAD PUSH1 0x1 PUSH1 0x1 PUSH1 0xA0 SHL SUB DUP2 AND DUP2 EQ PUSH3 0x116 JUMPI PUSH1 0x0 DUP1 REVERT JUMPDEST SWAP2 SWAP1 POP JUMP JUMPDEST PUSH1 0x0 DUP1 PUSH1 0x0 PUSH1 0x60 DUP5 DUP7 SUB SLT ISZERO PUSH3 0x131 JUMPI PUSH1 0x0 DUP1 REVERT JUMPDEST PUSH3 0x13C DUP5 PUSH3 0xFE JUMP JUMPDEST SWAP3 POP PUSH3 0x14C PUSH1 0x20 DUP6 ADD PUSH3 0xFE JUMP JUMPDEST SWAP2 POP PUSH3 0x15C PUSH1 0x40 DUP6 ADD PUSH3 0xFE JUMP JUMPDEST SWAP1 POP SWAP3 POP SWAP3 POP SWAP3 JUMP JUMPDEST PUSH2 0x11D1 DUP1 PUSH3 0x175 PUSH1 0x0 CODECOPY PUSH1 0x0 RETURN INVALID PUSH1 0x80 PUSH1 0x40 MSTORE CALLVALUE DUP1 ISZERO PUSH2 0x10 JUMPI PUSH1 0x0 DUP1 REVERT JUMPDEST POP PUSH1 0x4 CALLDATASIZE LT PUSH2 0x25E JUMPI PUSH1 0x0 CALLDATALOAD PUSH1 0xE0 SHR DUP1 PUSH4 0x715018A6 GT PUSH2 0x146 JUMPI DUP1 PUSH4 0xC1B57EDB GT PUSH2 0xC3 JUMPI DUP1 PUSH4 0xEACF9751 GT PUSH2 0x87 JUMPI DUP1 PUSH4 0xEACF9751 EQ PUSH2 0x4FF JUMPI DUP1 PUSH4 0xEC9A1D51 EQ PUSH2 0x2DD JUMPI DUP1 PUSH4 0xF0F44260 EQ PUSH2 0x507 JUMPI DUP1 PUSH4 0xF2FDE38B EQ PUSH2 0x51A JUMPI DUP1 PUSH4 0xF3F8E2AA EQ PUSH2 0x52D JUMPI DUP1 PUSH4 0xF80B3DD0 EQ PUSH2 0x540 JUMPI PUSH1 0x0 DUP1 REVERT JUMPDEST DUP1 PUSH4 0xC1B57EDB EQ PUSH2 0x4C7 JUMPI DUP1 PUSH4 0xC3DF9BA3 EQ PUSH2 0x4D0 JUMPI DUP1 PUSH4 0xD37B2FF9 EQ PUSH2 0x2DD JUMPI DUP1 PUSH4 0xD3F33009 EQ PUSH2 0x4E3 JUMPI DUP1 PUSH4 0xD89135CD EQ PUSH2 0x4F6 JUMPI PUSH1 0x0 DUP1 REVERT JUMPDEST DUP1 PUSH4 0x823D6937 GT PUSH2 0x10A JUMPI DUP1 PUSH4 0x823D6937 EQ PUSH2 0x486 JUMPI DUP1 PUSH4 0x8DA5CB5B EQ PUSH2 0x496 JUMPI DUP1 PUSH4 0x9649B910 EQ PUSH2 0x4A7 JUMPI DUP1 PUSH4 0xA9716F33 EQ PUSH2 0x4AF JUMPI DUP1 PUSH4 0xBA01BE59 EQ PUSH2 0x4B7 JUMPI PUSH1 0x0 DUP1 REVERT JUMPDEST DUP1 PUSH4 0x715018A6 EQ PUSH2 0x43B JUMPI DUP1 PUSH4 0x72B9B71D EQ PUSH2 0x443 JUMPI DUP1 PUSH4 0x74EA739E EQ PUSH2 0x453 JUMPI DUP1 PUSH4 0x7920BB39 EQ PUSH2 0x463 JUMPI DUP1 PUSH4 0x7F600BF8 EQ PUSH2 0x473 JUMPI PUSH1 0x0 DUP1 REVERT JUMPDEST DUP1 PUSH4 0x42D4FA5C GT PUSH2 0x1DF JUMPI DUP1 PUSH4 0x596DFE74 GT PUSH2 0x1A3 JUMPI DUP1 PUSH4 0x596DFE74 EQ PUSH2 0x3ED JUMPI DUP1 PUSH4 0x5AAA7DFF EQ PUSH2 0x3F5 JUMPI DUP1 PUSH4 0x60A44161 EQ PUSH2 0x405 JUMPI DUP1 PUSH4 0x61D027B3 EQ PUSH2 0x415 JUMPI DUP1 PUSH4 0x634F9493 EQ PUSH2 0x428 JUMPI DUP1 PUSH4 0x700DAB7F EQ PUSH2 0x431 JUMPI PUSH1 0x0 DUP1 REVERT JUMPDEST DUP1 PUSH4 0x42D4FA5C EQ PUSH2 0x38F JUMPI DUP1 PUSH4 0x46355D6C EQ PUSH2 0x3AF JUMPI DUP1 PUSH4 0x4CB8EFD4 EQ PUSH2 0x3C2 JUMPI DUP1 PUSH4 0x533F90A1 EQ PUSH2 0x3D5 JUMPI DUP1 PUSH4 0x57D1CB6E EQ PUSH2 0x3DD JUMPI PUSH1 0x0 DUP1 REVERT JUMPDEST DUP1 PUSH4 0x1DD0F31E GT PUSH2 0x226 JUMPI DUP1 PUSH4 0x1DD0F31E EQ PUSH2 0x320 JUMPI DUP1 PUSH4 0x22AD3EA1 EQ PUSH2 0x34C JUMPI DUP1 PUSH4 0x2AAB971F EQ PUSH2 0x356 JUMPI DUP1 PUSH4 0x3028F63A EQ PUSH2 0x369 JUMPI DUP1 PUSH4 0x405EBD4D EQ PUSH2 0x37C JUMPI PUSH1 0x0 DUP1 REVERT JUMPDEST DUP1 PUSH4 0x791F8B3 EQ PUSH2 0x263 JUMPI DUP1 PUSH4 0xC56AE3B EQ PUSH2 0x2B2 JUMPI DUP1 PUSH4 0x167280FA EQ PUSH2 0x2DD JUMPI DUP1 PUSH4 0x173B31D8 EQ PUSH2 0x2F5 JUMPI DUP1 PUSH4 0x18265E08 EQ PUSH2 0x2FD JUMPI JUMPDEST PUSH1 0x0 DUP1 REVERT JUMPDEST PUSH2 0x29D PUSH2 0x271 CALLDATASIZE PUSH1 0x4 PUSH2 0x1060 JUMP JUMPDEST PUSH1 0x1 PUSH1 0x1 PUSH1 0xA0 SHL SUB AND PUSH1 0x0 SWAP1 DUP2 MSTORE PUSH1 0x6 PUSH1 0x20 SWAP1 DUP2 MSTORE PUSH1 0x40 DUP1 DUP4 KECCAK256 PUSH1 0x4 DUP5 MSTORE SWAP1 SWAP2 MSTORE SWAP1 KECCAK256 PUSH1 0x2 ADD SLOAD TIMESTAMP LT SWAP1 JUMP JUMPDEST PUSH1 0x40 MLOAD SWAP1 ISZERO ISZERO DUP2 MSTORE PUSH1 0x20 ADD JUMPDEST PUSH1 0x40 MLOAD DUP1 SWAP2 SUB SWAP1 RETURN JUMPDEST PUSH1 0x4 SLOAD PUSH2 0x2C5 SWAP1 PUSH1 0x1 PUSH1 0x1 PUSH1 0xA0 SHL SUB AND DUP2 JUMP JUMPDEST PUSH1 0x40 MLOAD PUSH1 0x1 PUSH1 0x1 PUSH1 0xA0 SHL SUB SWAP1 SWAP2 AND DUP2 MSTORE PUSH1 0x20 ADD PUSH2 0x2A9 JUMP JUMPDEST PUSH2 0x2E7 PUSH3 0x15180 DUP2 JUMP JUMPDEST PUSH1 0x40 MLOAD SWAP1 DUP2 MSTORE PUSH1 0x20 ADD PUSH2 0x2A9 JUMP JUMPDEST PUSH2 0x2E7 PUSH1 0x1E DUP2 JUMP JUMPDEST PUSH2 0x29D PUSH2 0x30B CALLDATASIZE PUSH1 0x4 PUSH2 0x1060 JUMP JUMPDEST PUSH1 0x7 PUSH1 0x20 MSTORE PUSH1 0x0 SWAP1 DUP2 MSTORE PUSH1 0x40 SWAP1 KECCAK256 SLOAD PUSH1 0xFF AND DUP2 JUMP JUMPDEST PUSH2 0x2E7 PUSH2 0x32E CALLDATASIZE PUSH1 0x4 PUSH2 0x1060 JUMP JUMPDEST PUSH1 0x1 PUSH1 0x1 PUSH1 0xA0 SHL SUB AND PUSH1 0x0 SWAP1 DUP2 MSTORE PUSH1 0x6 PUSH1 0x20 MSTORE PUSH1 0x40 SWAP1 KECCAK256 PUSH1 0x1 ADD SLOAD SWAP1 JUMP JUMPDEST PUSH2 0x354 PUSH2 0x553 JUMP JUMPDEST STOP JUMPDEST PUSH2 0x354 PUSH2 0x364 CALLDATASIZE PUSH1 0x4 PUSH2 0x1090 JUMP JUMPDEST PUSH2 0x5E3 JUMP JUMPDEST PUSH2 0x354 PUSH2 0x377 CALLDATASIZE PUSH1 0x4 PUSH2 0x1060 JUMP JUMPDEST PUSH2 0x662 JUMP JUMPDEST PUSH2 0x354 PUSH2 0x38A CALLDATASIZE PUSH1 0x4 PUSH2 0x1060 JUMP JUMPDEST PUSH2 0x68C JUMP JUMPDEST PUSH2 0x2E7 PUSH2 0x39D CALLDATASIZE PUSH1 0x4 PUSH2 0x1060 JUMP JUMPDEST PUSH1 0x8 PUSH1 0x20 MSTORE PUSH1 0x0 SWAP1 DUP2 MSTORE PUSH1 0x40 SWAP1 KECCAK256 SLOAD DUP2 JUMP JUMPDEST PUSH2 0x2E7 PUSH2 0x3BD CALLDATASIZE PUSH1 0x4 PUSH2 0x1060 JUMP JUMPDEST PUSH2 0x6B6 JUMP JUMPDEST PUSH2 0x354 PUSH2 0x3D0 CALLDATASIZE PUSH1 0x4 PUSH2 0x1090 JUMP JUMPDEST PUSH2 0x71E JUMP JUMPDEST PUSH2 0x354 PUSH2 0x8E2 JUMP JUMPDEST PUSH2 0x2E7 PUSH9 0x6C6B935B8BBD400000 DUP2 JUMP JUMPDEST PUSH2 0x354 PUSH2 0x9C9 JUMP JUMPDEST PUSH2 0x2E7 PUSH9 0x1B1AE4D6E2EF500000 DUP2 JUMP JUMPDEST PUSH2 0x2E7 PUSH9 0x2B5E3AF16B1880000 DUP2 JUMP JUMPDEST PUSH1 0x3 SLOAD PUSH2 0x2C5 SWAP1 PUSH1 0x1 PUSH1 0x1 PUSH1 0xA0 SHL SUB AND DUP2 JUMP JUMPDEST PUSH2 0x2E7 PUSH1 0xB SLOAD DUP2 JUMP JUMPDEST PUSH2 0x2E7 PUSH3 0x2A300 DUP2 JUMP JUMPDEST PUSH2 0x354 PUSH2 0xAAE JUMP JUMPDEST PUSH2 0x2E7 PUSH9 0xAD78EBC5AC6200000 DUP2 JUMP JUMPDEST PUSH2 0x2E7 PUSH9 0x821AB0D4414980000 DUP2 JUMP JUMPDEST PUSH2 0x2E7 PUSH9 0xD8D726B7177A80000 DUP2 JUMP JUMPDEST PUSH2 0x2E7 PUSH2 0x481 CALLDATASIZE PUSH1 0x4 PUSH2 0x1060 JUMP JUMPDEST PUSH2 0xAC0 JUMP JUMPDEST PUSH2 0x2E7 PUSH9 0x3635C9ADC5DEA00000 DUP2 JUMP JUMPDEST PUSH1 0x0 SLOAD PUSH1 0x1 PUSH1 0x1 PUSH1 0xA0 SHL SUB AND PUSH2 0x2C5 JUMP JUMPDEST PUSH2 0x2E7 PUSH1 0x32 DUP2 JUMP JUMPDEST PUSH2 0x2E7 PUSH1 0x14 DUP2 JUMP JUMPDEST PUSH2 0x2E7 PUSH9 0x56BC75E2D63100000 DUP2 JUMP JUMPDEST PUSH2 0x2E7 PUSH1 0xA SLOAD DUP2 JUMP JUMPDEST PUSH2 0x29D PUSH2 0x4DE CALLDATASIZE PUSH1 0x4 PUSH2 0x1060 JUMP JUMPDEST PUSH2 0xB04 JUMP JUMPDEST PUSH1 0x5 SLOAD PUSH2 0x2C5 SWAP1 PUSH1 0x1 PUSH1 0x1 PUSH1 0xA0 SHL SUB AND DUP2 JUMP JUMPDEST PUSH2 0x2E7 PUSH1 0x9 SLOAD DUP2 JUMP JUMPDEST PUSH2 0x354 PUSH2 0xB49 JUMP JUMPDEST PUSH2 0x354 PUSH2 0x515 CALLDATASIZE PUSH1 0x4 PUSH2 0x1060 JUMP JUMPDEST PUSH2 0xC2F JUMP JUMPDEST PUSH2 0x354 PUSH2 0x528 CALLDATASIZE PUSH1 0x4 PUSH2 0x1060 JUMP JUMPDEST PUSH2 0xC59 JUMP JUMPDEST PUSH2 0x354 PUSH2 0x53B CALLDATASIZE PUSH1 0x4 PUSH2 0x10A9 JUMP JUMPDEST PUSH2 0xC94 JUMP JUMPDEST PUSH1 0x2 SLOAD PUSH2 0x2C5 SWAP1 PUSH1 0x1 PUSH1 0x1 PUSH1 0xA0 SHL SUB AND DUP2 JUMP JUMPDEST PUSH2 0x55B PUSH2 0xD1A JUMP JUMPDEST PUSH2 0x56E CALLER PUSH9 0x6C6B935B8BBD400000 PUSH2 0xD44 JUMP JUMPDEST CALLER PUSH1 0x0 SWAP1 DUP2 MSTORE PUSH1 0x6 PUSH1 0x20 MSTORE PUSH1 0x40 DUP2 KECCAK256 PUSH1 0x1 ADD DUP1 SLOAD SWAP2 PUSH2 0x58C DUP4 PUSH2 0x10F7 JUMP JUMPDEST SWAP1 SWAP2 SSTORE POP POP CALLER PUSH1 0x0 DUP2 DUP2 MSTORE PUSH1 0x6 PUSH1 0x20 SWAP1 DUP2 MSTORE PUSH1 0x40 SWAP2 DUP3 SWAP1 KECCAK256 PUSH1 0x1 ADD SLOAD SWAP2 MLOAD SWAP2 DUP3 MSTORE PUSH32 0xA97775681DB71BD14C6BBAD8726C5ED1475C8B6E9E1AFABE27C001D217DDDD7C SWAP2 ADD PUSH1 0x40 MLOAD DUP1 SWAP2 SUB SWAP1 LOG2 PUSH2 0x5E1 PUSH1 0x1 DUP1 SSTORE JUMP JUMPDEST JUMP JUMPDEST PUSH2 0x5EB PUSH2 0xD1A JUMP JUMPDEST PUSH2 0x5FE CALLER PUSH9 0x2B5E3AF16B1880000 PUSH2 0xD44 JUMP JUMPDEST CALLER PUSH1 0x0 SWAP1 DUP2 MSTORE PUSH1 0x6 PUSH1 0x20 MSTORE PUSH1 0x40 DUP2 KECCAK256 PUSH1 0x3 ADD DUP1 SLOAD SWAP2 PUSH2 0x61C DUP4 PUSH2 0x10F7 JUMP JUMPDEST SWAP1 SWAP2 SSTORE POP POP PUSH1 0x40 MLOAD DUP2 DUP2 MSTORE CALLER SWAP1 PUSH32 0x913A79B17EEA7F58A029C56D7F76A12F0C4D875D08E132BDF36DFAF2074DF634 SWAP1 PUSH1 0x20 ADD PUSH1 0x40 MLOAD DUP1 SWAP2 SUB SWAP1 LOG2 PUSH2 0x65F PUSH1 0x1 DUP1 SSTORE JUMP JUMPDEST POP JUMP JUMPDEST PUSH2 0x66A PUSH2 0xECF JUMP JUMPDEST PUSH1 0x4 DUP1 SLOAD PUSH1 0x1 PUSH1 0x1 PUSH1 0xA0 SHL SUB NOT AND PUSH1 0x1 PUSH1 0x1 PUSH1 0xA0 SHL SUB SWAP3 SWAP1 SWAP3 AND SWAP2 SWAP1 SWAP2 OR SWAP1 SSTORE JUMP JUMPDEST PUSH2 0x694 PUSH2 0xECF JUMP JUMPDEST PUSH1 0x5 DUP1 SLOAD PUSH1 0x1 PUSH1 0x1 PUSH1 0xA0 SHL SUB NOT AND PUSH1 0x1 PUSH1 0x1 PUSH1 0xA0 SHL SUB SWAP3 SWAP1 SWAP3 AND SWAP2 SWAP1 SWAP2 OR SWAP1 SSTORE JUMP JUMPDEST PUSH1 0x1 PUSH1 0x1 PUSH1 0xA0 SHL SUB DUP2 AND PUSH1 0x0 SWAP1 DUP2 MSTORE PUSH1 0x6 PUSH1 0x20 SWAP1 DUP2 MSTORE PUSH1 0x40 DUP1 DUP4 KECCAK256 PUSH1 0x1 DUP5 MSTORE SWAP1 SWAP2 MSTORE DUP1 DUP3 KECCAK256 PUSH1 0x2 DUP1 DUP5 MSTORE SWAP2 DUP4 KECCAK256 SWAP2 DUP3 ADD SLOAD SWAP1 SWAP2 SWAP1 TIMESTAMP LT ISZERO PUSH2 0x6FC JUMPI PUSH1 0x3 ADD SLOAD SWAP4 SWAP3 POP POP POP JUMP JUMPDEST TIMESTAMP DUP3 PUSH1 0x2 ADD SLOAD GT ISZERO PUSH2 0x713 JUMPI POP PUSH1 0x3 ADD SLOAD SWAP3 SWAP2 POP POP JUMP JUMPDEST POP PUSH2 0x2710 SWAP4 SWAP3 POP POP POP JUMP JUMPDEST PUSH2 0x726 PUSH2 0xD1A JUMP JUMPDEST DUP1 PUSH1 0x19 EQ DUP1 PUSH2 0x735 JUMPI POP DUP1 PUSH1 0x32 EQ JUMPDEST PUSH2 0x776 JUMPI PUSH1 0x40 MLOAD PUSH3 0x461BCD PUSH1 0xE5 SHL DUP2 MSTORE PUSH1 0x20 PUSH1 0x4 DUP3 ADD MSTORE PUSH1 0xD PUSH1 0x24 DUP3 ADD MSTORE PUSH13 0x125B9D985B1A59081B195D995B PUSH1 0x9A SHL PUSH1 0x44 DUP3 ADD MSTORE PUSH1 0x64 ADD JUMPDEST PUSH1 0x40 MLOAD DUP1 SWAP2 SUB SWAP1 REVERT JUMPDEST PUSH1 0x0 DUP2 PUSH1 0x19 EQ PUSH2 0x787 JUMPI PUSH1 0x2 PUSH2 0x78A JUMP JUMPDEST PUSH1 0x1 JUMPDEST SWAP1 POP PUSH1 0x0 DUP3 PUSH1 0x19 EQ PUSH2 0x7A5 JUMPI PUSH9 0xD8D726B7177A80000 PUSH2 0x7B0 JUMP JUMPDEST PUSH9 0x56BC75E2D63100000 JUMPDEST SWAP1 POP PUSH2 0x7BC CALLER DUP3 PUSH2 0xD44 JUMP JUMPDEST PUSH1 0x0 PUSH2 0x7CB PUSH3 0x15180 TIMESTAMP PUSH2 0x1110 JUMP JUMPDEST SWAP1 POP PUSH1 0x40 MLOAD DUP1 PUSH1 0x80 ADD PUSH1 0x40 MSTORE DUP1 DUP5 PUSH1 0x4 DUP2 GT ISZERO PUSH2 0x7EA JUMPI PUSH2 0x7EA PUSH2 0x10CB JUMP JUMPDEST DUP2 MSTORE PUSH1 0x20 ADD TIMESTAMP DUP2 MSTORE PUSH1 0x20 ADD DUP3 DUP2 MSTORE PUSH1 0x20 ADD DUP6 PUSH1 0x19 EQ PUSH2 0x80B JUMPI PUSH2 0x3A98 PUSH2 0x80F JUMP JUMPDEST PUSH2 0x30D4 JUMPDEST PUSH2 0xFFFF AND SWAP1 MSTORE CALLER PUSH1 0x0 SWAP1 DUP2 MSTORE PUSH1 0x6 PUSH1 0x20 MSTORE PUSH1 0x40 DUP2 KECCAK256 SWAP1 DUP6 PUSH1 0x4 DUP2 GT ISZERO PUSH2 0x837 JUMPI PUSH2 0x837 PUSH2 0x10CB JUMP JUMPDEST PUSH1 0x4 DUP2 GT ISZERO PUSH2 0x848 JUMPI PUSH2 0x848 PUSH2 0x10CB JUMP JUMPDEST DUP2 MSTORE PUSH1 0x20 DUP2 ADD SWAP2 SWAP1 SWAP2 MSTORE PUSH1 0x40 ADD PUSH1 0x0 KECCAK256 DUP2 MLOAD DUP2 SLOAD DUP3 SWAP1 PUSH1 0xFF NOT AND PUSH1 0x1 DUP4 PUSH1 0x4 DUP2 GT ISZERO PUSH2 0x876 JUMPI PUSH2 0x876 PUSH2 0x10CB JUMP JUMPDEST MUL OR SWAP1 SSTORE POP PUSH1 0x20 DUP3 ADD MLOAD PUSH1 0x1 DUP3 ADD SSTORE PUSH1 0x40 DUP1 DUP4 ADD MLOAD PUSH1 0x2 DUP4 ADD SSTORE PUSH1 0x60 SWAP1 SWAP3 ADD MLOAD PUSH1 0x3 SWAP1 SWAP2 ADD SSTORE MLOAD CALLER SWAP1 PUSH32 0xC46F4259F073F7993C078B946B1B8E16F428B1B02940277D10D1E6FC4AD46EBE SWAP1 PUSH2 0x8CE SWAP1 DUP7 SWAP1 DUP6 SWAP1 PUSH2 0x1123 JUMP JUMPDEST PUSH1 0x40 MLOAD DUP1 SWAP2 SUB SWAP1 LOG2 POP POP POP PUSH2 0x65F PUSH1 0x1 DUP1 SSTORE JUMP JUMPDEST PUSH2 0x8EA PUSH2 0xD1A JUMP JUMPDEST PUSH2 0x8F3 CALLER PUSH2 0xB04 JUMP JUMPDEST ISZERO PUSH2 0x938 JUMPI PUSH1 0x40 MLOAD PUSH3 0x461BCD PUSH1 0xE5 SHL DUP2 MSTORE PUSH1 0x20 PUSH1 0x4 DUP3 ADD MSTORE PUSH1 0x15 PUSH1 0x24 DUP3 ADD MSTORE PUSH21 0x536869656C6420616C726561647920616374697665 PUSH1 0x58 SHL PUSH1 0x44 DUP3 ADD MSTORE PUSH1 0x64 ADD PUSH2 0x76D JUMP JUMPDEST PUSH2 0x94B CALLER PUSH9 0x3635C9ADC5DEA00000 PUSH2 0xD44 JUMP JUMPDEST PUSH1 0x0 PUSH2 0x95A PUSH3 0x2A300 TIMESTAMP PUSH2 0x1110 JUMP JUMPDEST CALLER PUSH1 0x0 DUP2 DUP2 MSTORE PUSH1 0x7 PUSH1 0x20 SWAP1 DUP2 MSTORE PUSH1 0x40 DUP1 DUP4 KECCAK256 DUP1 SLOAD PUSH1 0xFF NOT AND PUSH1 0x1 OR SWAP1 SSTORE PUSH1 0x8 SWAP1 SWAP2 MSTORE SWAP1 DUP2 SWAP1 KECCAK256 DUP4 SWAP1 SSTORE MLOAD SWAP2 SWAP3 POP SWAP1 PUSH32 0xAF1157BE12F167926726E9E6179192C28A7EFE7892B3D367C093D5DBCB47FE01 SWAP1 PUSH2 0x9B7 SWAP1 DUP5 DUP2 MSTORE PUSH1 0x20 ADD SWAP1 JUMP JUMPDEST PUSH1 0x40 MLOAD DUP1 SWAP2 SUB SWAP1 LOG2 POP PUSH2 0x5E1 PUSH1 0x1 DUP1 SSTORE JUMP JUMPDEST PUSH2 0x9D1 PUSH2 0xD1A JUMP JUMPDEST PUSH2 0x9E4 CALLER PUSH9 0x821AB0D4414980000 PUSH2 0xD44 JUMP JUMPDEST PUSH1 0x0 PUSH2 0x9F3 PUSH3 0x15180 TIMESTAMP PUSH2 0x1110 JUMP JUMPDEST PUSH1 0x40 DUP1 MLOAD PUSH1 0x80 DUP2 ADD DUP3 MSTORE PUSH1 0x4 DUP1 DUP3 MSTORE TIMESTAMP PUSH1 0x20 DUP1 DUP5 ADD SWAP2 SWAP1 SWAP2 MSTORE DUP3 DUP5 ADD DUP6 SWAP1 MSTORE PUSH1 0x0 PUSH1 0x60 DUP5 ADD DUP2 SWAP1 MSTORE CALLER DUP2 MSTORE PUSH1 0x6 DUP3 MSTORE DUP5 DUP2 KECCAK256 DUP4 DUP3 MSTORE SWAP1 SWAP2 MSTORE SWAP3 SWAP1 SWAP3 KECCAK256 DUP2 MLOAD DUP2 SLOAD SWAP5 SWAP6 POP SWAP2 SWAP4 SWAP1 SWAP3 DUP4 SWAP2 PUSH1 0xFF NOT AND SWAP1 PUSH1 0x1 SWAP1 DUP5 SWAP1 DUP2 GT ISZERO PUSH2 0xA55 JUMPI PUSH2 0xA55 PUSH2 0x10CB JUMP JUMPDEST MUL OR SWAP1 SSTORE POP PUSH1 0x20 DUP3 ADD MLOAD PUSH1 0x1 DUP3 ADD SSTORE PUSH1 0x40 DUP1 DUP4 ADD MLOAD PUSH1 0x2 DUP4 ADD SSTORE PUSH1 0x60 SWAP1 SWAP3 ADD MLOAD PUSH1 0x3 SWAP1 SWAP2 ADD SSTORE MLOAD CALLER SWAP1 PUSH32 0xC46F4259F073F7993C078B946B1B8E16F428B1B02940277D10D1E6FC4AD46EBE SWAP1 PUSH2 0x9B7 SWAP1 PUSH1 0x4 SWAP1 DUP6 SWAP1 PUSH2 0x1123 JUMP JUMPDEST PUSH2 0xAB6 PUSH2 0xECF JUMP JUMPDEST PUSH2 0x5E1 PUSH1 0x0 PUSH2 0xEFC JUMP JUMPDEST PUSH1 0x1 PUSH1 0x1 PUSH1 0xA0 SHL SUB DUP2 AND PUSH1 0x0 SWAP1 DUP2 MSTORE PUSH1 0x6 PUSH1 0x20 SWAP1 DUP2 MSTORE PUSH1 0x40 DUP1 DUP4 KECCAK256 PUSH1 0x3 DUP5 MSTORE SWAP1 SWAP2 MSTORE DUP2 KECCAK256 PUSH1 0x2 DUP2 ADD SLOAD TIMESTAMP LT ISZERO PUSH2 0xAFA JUMPI PUSH1 0x3 ADD SLOAD SWAP3 SWAP2 POP POP JUMP JUMPDEST POP PUSH2 0x2710 SWAP3 SWAP2 POP POP JUMP JUMPDEST PUSH1 0x1 PUSH1 0x1 PUSH1 0xA0 SHL SUB DUP2 AND PUSH1 0x0 SWAP1 DUP2 MSTORE PUSH1 0x7 PUSH1 0x20 MSTORE PUSH1 0x40 DUP2 KECCAK256 SLOAD PUSH1 0xFF AND DUP1 ISZERO PUSH2 0xB43 JUMPI POP PUSH1 0x1 PUSH1 0x1 PUSH1 0xA0 SHL SUB DUP3 AND PUSH1 0x0 SWAP1 DUP2 MSTORE PUSH1 0x8 PUSH1 0x20 MSTORE PUSH1 0x40 SWAP1 KECCAK256 SLOAD TIMESTAMP LT JUMPDEST SWAP3 SWAP2 POP POP JUMP JUMPDEST PUSH2 0xB51 PUSH2 0xD1A JUMP JUMPDEST PUSH2 0xB64 CALLER PUSH9 0xAD78EBC5AC6200000 PUSH2 0xD44 JUMP JUMPDEST PUSH1 0x0 PUSH2 0xB73 PUSH3 0x15180 TIMESTAMP PUSH2 0x1110 JUMP JUMPDEST PUSH1 0x40 DUP1 MLOAD PUSH1 0x80 DUP2 ADD DUP3 MSTORE PUSH1 0x3 DUP1 DUP3 MSTORE TIMESTAMP PUSH1 0x20 DUP1 DUP5 ADD SWAP2 SWAP1 SWAP2 MSTORE DUP3 DUP5 ADD DUP6 SWAP1 MSTORE PUSH2 0x3A98 PUSH1 0x60 DUP5 ADD MSTORE CALLER PUSH1 0x0 SWAP1 DUP2 MSTORE PUSH1 0x6 DUP3 MSTORE DUP5 DUP2 KECCAK256 SWAP3 DUP2 MSTORE SWAP2 SWAP1 MSTORE SWAP2 SWAP1 SWAP2 KECCAK256 DUP2 MLOAD DUP2 SLOAD SWAP4 SWAP5 POP SWAP2 SWAP3 SWAP1 SWAP2 SWAP1 DUP3 SWAP1 PUSH1 0xFF NOT AND PUSH1 0x1 DUP4 PUSH1 0x4 DUP2 GT ISZERO PUSH2 0xBD7 JUMPI PUSH2 0xBD7 PUSH2 0x10CB JUMP JUMPDEST MUL OR SWAP1 SSTORE POP PUSH1 0x20 DUP3 ADD MLOAD PUSH1 0x1 DUP3 ADD SSTORE PUSH1 0x40 DUP1 DUP4 ADD MLOAD PUSH1 0x2 DUP4 ADD SSTORE PUSH1 0x60 SWAP1 SWAP3 ADD MLOAD PUSH1 0x3 SWAP2 DUP3 ADD SSTORE SWAP1 MLOAD CALLER SWAP2 PUSH32 0xC46F4259F073F7993C078B946B1B8E16F428B1B02940277D10D1E6FC4AD46EBE SWAP2 PUSH2 0x9B7 SWAP2 SWAP1 DUP6 SWAP1 PUSH2 0x1123 JUMP JUMPDEST PUSH2 0xC37 PUSH2 0xECF JUMP JUMPDEST PUSH1 0x3 DUP1 SLOAD PUSH1 0x1 PUSH1 0x1 PUSH1 0xA0 SHL SUB NOT AND PUSH1 0x1 PUSH1 0x1 PUSH1 0xA0 SHL SUB SWAP3 SWAP1 SWAP3 AND SWAP2 SWAP1 SWAP2 OR SWAP1 SSTORE JUMP JUMPDEST PUSH2 0xC61 PUSH2 0xECF JUMP JUMPDEST PUSH1 0x1 PUSH1 0x1 PUSH1 0xA0 SHL SUB DUP2 AND PUSH2 0xC8B JUMPI PUSH1 0x40 MLOAD PUSH4 0x1E4FBDF7 PUSH1 0xE0 SHL DUP2 MSTORE PUSH1 0x0 PUSH1 0x4 DUP3 ADD MSTORE PUSH1 0x24 ADD PUSH2 0x76D JUMP JUMPDEST PUSH2 0x65F DUP2 PUSH2 0xEFC JUMP JUMPDEST PUSH2 0xC9C PUSH2 0xD1A JUMP JUMPDEST PUSH2 0xCAF CALLER PUSH9 0x1B1AE4D6E2EF500000 PUSH2 0xD44 JUMP JUMPDEST CALLER PUSH1 0x0 SWAP1 DUP2 MSTORE PUSH1 0x6 PUSH1 0x20 MSTORE PUSH1 0x40 DUP2 KECCAK256 PUSH1 0x2 ADD DUP1 SLOAD SWAP2 PUSH2 0xCCD DUP4 PUSH2 0x10F7 JUMP JUMPDEST SWAP1 SWAP2 SSTORE POP POP PUSH1 0x40 DUP1 MLOAD DUP4 DUP2 MSTORE PUSH1 0x20 DUP2 ADD DUP4 SWAP1 MSTORE CALLER SWAP2 PUSH32 0x2B6CF4C9F1FB25EEC2BE894E99D6AAD17C42BF7E515D389B0426766030B9DBEB SWAP2 ADD PUSH1 0x40 MLOAD DUP1 SWAP2 SUB SWAP1 LOG2 PUSH2 0xD16 PUSH1 0x1 DUP1 SSTORE JUMP JUMPDEST POP POP JUMP JUMPDEST PUSH1 0x2 PUSH1 0x1 SLOAD SUB PUSH2 0xD3D JUMPI PUSH1 0x40 MLOAD PUSH4 0x3EE5AEB5 PUSH1 0xE0 SHL DUP2 MSTORE PUSH1 0x4 ADD PUSH1 0x40 MLOAD DUP1 SWAP2 SUB SWAP1 REVERT JUMPDEST PUSH1 0x2 PUSH1 0x1 SSTORE JUMP JUMPDEST PUSH1 0x2 SLOAD PUSH2 0xD5C SWAP1 PUSH1 0x1 PUSH1 0x1 PUSH1 0xA0 SHL SUB AND DUP4 ADDRESS DUP5 PUSH2 0xF4C JUMP JUMPDEST PUSH1 0x0 PUSH1 0x64 PUSH2 0xD6B PUSH1 0x32 DUP5 PUSH2 0x114F JUMP JUMPDEST PUSH2 0xD75 SWAP2 SWAP1 PUSH2 0x1166 JUMP JUMPDEST SWAP1 POP PUSH1 0x0 PUSH1 0x64 PUSH2 0xD86 PUSH1 0x1E DUP6 PUSH2 0x114F JUMP JUMPDEST PUSH2 0xD90 SWAP2 SWAP1 PUSH2 0x1166 JUMP JUMPDEST SWAP1 POP PUSH1 0x0 DUP2 PUSH2 0xD9F DUP5 DUP7 PUSH2 0x1188 JUMP JUMPDEST PUSH2 0xDA9 SWAP2 SWAP1 PUSH2 0x1188 JUMP JUMPDEST PUSH1 0x2 SLOAD PUSH1 0x40 MLOAD PUSH4 0x852CD8D PUSH1 0xE3 SHL DUP2 MSTORE PUSH1 0x4 DUP2 ADD DUP7 SWAP1 MSTORE SWAP2 SWAP3 POP PUSH1 0x1 PUSH1 0x1 PUSH1 0xA0 SHL SUB AND SWAP1 PUSH4 0x42966C68 SWAP1 PUSH1 0x24 ADD PUSH1 0x0 PUSH1 0x40 MLOAD DUP1 DUP4 SUB DUP2 PUSH1 0x0 DUP8 DUP1 EXTCODESIZE ISZERO DUP1 ISZERO PUSH2 0xDF0 JUMPI PUSH1 0x0 DUP1 REVERT JUMPDEST POP GAS CALL ISZERO DUP1 ISZERO PUSH2 0xE04 JUMPI RETURNDATASIZE PUSH1 0x0 DUP1 RETURNDATACOPY RETURNDATASIZE PUSH1 0x0 REVERT JUMPDEST POP POP POP POP DUP3 PUSH1 0x9 PUSH1 0x0 DUP3 DUP3 SLOAD PUSH2 0xE1A SWAP2 SWAP1 PUSH2 0x1110 JUMP JUMPDEST SWAP1 SWAP2 SSTORE POP POP PUSH1 0x3 SLOAD PUSH1 0x2 SLOAD PUSH2 0xE3C SWAP2 PUSH1 0x1 PUSH1 0x1 PUSH1 0xA0 SHL SUB SWAP2 DUP3 AND SWAP2 AND DUP5 PUSH2 0xFB9 JUMP JUMPDEST DUP2 PUSH1 0xA PUSH1 0x0 DUP3 DUP3 SLOAD PUSH2 0xE4E SWAP2 SWAP1 PUSH2 0x1110 JUMP JUMPDEST SWAP1 SWAP2 SSTORE POP POP PUSH1 0x4 SLOAD PUSH1 0x2 SLOAD PUSH2 0xE70 SWAP2 PUSH1 0x1 PUSH1 0x1 PUSH1 0xA0 SHL SUB SWAP2 DUP3 AND SWAP2 AND DUP4 PUSH2 0xFB9 JUMP JUMPDEST DUP1 PUSH1 0xB PUSH1 0x0 DUP3 DUP3 SLOAD PUSH2 0xE82 SWAP2 SWAP1 PUSH2 0x1110 JUMP JUMPDEST SWAP1 SWAP2 SSTORE POP POP PUSH1 0x40 DUP1 MLOAD DUP5 DUP2 MSTORE PUSH1 0x20 DUP2 ADD DUP5 SWAP1 MSTORE SWAP1 DUP2 ADD DUP3 SWAP1 MSTORE PUSH32 0x8739EA584738C9982D7EA914DDF018402C622087A3AC9C4EDDFDAAFDEFAB1347 SWAP1 PUSH1 0x60 ADD PUSH1 0x40 MLOAD DUP1 SWAP2 SUB SWAP1 LOG1 POP POP POP POP POP JUMP JUMPDEST PUSH1 0x0 SLOAD PUSH1 0x1 PUSH1 0x1 PUSH1 0xA0 SHL SUB AND CALLER EQ PUSH2 0x5E1 JUMPI PUSH1 0x40 MLOAD PUSH4 0x118CDAA7 PUSH1 0xE0 SHL DUP2 MSTORE CALLER PUSH1 0x4 DUP3 ADD MSTORE PUSH1 0x24 ADD PUSH2 0x76D JUMP JUMPDEST PUSH1 0x0 DUP1 SLOAD PUSH1 0x1 PUSH1 0x1 PUSH1 0xA0 SHL SUB DUP4 DUP2 AND PUSH1 0x1 PUSH1 0x1 PUSH1 0xA0 SHL SUB NOT DUP4 AND DUP2 OR DUP5 SSTORE PUSH1 0x40 MLOAD SWAP2 SWAP1 SWAP3 AND SWAP3 DUP4 SWAP2 PUSH32 0x8BE0079C531659141344CD1FD0A4F28419497F9722A3DAAFE3B4186F6B6457E0 SWAP2 SWAP1 LOG3 POP POP JUMP JUMPDEST PUSH1 0x40 MLOAD PUSH1 0x1 PUSH1 0x1 PUSH1 0xA0 SHL SUB DUP5 DUP2 AND PUSH1 0x24 DUP4 ADD MSTORE DUP4 DUP2 AND PUSH1 0x44 DUP4 ADD MSTORE PUSH1 0x64 DUP3 ADD DUP4 SWAP1 MSTORE PUSH2 0xFB3 SWAP2 DUP7 SWAP2 DUP3 AND SWAP1 PUSH4 0x23B872DD SWAP1 PUSH1 0x84 ADD JUMPDEST PUSH1 0x40 MLOAD PUSH1 0x20 DUP2 DUP4 SUB SUB DUP2 MSTORE SWAP1 PUSH1 0x40 MSTORE SWAP2 POP PUSH1 0xE0 SHL PUSH1 0x20 DUP3 ADD DUP1 MLOAD PUSH1 0x1 PUSH1 0x1 PUSH1 0xE0 SHL SUB DUP4 DUP2 DUP4 AND OR DUP4 MSTORE POP POP POP POP PUSH2 0xFEF JUMP JUMPDEST POP POP POP POP JUMP JUMPDEST PUSH1 0x40 MLOAD PUSH1 0x1 PUSH1 0x1 PUSH1 0xA0 SHL SUB DUP4 DUP2 AND PUSH1 0x24 DUP4 ADD MSTORE PUSH1 0x44 DUP3 ADD DUP4 SWAP1 MSTORE PUSH2 0xFEA SWAP2 DUP6 SWAP2 DUP3 AND SWAP1 PUSH4 0xA9059CBB SWAP1 PUSH1 0x64 ADD PUSH2 0xF81 JUMP JUMPDEST POP POP POP JUMP JUMPDEST PUSH1 0x0 DUP1 PUSH1 0x20 PUSH1 0x0 DUP5 MLOAD PUSH1 0x20 DUP7 ADD PUSH1 0x0 DUP9 GAS CALL DUP1 PUSH2 0x1012 JUMPI PUSH1 0x40 MLOAD RETURNDATASIZE PUSH1 0x0 DUP3 RETURNDATACOPY RETURNDATASIZE DUP2 REVERT JUMPDEST POP POP PUSH1 0x0 MLOAD RETURNDATASIZE SWAP2 POP DUP2 ISZERO PUSH2 0x102A JUMPI DUP1 PUSH1 0x1 EQ ISZERO PUSH2 0x1037 JUMP JUMPDEST PUSH1 0x1 PUSH1 0x1 PUSH1 0xA0 SHL SUB DUP5 AND EXTCODESIZE ISZERO JUMPDEST ISZERO PUSH2 0xFB3 JUMPI PUSH1 0x40 MLOAD PUSH4 0x5274AFE7 PUSH1 0xE0 SHL DUP2 MSTORE PUSH1 0x1 PUSH1 0x1 PUSH1 0xA0 SHL SUB DUP6 AND PUSH1 0x4 DUP3 ADD MSTORE PUSH1 0x24 ADD PUSH2 0x76D JUMP JUMPDEST PUSH1 0x0 PUSH1 0x20 DUP3 DUP5 SUB SLT ISZERO PUSH2 0x1072 JUMPI PUSH1 0x0 DUP1 REVERT JUMPDEST DUP2 CALLDATALOAD PUSH1 0x1 PUSH1 0x1 PUSH1 0xA0 SHL SUB DUP2 AND DUP2 EQ PUSH2 0x1089 JUMPI PUSH1 0x0 DUP1 REVERT JUMPDEST SWAP4 SWAP3 POP POP POP JUMP JUMPDEST PUSH1 0x0 PUSH1 0x20 DUP3 DUP5 SUB SLT ISZERO PUSH2 0x10A2 JUMPI PUSH1 0x0 DUP1 REVERT JUMPDEST POP CALLDATALOAD SWAP2 SWAP1 POP JUMP JUMPDEST PUSH1 0x0 DUP1 PUSH1 0x40 DUP4 DUP6 SUB SLT ISZERO PUSH2 0x10BC JUMPI PUSH1 0x0 DUP1 REVERT JUMPDEST POP POP DUP1 CALLDATALOAD SWAP3 PUSH1 0x20 SWAP1 SWAP2 ADD CALLDATALOAD SWAP2 POP JUMP JUMPDEST PUSH4 0x4E487B71 PUSH1 0xE0 SHL PUSH1 0x0 MSTORE PUSH1 0x21 PUSH1 0x4 MSTORE PUSH1 0x24 PUSH1 0x0 REVERT JUMPDEST PUSH4 0x4E487B71 PUSH1 0xE0 SHL PUSH1 0x0 MSTORE PUSH1 0x11 PUSH1 0x4 MSTORE PUSH1 0x24 PUSH1 0x0 REVERT JUMPDEST PUSH1 0x0 PUSH1 0x1 DUP3 ADD PUSH2 0x1109 JUMPI PUSH2 0x1109 PUSH2 0x10E1 JUMP JUMPDEST POP PUSH1 0x1 ADD SWAP1 JUMP JUMPDEST DUP1 DUP3 ADD DUP1 DUP3 GT ISZERO PUSH2 0xB43 JUMPI PUSH2 0xB43 PUSH2 0x10E1 JUMP JUMPDEST PUSH1 0x40 DUP2 ADD PUSH1 0x5 DUP5 LT PUSH2 0x1145 JUMPI PUSH4 0x4E487B71 PUSH1 0xE0 SHL PUSH1 0x0 MSTORE PUSH1 0x21 PUSH1 0x4 MSTORE PUSH1 0x24 PUSH1 0x0 REVERT JUMPDEST SWAP3 DUP2 MSTORE PUSH1 0x20 ADD MSTORE SWAP1 JUMP JUMPDEST DUP1 DUP3 MUL DUP2 ISZERO DUP3 DUP3 DIV DUP5 EQ OR PUSH2 0xB43 JUMPI PUSH2 0xB43 PUSH2 0x10E1 JUMP JUMPDEST PUSH1 0x0 DUP3 PUSH2 0x1183 JUMPI PUSH4 0x4E487B71 PUSH1 0xE0 SHL PUSH1 0x0 MSTORE PUSH1 0x12 PUSH1 0x4 MSTORE PUSH1 0x24 PUSH1 0x0 REVERT JUMPDEST POP DIV SWAP1 JUMP JUMPDEST DUP2 DUP2 SUB DUP2 DUP2 GT ISZERO PUSH2 0xB43 JUMPI PUSH2 0xB43 PUSH2 0x10E1 JUMP INVALID LOG2 PUSH5 0x6970667358 0x22 SLT KECCAK256 LOG1 0xE5 PUSH25 0x79EA73E374C39944AF48DFB6ABBD60ACD7ACDC15447E0D7C89 PUSH21 0xE8323364736F6C6343000814003300000000000000 "},"methodIdentifiers":{"ACCELERATOR_25_COST()":"ba01be59","ACCELERATOR_50_COST()":"7920bb39","ACCELERATOR_DURATION()":"167280fa","BURN_PERCENTAGE()":"9649b910","COLONY_PERMIT_COST()":"57d1cb6e","EMERGENCY_RECALL_COST()":"60a44161","INSTANT_BUILD_COST()":"5aaa7dff","STAKING_PERCENTAGE()":"a9716f33","STEALTH_MODE_COST()":"74ea739e","STEALTH_MODE_DURATION()":"d37b2ff9","TREASURY_PERCENTAGE()":"173b31d8","VOID_SHIELD_COST()":"823d6937","VOID_SHIELD_DURATION()":"700dab7f","YIELD_AMPLIFIER_COST()":"72b9b71d","YIELD_AMPLIFIER_DURATION()":"ec9a1d51","activateAccelerator(uint256)":"4cb8efd4","activateStealthMode()":"596dfe74","activateVoidShield()":"533f90a1","activateYieldAmplifier()":"eacf9751","gameContract()":"d3f33009","getAcceleratorMultiplier(address)":"46355d6c","getExtraColonySlots(address)":"1dd0f31e","getYieldMultiplier(address)":"7f600bf8","hasVoidShield(address)":"18265e08","isShieldActive(address)":"c3df9ba3","isStealthActive(address)":"0791f8b3","owner()":"8da5cb5b","purchaseColonyPermit()":"22ad3ea1","renounceOwnership()":"715018a6","setGameContract(address)":"405ebd4d","setStakingPool(address)":"3028f63a","setTreasury(address)":"f0f44260","stakingPool()":"0c56ae3b","totalBurned()":"d89135cd","totalToStaking()":"634f9493","totalToTreasury()":"c1b57edb","transferOwnership(address)":"f2fde38b","treasury()":"61d027b3","useEmergencyRecall(uint256)":"2aab971f","useInstantBuild(uint256,uint256)":"f3f8e2aa","voidShieldExpiry(address)":"42d4fa5c","voidToken()":"f80b3dd0"}}}}}