{"contracts/VoidBoosts.sol":{"VoidBoosts":{"abi":[{"inputs":[{"internalType":"address","name":"_voidToken","type":"address"},{"internalType":"address","name":"_gameContract","type":"address"}],"stateMutability":"nonpayable","type":"constructor"},{"inputs":[{"internalType":"address","name":"owner","type":"address"}],"name":"OwnableInvalidOwner","type":"error"},{"inputs":[{"internalType":"address","name":"account","type":"address"}],"name":"OwnableUnauthorizedAccount","type":"error"},{"inputs":[],"name":"ReentrancyGuardReentrantCall","type":"error"},{"inputs":[{"internalType":"address","name":"token","type":"address"}],"name":"SafeERC20FailedOperation","type":"error"},{"anonymous":false,"inputs":[{"indexed":true,"internalType":"address","name":"player","type":"address"},{"indexed":false,"internalType":"enum VoidBoosts.BoostType","name":"boostType","type":"uint8"},{"indexed":false,"internalType":"uint256","name":"expiresAt","type":"uint256"}],"name":"BoostActivated","type":"event"},{"anonymous":false,"inputs":[{"indexed":true,"internalType":"address","name":"player","type":"address"},{"indexed":false,"internalType":"uint256","name":"totalSlots","type":"uint256"}],"name":"ColonyPermitPurchased","type":"event"},{"anonymous":false,"inputs":[{"indexed":true,"internalType":"address","name":"player","type":"address"},{"indexed":false,"internalType":"uint256","name":"fleetId","type":"uint256"}],"name":"EmergencyRecallUsed","type":"event"},{"anonymous":false,"inputs":[{"indexed":true,"internalType":"address","name":"player","type":"address"},{"indexed":false,"internalType":"uint256","name":"colonyId","type":"uint256"},{"indexed":false,"internalType":"uint256","name":"facilityId","type":"uint256"}],"name":"InstantBuildUsed","type":"event"},{"anonymous":false,"inputs":[{"indexed":true,"internalType":"address","name":"previousOwner","type":"address"},{"indexed":true,"internalType":"address","name":"newOwner","type":"address"}],"name":"OwnershipTransferred","type":"event"},{"anonymous":false,"inputs":[{"indexed":true,"internalType":"address","name":"player","type":"address"},{"indexed":false,"internalType":"uint256","name":"amount","type":"uint256"}],"name":"TokensRedeemed","type":"event"},{"anonymous":false,"inputs":[{"indexed":true,"internalType":"address","name":"player","type":"address"},{"indexed":false,"internalType":"enum VoidBoosts.BoostType","name":"boostType","type":"uint8"},{"indexed":false,"internalType":"uint256","name":"amount","type":"uint256"}],"name":"TokensSpent","type":"event"},{"anonymous":false,"inputs":[{"indexed":true,"internalType":"address","name":"player","type":"address"},{"indexed":false,"internalType":"uint256","name":"amount","type":"uint256"},{"indexed":false,"internalType":"string","name":"reason","type":"string"}],"name":"TokensSpentGeneric","type":"event"},{"anonymous":false,"inputs":[{"indexed":true,"internalType":"address","name":"player","type":"address"},{"indexed":false,"internalType":"uint256","name":"expiresAt","type":"uint256"}],"name":"VoidShieldActivated","type":"event"},{"inputs":[],"name":"ACCELERATOR_25_COST","outputs":[{"internalType":"uint256","name":"","type":"uint256"}],"stateMutability":"view","type":"function"},{"inputs":[],"name":"ACCELERATOR_50_COST","outputs":[{"internalType":"uint256","name":"","type":"uint256"}],"stateMutability":"view","type":"function"},{"inputs":[],"name":"ACCELERATOR_DURATION","outputs":[{"internalType":"uint256","name":"","type":"uint256"}],"stateMutability":"view","type":"function"},{"inputs":[],"name":"COLONY_PERMIT_COST","outputs":[{"internalType":"uint256","name":"","type":"uint256"}],"stateMutability":"view","type":"function"},{"inputs":[],"name":"EMERGENCY_RECALL_COST","outputs":[{"internalType":"uint256","name":"","type":"uint256"}],"stateMutability":"view","type":"function"},{"inputs":[],"name":"INSTANT_BUILD_COST","outputs":[{"internalType":"uint256","name":"","type":"uint256"}],"stateMutability":"view","type":"function"},{"inputs":[],"name":"STEALTH_MODE_COST","outputs":[{"internalType":"uint256","name":"","type":"uint256"}],"stateMutability":"view","type":"function"},{"inputs":[],"name":"STEALTH_MODE_DURATION","outputs":[{"internalType":"uint256","name":"","type":"uint256"}],"stateMutability":"view","type":"function"},{"inputs":[],"name":"VOID_SHIELD_COST","outputs":[{"internalType":"uint256","name":"","type":"uint256"}],"stateMutability":"view","type":"function"},{"inputs":[],"name":"VOID_SHIELD_DURATION","outputs":[{"internalType":"uint256","name":"","type":"uint256"}],"stateMutability":"view","type":"function"},{"inputs":[],"name":"YIELD_AMPLIFIER_COST","outputs":[{"internalType":"uint256","name":"","type":"uint256"}],"stateMutability":"view","type":"function"},{"inputs":[],"name":"YIELD_AMPLIFIER_DURATION","outputs":[{"internalType":"uint256","name":"","type":"uint256"}],"stateMutability":"view","type":"function"},{"inputs":[{"internalType":"uint256","name":"level","type":"uint256"}],"name":"activateAccelerator","outputs":[],"stateMutability":"nonpayable","type":"function"},{"inputs":[],"name":"activateStealthMode","outputs":[],"stateMutability":"nonpayable","type":"function"},{"inputs":[],"name":"activateVoidShield","outputs":[],"stateMutability":"nonpayable","type":"function"},{"inputs":[],"name":"activateYieldAmplifier","outputs":[],"stateMutability":"nonpayable","type":"function"},{"inputs":[{"internalType":"uint256","name":"amount","type":"uint256"},{"internalType":"uint256","name":"resourceType","type":"uint256"},{"internalType":"uint256","name":"quantity","type":"uint256"}],"name":"buyResources","outputs":[],"stateMutability":"nonpayable","type":"function"},{"inputs":[],"name":"gameContract","outputs":[{"internalType":"address","name":"","type":"address"}],"stateMutability":"view","type":"function"},{"inputs":[{"internalType":"address","name":"player","type":"address"}],"name":"getAcceleratorMultiplier","outputs":[{"internalType":"uint256","name":"","type":"uint256"}],"stateMutability":"view","type":"function"},{"inputs":[{"internalType":"address","name":"player","type":"address"}],"name":"getExtraColonySlots","outputs":[{"internalType":"uint256","name":"","type":"uint256"}],"stateMutability":"view","type":"function"},{"inputs":[{"internalType":"address","name":"player","type":"address"}],"name":"getYieldMultiplier","outputs":[{"internalType":"uint256","name":"","type":"uint256"}],"stateMutability":"view","type":"function"},{"inputs":[{"internalType":"address","name":"","type":"address"}],"name":"hasVoidShield","outputs":[{"internalType":"bool","name":"","type":"bool"}],"stateMutability":"view","type":"function"},{"inputs":[{"internalType":"address","name":"player","type":"address"}],"name":"isShieldActive","outputs":[{"internalType":"bool","name":"","type":"bool"}],"stateMutability":"view","type":"function"},{"inputs":[{"internalType":"address","name":"player","type":"address"}],"name":"isStealthActive","outputs":[{"internalType":"bool","name":"","type":"bool"}],"stateMutability":"view","type":"function"},{"inputs":[],"name":"owner","outputs":[{"internalType":"address","name":"","type":"address"}],"stateMutability":"view","type":"function"},{"inputs":[],"name":"purchaseColonyPermit","outputs":[],"stateMutability":"nonpayable","type":"function"},{"inputs":[],"name":"renounceOwnership","outputs":[],"stateMutability":"nonpayable","type":"function"},{"inputs":[{"internalType":"uint256","name":"amount","type":"uint256"},{"internalType":"uint256","name":"resourceType","type":"uint256"},{"internalType":"uint256","name":"quantity","type":"uint256"}],"name":"sellResources","outputs":[],"stateMutability":"nonpayable","type":"function"},{"inputs":[{"internalType":"address","name":"_gameContract","type":"address"}],"name":"setGameContract","outputs":[],"stateMutability":"nonpayable","type":"function"},{"inputs":[],"name":"totalSpentOnAccelerators","outputs":[{"internalType":"uint256","name":"","type":"uint256"}],"stateMutability":"view","type":"function"},{"inputs":[],"name":"totalSpentOnColonyPermit","outputs":[{"internalType":"uint256","name":"","type":"uint256"}],"stateMutability":"view","type":"function"},{"inputs":[],"name":"totalSpentOnEmergencyRecall","outputs":[{"internalType":"uint256","name":"","type":"uint256"}],"stateMutability":"view","type":"function"},{"inputs":[],"name":"totalSpentOnInstantBuild","outputs":[{"internalType":"uint256","name":"","type":"uint256"}],"stateMutability":"view","type":"function"},{"inputs":[],"name":"totalSpentOnResources","outputs":[{"internalType":"uint256","name":"","type":"uint256"}],"stateMutability":"view","type":"function"},{"inputs":[],"name":"totalSpentOnStealthMode","outputs":[{"internalType":"uint256","name":"","type":"uint256"}],"stateMutability":"view","type":"function"},{"inputs":[],"name":"totalSpentOnVoidShield","outputs":[{"internalType":"uint256","name":"","type":"uint256"}],"stateMutability":"view","type":"function"},{"inputs":[],"name":"totalSpentOnYieldAmplifier","outputs":[{"internalType":"uint256","name":"","type":"uint256"}],"stateMutability":"view","type":"function"},{"inputs":[{"internalType":"address","name":"newOwner","type":"address"}],"name":"transferOwnership","outputs":[],"stateMutability":"nonpayable","type":"function"},{"inputs":[{"internalType":"uint256","name":"fleetId","type":"uint256"}],"name":"useEmergencyRecall","outputs":[],"stateMutability":"nonpayable","type":"function"},{"inputs":[{"internalType":"uint256","name":"colonyId","type":"uint256"},{"internalType":"uint256","name":"facilityId","type":"uint256"}],"name":"useInstantBuild","outputs":[],"stateMutability":"nonpayable","type":"function"},{"inputs":[{"internalType":"address","name":"","type":"address"}],"name":"voidShieldExpiry","outputs":[{"internalType":"uint256","name":"","type":"uint256"}],"stateMutability":"view","type":"function"},{"inputs":[],"name":"voidToken","outputs":[{"internalType":"contract IERC20","name":"","type":"address"}],"stateMutability":"view","type":"function"}],"evm":{"bytecode":{"linkReferences":{},"object":"608060405234801561001057600080fd5b506040516200132c3803806200132c83398101604081905261003191610102565b338061005757604051631e4fbdf760e01b81526000600482015260240160405180910390fd5b61006081610096565b5060018055600280546001600160a01b039384166001600160a01b03199182161790915560038054929093169116179055610135565b600080546001600160a01b038381166001600160a01b0319831681178455604051919092169283917f8be0079c531659141344cd1fd0a4f28419497f9722a3daafe3b4186f6b6457e09190a35050565b80516001600160a01b03811681146100fd57600080fd5b919050565b6000806040838503121561011557600080fd5b61011e836100e6565b915061012c602084016100e6565b90509250929050565b6111e780620001456000396000f3fe608060405234801561001057600080fd5b506004361061025e5760003560e01c8063700dab7f1161014657806391618664116100c3578063eacf975111610087578063eacf9751146104f3578063ec9a1d51146102b1578063f2fde38b146104fb578063f3f8e2aa1461050e578063f80b3dd014610521578063fd22ef671461053457600080fd5b806391618664146104b4578063ba01be59146104bd578063c3df9ba3146104cd578063d37b2ff9146102b1578063d3f33009146104e057600080fd5b80637d56b1fb1161010a5780637d56b1fb1461045a5780637f600bf814610463578063823d6937146104765780638da5cb5b146104865780638fb8a532146104ab57600080fd5b8063700dab7f14610418578063715018a61461042257806372b9b71d1461042a57806374ea739e1461043a5780637920bb391461044a57600080fd5b8063405ebd4d116101df5780634cb8efd4116101a35780634cb8efd4146103c5578063533f90a1146103d857806357d1cb6e146103e0578063596dfe74146103f05780635aaa7dff146103f857806360a441611461040857600080fd5b8063405ebd4d1461036357806342d4fa5c1461037657806346355d6c1461039657806346648b56146103a957806347d3b956146103b257600080fd5b806322cd39ad1161022657806322cd39ad14610322578063260f88441461032b5780632aab971f146103345780632e0036f214610347578063402057621461035057600080fd5b80630791f8b314610263578063167280fa146102b157806318265e08146102c95780631dd0f31e146102ec57806322ad3ea114610318575b600080fd5b61029c610271366004611096565b6001600160a01b03166000908152600460208181526040808420928452919052902060020154421090565b60405190151581526020015b60405180910390f35b6102bb6201518081565b6040519081526020016102a8565b61029c6102d7366004611096565b60056020526000908152604090205460ff1681565b6102bb6102fa366004611096565b6001600160a01b031660009081526004602052604090206001015490565b61032061053d565b005b6102bb600c5481565b6102bb60075481565b6103206103423660046110c6565b6105cd565b6102bb60085481565b61032061035e3660046110df565b61064c565b610320610371366004611096565b61072d565b6102bb610384366004611096565b60066020526000908152604090205481565b6102bb6103a4366004611096565b610757565b6102bb600a5481565b6103206103c03660046110df565b6107bf565b6103206103d33660046110c6565b6108d1565b610320610a92565b6102bb686c6b935b8bbd40000081565b610320610b79565b6102bb681b1ae4d6e2ef50000081565b6102bb6802b5e3af16b188000081565b6102bb6202a30081565b610320610c5d565b6102bb680ad78ebc5ac620000081565b6102bb680821ab0d441498000081565b6102bb680d8d726b7177a8000081565b6102bb60095481565b6102bb610471366004611096565b610c6f565b6102bb683635c9adc5dea0000081565b6000546001600160a01b03165b6040516001600160a01b0390911681526020016102a8565b6102bb600d5481565b6102bb600b5481565b6102bb68056bc75e2d6310000081565b61029c6104db366004611096565b610cb3565b600354610493906001600160a01b031681565b610320610cf8565b610320610509366004611096565b610de4565b61032061051c36600461110b565b610e1f565b600254610493906001600160a01b031681565b6102bb600e5481565b610545610ea5565b61055833686c6b935b8bbd400000610ecf565b33600090815260046020526040812060010180549161057683611159565b9091555050336000818152600460209081526040918290206001015491519182527fa97775681db71bd14c6bbad8726c5ed1475c8b6e9e1afabe27c001d217dddd7c910160405180910390a26105cb60018055565b565b6105d5610ea5565b6105e8336802b5e3af16b1880000610ecf565b33600090815260046020526040812060030180549161060683611159565b909155505060405181815233907f913a79b17eea7f58a029c56d7f76a12f0c4d875d08e132bdf36dfaf2074df6349060200160405180910390a261064960018055565b50565b610654610ea5565b60028211156106a25760405162461bcd60e51b8152602060048201526015602482015274496e76616c6964207265736f75726365207479706560581b60448201526064015b60405180910390fd5b600081116106e95760405162461bcd60e51b815260206004820152601460248201527305175616e74697479206d757374206265203e20360641b6044820152606401610699565b60405183815233907fcdd4c59de26b3f8623e6012ab9bc32a995eda3452d89c941fc8af6b74276ad38906020015b60405180910390a261072860018055565b505050565b610735610f48565b600380546001600160a01b0319166001600160a01b0392909216919091179055565b6001600160a01b03811660009081526004602090815260408083206001845290915280822060028084529183209182015490919042101561079d57600301549392505050565b42826002015411156107b457506003015492915050565b506127109392505050565b6107c7610ea5565b6107d13384610ecf565b600282111561081a5760405162461bcd60e51b8152602060048201526015602482015274496e76616c6964207265736f75726365207479706560581b6044820152606401610699565b600081116108615760405162461bcd60e51b815260206004820152601460248201527305175616e74697479206d757374206265203e20360641b6044820152606401610699565b82600e60008282546108739190611172565b909155505060405133907fe2f1466cf34d5087d844a6eb41230bf6bf197577ca83e45f73dc4bdba615bf2a9061071790868152604060208201819052600d908201526c427579207265736f757263657360981b606082015260800190565b6108d9610ea5565b80601914806108e85750806032145b6109245760405162461bcd60e51b815260206004820152600d60248201526c125b9d985b1a59081b195d995b609a1b6044820152606401610699565b600081601914610935576002610938565b60015b905060008260191461095357680d8d726b7177a8000061095e565b68056bc75e2d631000005b905061096a3382610ecf565b60006109796201518042611172565b905060405180608001604052808460048111156109985761099861112d565b8152602001428152602001828152602001856019146109b957613a986109bd565b6130d45b61ffff1690523360009081526004602081905260408220919086908111156109e7576109e761112d565b60048111156109f8576109f861112d565b8152602081019190915260400160002081518154829060ff19166001836004811115610a2657610a2661112d565b02179055506020820151600182015560408083015160028301556060909201516003909101555133907fc46f4259f073f7993c078b946b1b8e16f428b1b02940277d10d1e6fc4ad46ebe90610a7e9086908590611185565b60405180910390a250505061064960018055565b610a9a610ea5565b610aa333610cb3565b15610ae85760405162461bcd60e51b8152602060048201526015602482015274536869656c6420616c72656164792061637469766560581b6044820152606401610699565b610afb33683635c9adc5dea00000610ecf565b6000610b0a6202a30042611172565b336000818152600560209081526040808320805460ff1916600117905560069091529081902083905551919250907faf1157be12f167926726e9e6179192c28a7efe7892b3d367c093d5dbcb47fe0190610b679084815260200190565b60405180910390a2506105cb60018055565b610b81610ea5565b610b9433680821ab0d4414980000610ecf565b6000610ba36201518042611172565b60408051608081018252600480825242602080840191909152828401859052600060608401819052338152828252848120838252909152929092208151815494955091939092839160ff1916906001908490811115610c0457610c0461112d565b02179055506020820151600182015560408083015160028301556060909201516003909101555133907fc46f4259f073f7993c078b946b1b8e16f428b1b02940277d10d1e6fc4ad46ebe90610b67906004908590611185565b610c65610f48565b6105cb6000610f75565b6001600160a01b03811660009081526004602090815260408083206003845290915281206002810154421015610ca9576003015492915050565b5061271092915050565b6001600160a01b03811660009081526005602052604081205460ff168015610cf257506001600160a01b03821660009081526006602052604090205442105b92915050565b610d00610ea5565b610d1333680ad78ebc5ac6200000610ecf565b6000610d226201518042611172565b60408051608081018252600380825242602080840191909152828401859052613a9860608401523360009081526004909152928320939450909291908152602081019190915260400160002081518154829060ff19166001836004811115610d8c57610d8c61112d565b0217905550602082015160018201556040808301516002830155606090920151600391820155905133917fc46f4259f073f7993c078b946b1b8e16f428b1b02940277d10d1e6fc4ad46ebe91610b6791908590611185565b610dec610f48565b6001600160a01b038116610e1657604051631e4fbdf760e01b815260006004820152602401610699565b61064981610f75565b610e27610ea5565b610e3a33681b1ae4d6e2ef500000610ecf565b336000908152600460205260408120600201805491610e5883611159565b9091555050604080518381526020810183905233917f2b6cf4c9f1fb25eec2be894e99d6aad17c42bf7e515d389b0426766030b9dbeb910160405180910390a2610ea160018055565b5050565b600260015403610ec857604051633ee5aeb560e01b815260040160405180910390fd5b6002600155565b600254610ee7906001600160a01b0316833084610fc5565b8060076000828254610ef99190611172565b92505081905550816001600160a01b03167f60526768e64fa67a38e9b155b9154848038bc483d7198ff3acc14193fd42d547600083604051610f3c929190611185565b60405180910390a25050565b6000546001600160a01b031633146105cb5760405163118cdaa760e01b8152336004820152602401610699565b600080546001600160a01b038381166001600160a01b0319831681178455604051919092169283917f8be0079c531659141344cd1fd0a4f28419497f9722a3daafe3b4186f6b6457e09190a35050565b604080516001600160a01b0385811660248301528416604482015260648082018490528251808303909101815260849091019091526020810180516001600160e01b03166323b872dd60e01b17905261101f908590611025565b50505050565b600080602060008451602086016000885af180611048576040513d6000823e3d81fd5b50506000513d9150811561106057806001141561106d565b6001600160a01b0384163b155b1561101f57604051635274afe760e01b81526001600160a01b0385166004820152602401610699565b6000602082840312156110a857600080fd5b81356001600160a01b03811681146110bf57600080fd5b9392505050565b6000602082840312156110d857600080fd5b5035919050565b6000806000606084860312156110f457600080fd5b505081359360208301359350604090920135919050565b6000806040838503121561111e57600080fd5b50508035926020909101359150565b634e487b7160e01b600052602160045260246000fd5b634e487b7160e01b600052601160045260246000fd5b60006001820161116b5761116b611143565b5060010190565b80820180821115610cf257610cf2611143565b60408101600584106111a757634e487b7160e01b600052602160045260246000fd5b928152602001529056fea2646970667358221220692ebfc243eda1968ed2da3efef5af61a7f2904faa14383d0e21761dae145d0e64736f6c63430008140033","opcodes":"PUSH1 0x80 PUSH1 0x40 MSTORE CALLVALUE DUP1 ISZERO PUSH2 0x10 JUMPI PUSH1 0x0 DUP1 REVERT JUMPDEST POP PUSH1 0x40 MLOAD PUSH3 0x132C CODESIZE SUB DUP1 PUSH3 0x132C DUP4 CODECOPY DUP2 ADD PUSH1 0x40 DUP2 SWAP1 MSTORE PUSH2 0x31 SWAP2 PUSH2 0x102 JUMP JUMPDEST CALLER DUP1 PUSH2 0x57 JUMPI PUSH1 0x40 MLOAD PUSH4 0x1E4FBDF7 PUSH1 0xE0 SHL DUP2 MSTORE PUSH1 0x0 PUSH1 0x4 DUP3 ADD MSTORE PUSH1 0x24 ADD PUSH1 0x40 MLOAD DUP1 SWAP2 SUB SWAP1 REVERT JUMPDEST PUSH2 0x60 DUP2 PUSH2 0x96 JUMP JUMPDEST POP PUSH1 0x1 DUP1 SSTORE PUSH1 0x2 DUP1 SLOAD PUSH1 0x1 PUSH1 0x1 PUSH1 0xA0 SHL SUB SWAP4 DUP5 AND PUSH1 0x1 PUSH1 0x1 PUSH1 0xA0 SHL SUB NOT SWAP2 DUP3 AND OR SWAP1 SWAP2 SSTORE PUSH1 0x3 DUP1 SLOAD SWAP3 SWAP1 SWAP4 AND SWAP2 AND OR SWAP1 SSTORE PUSH2 0x135 JUMP JUMPDEST PUSH1 0x0 DUP1 SLOAD PUSH1 0x1 PUSH1 0x1 PUSH1 0xA0 SHL SUB DUP4 DUP2 AND PUSH1 0x1 PUSH1 0x1 PUSH1 0xA0 SHL SUB NOT DUP4 AND DUP2 OR DUP5 SSTORE PUSH1 0x40 MLOAD SWAP2 SWAP1 SWAP3 AND SWAP3 DUP4 SWAP2 PUSH32 0x8BE0079C531659141344CD1FD0A4F28419497F9722A3DAAFE3B4186F6B6457E0 SWAP2 SWAP1 LOG3 POP POP JUMP JUMPDEST DUP1 MLOAD PUSH1 0x1 PUSH1 0x1 PUSH1 0xA0 SHL SUB DUP2 AND DUP2 EQ PUSH2 0xFD JUMPI PUSH1 0x0 DUP1 REVERT JUMPDEST SWAP2 SWAP1 POP JUMP JUMPDEST PUSH1 0x0 DUP1 PUSH1 0x40 DUP4 DUP6 SUB SLT ISZERO PUSH2 0x115 JUMPI PUSH1 0x0 DUP1 REVERT JUMPDEST PUSH2 0x11E DUP4 PUSH2 0xE6 JUMP JUMPDEST SWAP2 POP PUSH2 0x12C PUSH1 0x20 DUP5 ADD PUSH2 0xE6 JUMP JUMPDEST SWAP1 POP SWAP3 POP SWAP3 SWAP1 POP JUMP JUMPDEST PUSH2 0x11E7 DUP1 PUSH3 0x145 PUSH1 0x0 CODECOPY PUSH1 0x0 RETURN INVALID PUSH1 0x80 PUSH1 0x40 MSTORE CALLVALUE DUP1 ISZERO PUSH2 0x10 JUMPI PUSH1 0x0 DUP1 REVERT JUMPDEST POP PUSH1 0x4 CALLDATASIZE LT PUSH2 0x25E JUMPI PUSH1 0x0 CALLDATALOAD PUSH1 0xE0 SHR DUP1 PUSH4 0x700DAB7F GT PUSH2 0x146 JUMPI DUP1 PUSH4 0x91618664 GT PUSH2 0xC3 JUMPI DUP1 PUSH4 0xEACF9751 GT PUSH2 0x87 JUMPI DUP1 PUSH4 0xEACF9751 EQ PUSH2 0x4F3 JUMPI DUP1 PUSH4 0xEC9A1D51 EQ PUSH2 0x2B1 JUMPI DUP1 PUSH4 0xF2FDE38B EQ PUSH2 0x4FB JUMPI DUP1 PUSH4 0xF3F8E2AA EQ PUSH2 0x50E JUMPI DUP1 PUSH4 0xF80B3DD0 EQ PUSH2 0x521 JUMPI DUP1 PUSH4 0xFD22EF67 EQ PUSH2 0x534 JUMPI PUSH1 0x0 DUP1 REVERT JUMPDEST DUP1 PUSH4 0x91618664 EQ PUSH2 0x4B4 JUMPI DUP1 PUSH4 0xBA01BE59 EQ PUSH2 0x4BD JUMPI DUP1 PUSH4 0xC3DF9BA3 EQ PUSH2 0x4CD JUMPI DUP1 PUSH4 0xD37B2FF9 EQ PUSH2 0x2B1 JUMPI DUP1 PUSH4 0xD3F33009 EQ PUSH2 0x4E0 JUMPI PUSH1 0x0 DUP1 REVERT JUMPDEST DUP1 PUSH4 0x7D56B1FB GT PUSH2 0x10A JUMPI DUP1 PUSH4 0x7D56B1FB EQ PUSH2 0x45A JUMPI DUP1 PUSH4 0x7F600BF8 EQ PUSH2 0x463 JUMPI DUP1 PUSH4 0x823D6937 EQ PUSH2 0x476 JUMPI DUP1 PUSH4 0x8DA5CB5B EQ PUSH2 0x486 JUMPI DUP1 PUSH4 0x8FB8A532 EQ PUSH2 0x4AB JUMPI PUSH1 0x0 DUP1 REVERT JUMPDEST DUP1 PUSH4 0x700DAB7F EQ PUSH2 0x418 JUMPI DUP1 PUSH4 0x715018A6 EQ PUSH2 0x422 JUMPI DUP1 PUSH4 0x72B9B71D EQ PUSH2 0x42A JUMPI DUP1 PUSH4 0x74EA739E EQ PUSH2 0x43A JUMPI DUP1 PUSH4 0x7920BB39 EQ PUSH2 0x44A JUMPI PUSH1 0x0 DUP1 REVERT JUMPDEST DUP1 PUSH4 0x405EBD4D GT PUSH2 0x1DF JUMPI DUP1 PUSH4 0x4CB8EFD4 GT PUSH2 0x1A3 JUMPI DUP1 PUSH4 0x4CB8EFD4 EQ PUSH2 0x3C5 JUMPI DUP1 PUSH4 0x533F90A1 EQ PUSH2 0x3D8 JUMPI DUP1 PUSH4 0x57D1CB6E EQ PUSH2 0x3E0 JUMPI DUP1 PUSH4 0x596DFE74 EQ PUSH2 0x3F0 JUMPI DUP1 PUSH4 0x5AAA7DFF EQ PUSH2 0x3F8 JUMPI DUP1 PUSH4 0x60A44161 EQ PUSH2 0x408 JUMPI PUSH1 0x0 DUP1 REVERT JUMPDEST DUP1 PUSH4 0x405EBD4D EQ PUSH2 0x363 JUMPI DUP1 PUSH4 0x42D4FA5C EQ PUSH2 0x376 JUMPI DUP1 PUSH4 0x46355D6C EQ PUSH2 0x396 JUMPI DUP1 PUSH4 0x46648B56 EQ PUSH2 0x3A9 JUMPI DUP1 PUSH4 0x47D3B956 EQ PUSH2 0x3B2 JUMPI PUSH1 0x0 DUP1 REVERT JUMPDEST DUP1 PUSH4 0x22CD39AD GT PUSH2 0x226 JUMPI DUP1 PUSH4 0x22CD39AD EQ PUSH2 0x322 JUMPI DUP1 PUSH4 0x260F8844 EQ PUSH2 0x32B JUMPI DUP1 PUSH4 0x2AAB971F EQ PUSH2 0x334 JUMPI DUP1 PUSH4 0x2E0036F2 EQ PUSH2 0x347 JUMPI DUP1 PUSH4 0x40205762 EQ PUSH2 0x350 JUMPI PUSH1 0x0 DUP1 REVERT JUMPDEST DUP1 PUSH4 0x791F8B3 EQ PUSH2 0x263 JUMPI DUP1 PUSH4 0x167280FA EQ PUSH2 0x2B1 JUMPI DUP1 PUSH4 0x18265E08 EQ PUSH2 0x2C9 JUMPI DUP1 PUSH4 0x1DD0F31E EQ PUSH2 0x2EC JUMPI DUP1 PUSH4 0x22AD3EA1 EQ PUSH2 0x318 JUMPI JUMPDEST PUSH1 0x0 DUP1 REVERT JUMPDEST PUSH2 0x29C PUSH2 0x271 CALLDATASIZE PUSH1 0x4 PUSH2 0x1096 JUMP JUMPDEST PUSH1 0x1 PUSH1 0x1 PUSH1 0xA0 SHL SUB AND PUSH1 0x0 SWAP1 DUP2 MSTORE PUSH1 0x4 PUSH1 0x20 DUP2 DUP2 MSTORE PUSH1 0x40 DUP1 DUP5 KECCAK256 SWAP3 DUP5 MSTORE SWAP2 SWAP1 MSTORE SWAP1 KECCAK256 PUSH1 0x2 ADD SLOAD TIMESTAMP LT SWAP1 JUMP JUMPDEST PUSH1 0x40 MLOAD SWAP1 ISZERO ISZERO DUP2 MSTORE PUSH1 0x20 ADD JUMPDEST PUSH1 0x40 MLOAD DUP1 SWAP2 SUB SWAP1 RETURN JUMPDEST PUSH2 0x2BB PUSH3 0x15180 DUP2 JUMP JUMPDEST PUSH1 0x40 MLOAD SWAP1 DUP2 MSTORE PUSH1 0x20 ADD PUSH2 0x2A8 JUMP JUMPDEST PUSH2 0x29C PUSH2 0x2D7 CALLDATASIZE PUSH1 0x4 PUSH2 0x1096 JUMP JUMPDEST PUSH1 0x5 PUSH1 0x20 MSTORE PUSH1 0x0 SWAP1 DUP2 MSTORE PUSH1 0x40 SWAP1 KECCAK256 SLOAD PUSH1 0xFF AND DUP2 JUMP JUMPDEST PUSH2 0x2BB PUSH2 0x2FA CALLDATASIZE PUSH1 0x4 PUSH2 0x1096 JUMP JUMPDEST PUSH1 0x1 PUSH1 0x1 PUSH1 0xA0 SHL SUB AND PUSH1 0x0 SWAP1 DUP2 MSTORE PUSH1 0x4 PUSH1 0x20 MSTORE PUSH1 0x40 SWAP1 KECCAK256 PUSH1 0x1 ADD SLOAD SWAP1 JUMP JUMPDEST PUSH2 0x320 PUSH2 0x53D JUMP JUMPDEST STOP JUMPDEST PUSH2 0x2BB PUSH1 0xC SLOAD DUP2 JUMP JUMPDEST PUSH2 0x2BB PUSH1 0x7 SLOAD DUP2 JUMP JUMPDEST PUSH2 0x320 PUSH2 0x342 CALLDATASIZE PUSH1 0x4 PUSH2 0x10C6 JUMP JUMPDEST PUSH2 0x5CD JUMP JUMPDEST PUSH2 0x2BB PUSH1 0x8 SLOAD DUP2 JUMP JUMPDEST PUSH2 0x320 PUSH2 0x35E CALLDATASIZE PUSH1 0x4 PUSH2 0x10DF JUMP JUMPDEST PUSH2 0x64C JUMP JUMPDEST PUSH2 0x320 PUSH2 0x371 CALLDATASIZE PUSH1 0x4 PUSH2 0x1096 JUMP JUMPDEST PUSH2 0x72D JUMP JUMPDEST PUSH2 0x2BB PUSH2 0x384 CALLDATASIZE PUSH1 0x4 PUSH2 0x1096 JUMP JUMPDEST PUSH1 0x6 PUSH1 0x20 MSTORE PUSH1 0x0 SWAP1 DUP2 MSTORE PUSH1 0x40 SWAP1 KECCAK256 SLOAD DUP2 JUMP JUMPDEST PUSH2 0x2BB PUSH2 0x3A4 CALLDATASIZE PUSH1 0x4 PUSH2 0x1096 JUMP JUMPDEST PUSH2 0x757 JUMP JUMPDEST PUSH2 0x2BB PUSH1 0xA SLOAD DUP2 JUMP JUMPDEST PUSH2 0x320 PUSH2 0x3C0 CALLDATASIZE PUSH1 0x4 PUSH2 0x10DF JUMP JUMPDEST PUSH2 0x7BF JUMP JUMPDEST PUSH2 0x320 PUSH2 0x3D3 CALLDATASIZE PUSH1 0x4 PUSH2 0x10C6 JUMP JUMPDEST PUSH2 0x8D1 JUMP JUMPDEST PUSH2 0x320 PUSH2 0xA92 JUMP JUMPDEST PUSH2 0x2BB PUSH9 0x6C6B935B8BBD400000 DUP2 JUMP JUMPDEST PUSH2 0x320 PUSH2 0xB79 JUMP JUMPDEST PUSH2 0x2BB PUSH9 0x1B1AE4D6E2EF500000 DUP2 JUMP JUMPDEST PUSH2 0x2BB PUSH9 0x2B5E3AF16B1880000 DUP2 JUMP JUMPDEST PUSH2 0x2BB PUSH3 0x2A300 DUP2 JUMP JUMPDEST PUSH2 0x320 PUSH2 0xC5D JUMP JUMPDEST PUSH2 0x2BB PUSH9 0xAD78EBC5AC6200000 DUP2 JUMP JUMPDEST PUSH2 0x2BB PUSH9 0x821AB0D4414980000 DUP2 JUMP JUMPDEST PUSH2 0x2BB PUSH9 0xD8D726B7177A80000 DUP2 JUMP JUMPDEST PUSH2 0x2BB PUSH1 0x9 SLOAD DUP2 JUMP JUMPDEST PUSH2 0x2BB PUSH2 0x471 CALLDATASIZE PUSH1 0x4 PUSH2 0x1096 JUMP JUMPDEST PUSH2 0xC6F JUMP JUMPDEST PUSH2 0x2BB PUSH9 0x3635C9ADC5DEA00000 DUP2 JUMP JUMPDEST PUSH1 0x0 SLOAD PUSH1 0x1 PUSH1 0x1 PUSH1 0xA0 SHL SUB AND JUMPDEST PUSH1 0x40 MLOAD PUSH1 0x1 PUSH1 0x1 PUSH1 0xA0 SHL SUB SWAP1 SWAP2 AND DUP2 MSTORE PUSH1 0x20 ADD PUSH2 0x2A8 JUMP JUMPDEST PUSH2 0x2BB PUSH1 0xD SLOAD DUP2 JUMP JUMPDEST PUSH2 0x2BB PUSH1 0xB SLOAD DUP2 JUMP JUMPDEST PUSH2 0x2BB PUSH9 0x56BC75E2D63100000 DUP2 JUMP JUMPDEST PUSH2 0x29C PUSH2 0x4DB CALLDATASIZE PUSH1 0x4 PUSH2 0x1096 JUMP JUMPDEST PUSH2 0xCB3 JUMP JUMPDEST PUSH1 0x3 SLOAD PUSH2 0x493 SWAP1 PUSH1 0x1 PUSH1 0x1 PUSH1 0xA0 SHL SUB AND DUP2 JUMP JUMPDEST PUSH2 0x320 PUSH2 0xCF8 JUMP JUMPDEST PUSH2 0x320 PUSH2 0x509 CALLDATASIZE PUSH1 0x4 PUSH2 0x1096 JUMP JUMPDEST PUSH2 0xDE4 JUMP JUMPDEST PUSH2 0x320 PUSH2 0x51C CALLDATASIZE PUSH1 0x4 PUSH2 0x110B JUMP JUMPDEST PUSH2 0xE1F JUMP JUMPDEST PUSH1 0x2 SLOAD PUSH2 0x493 SWAP1 PUSH1 0x1 PUSH1 0x1 PUSH1 0xA0 SHL SUB AND DUP2 JUMP JUMPDEST PUSH2 0x2BB PUSH1 0xE SLOAD DUP2 JUMP JUMPDEST PUSH2 0x545 PUSH2 0xEA5 JUMP JUMPDEST PUSH2 0x558 CALLER PUSH9 0x6C6B935B8BBD400000 PUSH2 0xECF JUMP JUMPDEST CALLER PUSH1 0x0 SWAP1 DUP2 MSTORE PUSH1 0x4 PUSH1 0x20 MSTORE PUSH1 0x40 DUP2 KECCAK256 PUSH1 0x1 ADD DUP1 SLOAD SWAP2 PUSH2 0x576 DUP4 PUSH2 0x1159 JUMP JUMPDEST SWAP1 SWAP2 SSTORE POP POP CALLER PUSH1 0x0 DUP2 DUP2 MSTORE PUSH1 0x4 PUSH1 0x20 SWAP1 DUP2 MSTORE PUSH1 0x40 SWAP2 DUP3 SWAP1 KECCAK256 PUSH1 0x1 ADD SLOAD SWAP2 MLOAD SWAP2 DUP3 MSTORE PUSH32 0xA97775681DB71BD14C6BBAD8726C5ED1475C8B6E9E1AFABE27C001D217DDDD7C SWAP2 ADD PUSH1 0x40 MLOAD DUP1 SWAP2 SUB SWAP1 LOG2 PUSH2 0x5CB PUSH1 0x1 DUP1 SSTORE JUMP JUMPDEST JUMP JUMPDEST PUSH2 0x5D5 PUSH2 0xEA5 JUMP JUMPDEST PUSH2 0x5E8 CALLER PUSH9 0x2B5E3AF16B1880000 PUSH2 0xECF JUMP JUMPDEST CALLER PUSH1 0x0 SWAP1 DUP2 MSTORE PUSH1 0x4 PUSH1 0x20 MSTORE PUSH1 0x40 DUP2 KECCAK256 PUSH1 0x3 ADD DUP1 SLOAD SWAP2 PUSH2 0x606 DUP4 PUSH2 0x1159 JUMP JUMPDEST SWAP1 SWAP2 SSTORE POP POP PUSH1 0x40 MLOAD DUP2 DUP2 MSTORE CALLER SWAP1 PUSH32 0x913A79B17EEA7F58A029C56D7F76A12F0C4D875D08E132BDF36DFAF2074DF634 SWAP1 PUSH1 0x20 ADD PUSH1 0x40 MLOAD DUP1 SWAP2 SUB SWAP1 LOG2 PUSH2 0x649 PUSH1 0x1 DUP1 SSTORE JUMP JUMPDEST POP JUMP JUMPDEST PUSH2 0x654 PUSH2 0xEA5 JUMP JUMPDEST PUSH1 0x2 DUP3 GT ISZERO PUSH2 0x6A2 JUMPI PUSH1 0x40 MLOAD PUSH3 0x461BCD PUSH1 0xE5 SHL DUP2 MSTORE PUSH1 0x20 PUSH1 0x4 DUP3 ADD MSTORE PUSH1 0x15 PUSH1 0x24 DUP3 ADD MSTORE PUSH21 0x496E76616C6964207265736F757263652074797065 PUSH1 0x58 SHL PUSH1 0x44 DUP3 ADD MSTORE PUSH1 0x64 ADD JUMPDEST PUSH1 0x40 MLOAD DUP1 SWAP2 SUB SWAP1 REVERT JUMPDEST PUSH1 0x0 DUP2 GT PUSH2 0x6E9 JUMPI PUSH1 0x40 MLOAD PUSH3 0x461BCD PUSH1 0xE5 SHL DUP2 MSTORE PUSH1 0x20 PUSH1 0x4 DUP3 ADD MSTORE PUSH1 0x14 PUSH1 0x24 DUP3 ADD MSTORE PUSH20 0x5175616E74697479206D757374206265203E203 PUSH1 0x64 SHL PUSH1 0x44 DUP3 ADD MSTORE PUSH1 0x64 ADD PUSH2 0x699 JUMP JUMPDEST PUSH1 0x40 MLOAD DUP4 DUP2 MSTORE CALLER SWAP1 PUSH32 0xCDD4C59DE26B3F8623E6012AB9BC32A995EDA3452D89C941FC8AF6B74276AD38 SWAP1 PUSH1 0x20 ADD JUMPDEST PUSH1 0x40 MLOAD DUP1 SWAP2 SUB SWAP1 LOG2 PUSH2 0x728 PUSH1 0x1 DUP1 SSTORE JUMP JUMPDEST POP POP POP JUMP JUMPDEST PUSH2 0x735 PUSH2 0xF48 JUMP JUMPDEST PUSH1 0x3 DUP1 SLOAD PUSH1 0x1 PUSH1 0x1 PUSH1 0xA0 SHL SUB NOT AND PUSH1 0x1 PUSH1 0x1 PUSH1 0xA0 SHL SUB SWAP3 SWAP1 SWAP3 AND SWAP2 SWAP1 SWAP2 OR SWAP1 SSTORE JUMP JUMPDEST PUSH1 0x1 PUSH1 0x1 PUSH1 0xA0 SHL SUB DUP2 AND PUSH1 0x0 SWAP1 DUP2 MSTORE PUSH1 0x4 PUSH1 0x20 SWAP1 DUP2 MSTORE PUSH1 0x40 DUP1 DUP4 KECCAK256 PUSH1 0x1 DUP5 MSTORE SWAP1 SWAP2 MSTORE DUP1 DUP3 KECCAK256 PUSH1 0x2 DUP1 DUP5 MSTORE SWAP2 DUP4 KECCAK256 SWAP2 DUP3 ADD SLOAD SWAP1 SWAP2 SWAP1 TIMESTAMP LT ISZERO PUSH2 0x79D JUMPI PUSH1 0x3 ADD SLOAD SWAP4 SWAP3 POP POP POP JUMP JUMPDEST TIMESTAMP DUP3 PUSH1 0x2 ADD SLOAD GT ISZERO PUSH2 0x7B4 JUMPI POP PUSH1 0x3 ADD SLOAD SWAP3 SWAP2 POP POP JUMP JUMPDEST POP PUSH2 0x2710 SWAP4 SWAP3 POP POP POP JUMP JUMPDEST PUSH2 0x7C7 PUSH2 0xEA5 JUMP JUMPDEST PUSH2 0x7D1 CALLER DUP5 PUSH2 0xECF JUMP JUMPDEST PUSH1 0x2 DUP3 GT ISZERO PUSH2 0x81A JUMPI PUSH1 0x40 MLOAD PUSH3 0x461BCD PUSH1 0xE5 SHL DUP2 MSTORE PUSH1 0x20 PUSH1 0x4 DUP3 ADD MSTORE PUSH1 0x15 PUSH1 0x24 DUP3 ADD MSTORE PUSH21 0x496E76616C6964207265736F757263652074797065 PUSH1 0x58 SHL PUSH1 0x44 DUP3 ADD MSTORE PUSH1 0x64 ADD PUSH2 0x699 JUMP JUMPDEST PUSH1 0x0 DUP2 GT PUSH2 0x861 JUMPI PUSH1 0x40 MLOAD PUSH3 0x461BCD PUSH1 0xE5 SHL DUP2 MSTORE PUSH1 0x20 PUSH1 0x4 DUP3 ADD MSTORE PUSH1 0x14 PUSH1 0x24 DUP3 ADD MSTORE PUSH20 0x5175616E74697479206D757374206265203E203 PUSH1 0x64 SHL PUSH1 0x44 DUP3 ADD MSTORE PUSH1 0x64 ADD PUSH2 0x699 JUMP JUMPDEST DUP3 PUSH1 0xE PUSH1 0x0 DUP3 DUP3 SLOAD PUSH2 0x873 SWAP2 SWAP1 PUSH2 0x1172 JUMP JUMPDEST SWAP1 SWAP2 SSTORE POP POP PUSH1 0x40 MLOAD CALLER SWAP1 PUSH32 0xE2F1466CF34D5087D844A6EB41230BF6BF197577CA83E45F73DC4BDBA615BF2A SWAP1 PUSH2 0x717 SWAP1 DUP7 DUP2 MSTORE PUSH1 0x40 PUSH1 0x20 DUP3 ADD DUP2 SWAP1 MSTORE PUSH1 0xD SWAP1 DUP3 ADD MSTORE PUSH13 0x427579207265736F7572636573 PUSH1 0x98 SHL PUSH1 0x60 DUP3 ADD MSTORE PUSH1 0x80 ADD SWAP1 JUMP JUMPDEST PUSH2 0x8D9 PUSH2 0xEA5 JUMP JUMPDEST DUP1 PUSH1 0x19 EQ DUP1 PUSH2 0x8E8 JUMPI POP DUP1 PUSH1 0x32 EQ JUMPDEST PUSH2 0x924 JUMPI PUSH1 0x40 MLOAD PUSH3 0x461BCD PUSH1 0xE5 SHL DUP2 MSTORE PUSH1 0x20 PUSH1 0x4 DUP3 ADD MSTORE PUSH1 0xD PUSH1 0x24 DUP3 ADD MSTORE PUSH13 0x125B9D985B1A59081B195D995B PUSH1 0x9A SHL PUSH1 0x44 DUP3 ADD MSTORE PUSH1 0x64 ADD PUSH2 0x699 JUMP JUMPDEST PUSH1 0x0 DUP2 PUSH1 0x19 EQ PUSH2 0x935 JUMPI PUSH1 0x2 PUSH2 0x938 JUMP JUMPDEST PUSH1 0x1 JUMPDEST SWAP1 POP PUSH1 0x0 DUP3 PUSH1 0x19 EQ PUSH2 0x953 JUMPI PUSH9 0xD8D726B7177A80000 PUSH2 0x95E JUMP JUMPDEST PUSH9 0x56BC75E2D63100000 JUMPDEST SWAP1 POP PUSH2 0x96A CALLER DUP3 PUSH2 0xECF JUMP JUMPDEST PUSH1 0x0 PUSH2 0x979 PUSH3 0x15180 TIMESTAMP PUSH2 0x1172 JUMP JUMPDEST SWAP1 POP PUSH1 0x40 MLOAD DUP1 PUSH1 0x80 ADD PUSH1 0x40 MSTORE DUP1 DUP5 PUSH1 0x4 DUP2 GT ISZERO PUSH2 0x998 JUMPI PUSH2 0x998 PUSH2 0x112D JUMP JUMPDEST DUP2 MSTORE PUSH1 0x20 ADD TIMESTAMP DUP2 MSTORE PUSH1 0x20 ADD DUP3 DUP2 MSTORE PUSH1 0x20 ADD DUP6 PUSH1 0x19 EQ PUSH2 0x9B9 JUMPI PUSH2 0x3A98 PUSH2 0x9BD JUMP JUMPDEST PUSH2 0x30D4 JUMPDEST PUSH2 0xFFFF AND SWAP1 MSTORE CALLER PUSH1 0x0 SWAP1 DUP2 MSTORE PUSH1 0x4 PUSH1 0x20 DUP2 SWAP1 MSTORE PUSH1 0x40 DUP3 KECCAK256 SWAP2 SWAP1 DUP7 SWAP1 DUP2 GT ISZERO PUSH2 0x9E7 JUMPI PUSH2 0x9E7 PUSH2 0x112D JUMP JUMPDEST PUSH1 0x4 DUP2 GT ISZERO PUSH2 0x9F8 JUMPI PUSH2 0x9F8 PUSH2 0x112D JUMP JUMPDEST DUP2 MSTORE PUSH1 0x20 DUP2 ADD SWAP2 SWAP1 SWAP2 MSTORE PUSH1 0x40 ADD PUSH1 0x0 KECCAK256 DUP2 MLOAD DUP2 SLOAD DUP3 SWAP1 PUSH1 0xFF NOT AND PUSH1 0x1 DUP4 PUSH1 0x4 DUP2 GT ISZERO PUSH2 0xA26 JUMPI PUSH2 0xA26 PUSH2 0x112D JUMP JUMPDEST MUL OR SWAP1 SSTORE POP PUSH1 0x20 DUP3 ADD MLOAD PUSH1 0x1 DUP3 ADD SSTORE PUSH1 0x40 DUP1 DUP4 ADD MLOAD PUSH1 0x2 DUP4 ADD SSTORE PUSH1 0x60 SWAP1 SWAP3 ADD MLOAD PUSH1 0x3 SWAP1 SWAP2 ADD SSTORE MLOAD CALLER SWAP1 PUSH32 0xC46F4259F073F7993C078B946B1B8E16F428B1B02940277D10D1E6FC4AD46EBE SWAP1 PUSH2 0xA7E SWAP1 DUP7 SWAP1 DUP6 SWAP1 PUSH2 0x1185 JUMP JUMPDEST PUSH1 0x40 MLOAD DUP1 SWAP2 SUB SWAP1 LOG2 POP POP POP PUSH2 0x649 PUSH1 0x1 DUP1 SSTORE JUMP JUMPDEST PUSH2 0xA9A PUSH2 0xEA5 JUMP JUMPDEST PUSH2 0xAA3 CALLER PUSH2 0xCB3 JUMP JUMPDEST ISZERO PUSH2 0xAE8 JUMPI PUSH1 0x40 MLOAD PUSH3 0x461BCD PUSH1 0xE5 SHL DUP2 MSTORE PUSH1 0x20 PUSH1 0x4 DUP3 ADD MSTORE PUSH1 0x15 PUSH1 0x24 DUP3 ADD MSTORE PUSH21 0x536869656C6420616C726561647920616374697665 PUSH1 0x58 SHL PUSH1 0x44 DUP3 ADD MSTORE PUSH1 0x64 ADD PUSH2 0x699 JUMP JUMPDEST PUSH2 0xAFB CALLER PUSH9 0x3635C9ADC5DEA00000 PUSH2 0xECF JUMP JUMPDEST PUSH1 0x0 PUSH2 0xB0A PUSH3 0x2A300 TIMESTAMP PUSH2 0x1172 JUMP JUMPDEST CALLER PUSH1 0x0 DUP2 DUP2 MSTORE PUSH1 0x5 PUSH1 0x20 SWAP1 DUP2 MSTORE PUSH1 0x40 DUP1 DUP4 KECCAK256 DUP1 SLOAD PUSH1 0xFF NOT AND PUSH1 0x1 OR SWAP1 SSTORE PUSH1 0x6 SWAP1 SWAP2 MSTORE SWAP1 DUP2 SWAP1 KECCAK256 DUP4 SWAP1 SSTORE MLOAD SWAP2 SWAP3 POP SWAP1 PUSH32 0xAF1157BE12F167926726E9E6179192C28A7EFE7892B3D367C093D5DBCB47FE01 SWAP1 PUSH2 0xB67 SWAP1 DUP5 DUP2 MSTORE PUSH1 0x20 ADD SWAP1 JUMP JUMPDEST PUSH1 0x40 MLOAD DUP1 SWAP2 SUB SWAP1 LOG2 POP PUSH2 0x5CB PUSH1 0x1 DUP1 SSTORE JUMP JUMPDEST PUSH2 0xB81 PUSH2 0xEA5 JUMP JUMPDEST PUSH2 0xB94 CALLER PUSH9 0x821AB0D4414980000 PUSH2 0xECF JUMP JUMPDEST PUSH1 0x0 PUSH2 0xBA3 PUSH3 0x15180 TIMESTAMP PUSH2 0x1172 JUMP JUMPDEST PUSH1 0x40 DUP1 MLOAD PUSH1 0x80 DUP2 ADD DUP3 MSTORE PUSH1 0x4 DUP1 DUP3 MSTORE TIMESTAMP PUSH1 0x20 DUP1 DUP5 ADD SWAP2 SWAP1 SWAP2 MSTORE DUP3 DUP5 ADD DUP6 SWAP1 MSTORE PUSH1 0x0 PUSH1 0x60 DUP5 ADD DUP2 SWAP1 MSTORE CALLER DUP2 MSTORE DUP3 DUP3 MSTORE DUP5 DUP2 KECCAK256 DUP4 DUP3 MSTORE SWAP1 SWAP2 MSTORE SWAP3 SWAP1 SWAP3 KECCAK256 DUP2 MLOAD DUP2 SLOAD SWAP5 SWAP6 POP SWAP2 SWAP4 SWAP1 SWAP3 DUP4 SWAP2 PUSH1 0xFF NOT AND SWAP1 PUSH1 0x1 SWAP1 DUP5 SWAP1 DUP2 GT ISZERO PUSH2 0xC04 JUMPI PUSH2 0xC04 PUSH2 0x112D JUMP JUMPDEST MUL OR SWAP1 SSTORE POP PUSH1 0x20 DUP3 ADD MLOAD PUSH1 0x1 DUP3 ADD SSTORE PUSH1 0x40 DUP1 DUP4 ADD MLOAD PUSH1 0x2 DUP4 ADD SSTORE PUSH1 0x60 SWAP1 SWAP3 ADD MLOAD PUSH1 0x3 SWAP1 SWAP2 ADD SSTORE MLOAD CALLER SWAP1 PUSH32 0xC46F4259F073F7993C078B946B1B8E16F428B1B02940277D10D1E6FC4AD46EBE SWAP1 PUSH2 0xB67 SWAP1 PUSH1 0x4 SWAP1 DUP6 SWAP1 PUSH2 0x1185 JUMP JUMPDEST PUSH2 0xC65 PUSH2 0xF48 JUMP JUMPDEST PUSH2 0x5CB PUSH1 0x0 PUSH2 0xF75 JUMP JUMPDEST PUSH1 0x1 PUSH1 0x1 PUSH1 0xA0 SHL SUB DUP2 AND PUSH1 0x0 SWAP1 DUP2 MSTORE PUSH1 0x4 PUSH1 0x20 SWAP1 DUP2 MSTORE PUSH1 0x40 DUP1 DUP4 KECCAK256 PUSH1 0x3 DUP5 MSTORE SWAP1 SWAP2 MSTORE DUP2 KECCAK256 PUSH1 0x2 DUP2 ADD SLOAD TIMESTAMP LT ISZERO PUSH2 0xCA9 JUMPI PUSH1 0x3 ADD SLOAD SWAP3 SWAP2 POP POP JUMP JUMPDEST POP PUSH2 0x2710 SWAP3 SWAP2 POP POP JUMP JUMPDEST PUSH1 0x1 PUSH1 0x1 PUSH1 0xA0 SHL SUB DUP2 AND PUSH1 0x0 SWAP1 DUP2 MSTORE PUSH1 0x5 PUSH1 0x20 MSTORE PUSH1 0x40 DUP2 KECCAK256 SLOAD PUSH1 0xFF AND DUP1 ISZERO PUSH2 0xCF2 JUMPI POP PUSH1 0x1 PUSH1 0x1 PUSH1 0xA0 SHL SUB DUP3 AND PUSH1 0x0 SWAP1 DUP2 MSTORE PUSH1 0x6 PUSH1 0x20 MSTORE PUSH1 0x40 SWAP1 KECCAK256 SLOAD TIMESTAMP LT JUMPDEST SWAP3 SWAP2 POP POP JUMP JUMPDEST PUSH2 0xD00 PUSH2 0xEA5 JUMP JUMPDEST PUSH2 0xD13 CALLER PUSH9 0xAD78EBC5AC6200000 PUSH2 0xECF JUMP JUMPDEST PUSH1 0x0 PUSH2 0xD22 PUSH3 0x15180 TIMESTAMP PUSH2 0x1172 JUMP JUMPDEST PUSH1 0x40 DUP1 MLOAD PUSH1 0x80 DUP2 ADD DUP3 MSTORE PUSH1 0x3 DUP1 DUP3 MSTORE TIMESTAMP PUSH1 0x20 DUP1 DUP5 ADD SWAP2 SWAP1 SWAP2 MSTORE DUP3 DUP5 ADD DUP6 SWAP1 MSTORE PUSH2 0x3A98 PUSH1 0x60 DUP5 ADD MSTORE CALLER PUSH1 0x0 SWAP1 DUP2 MSTORE PUSH1 0x4 SWAP1 SWAP2 MSTORE SWAP3 DUP4 KECCAK256 SWAP4 SWAP5 POP SWAP1 SWAP3 SWAP2 SWAP1 DUP2 MSTORE PUSH1 0x20 DUP2 ADD SWAP2 SWAP1 SWAP2 MSTORE PUSH1 0x40 ADD PUSH1 0x0 KECCAK256 DUP2 MLOAD DUP2 SLOAD DUP3 SWAP1 PUSH1 0xFF NOT AND PUSH1 0x1 DUP4 PUSH1 0x4 DUP2 GT ISZERO PUSH2 0xD8C JUMPI PUSH2 0xD8C PUSH2 0x112D JUMP JUMPDEST MUL OR SWAP1 SSTORE POP PUSH1 0x20 DUP3 ADD MLOAD PUSH1 0x1 DUP3 ADD SSTORE PUSH1 0x40 DUP1 DUP4 ADD MLOAD PUSH1 0x2 DUP4 ADD SSTORE PUSH1 0x60 SWAP1 SWAP3 ADD MLOAD PUSH1 0x3 SWAP2 DUP3 ADD SSTORE SWAP1 MLOAD CALLER SWAP2 PUSH32 0xC46F4259F073F7993C078B946B1B8E16F428B1B02940277D10D1E6FC4AD46EBE SWAP2 PUSH2 0xB67 SWAP2 SWAP1 DUP6 SWAP1 PUSH2 0x1185 JUMP JUMPDEST PUSH2 0xDEC PUSH2 0xF48 JUMP JUMPDEST PUSH1 0x1 PUSH1 0x1 PUSH1 0xA0 SHL SUB DUP2 AND PUSH2 0xE16 JUMPI PUSH1 0x40 MLOAD PUSH4 0x1E4FBDF7 PUSH1 0xE0 SHL DUP2 MSTORE PUSH1 0x0 PUSH1 0x4 DUP3 ADD MSTORE PUSH1 0x24 ADD PUSH2 0x699 JUMP JUMPDEST PUSH2 0x649 DUP2 PUSH2 0xF75 JUMP JUMPDEST PUSH2 0xE27 PUSH2 0xEA5 JUMP JUMPDEST PUSH2 0xE3A CALLER PUSH9 0x1B1AE4D6E2EF500000 PUSH2 0xECF JUMP JUMPDEST CALLER PUSH1 0x0 SWAP1 DUP2 MSTORE PUSH1 0x4 PUSH1 0x20 MSTORE PUSH1 0x40 DUP2 KECCAK256 PUSH1 0x2 ADD DUP1 SLOAD SWAP2 PUSH2 0xE58 DUP4 PUSH2 0x1159 JUMP JUMPDEST SWAP1 SWAP2 SSTORE POP POP PUSH1 0x40 DUP1 MLOAD DUP4 DUP2 MSTORE PUSH1 0x20 DUP2 ADD DUP4 SWAP1 MSTORE CALLER SWAP2 PUSH32 0x2B6CF4C9F1FB25EEC2BE894E99D6AAD17C42BF7E515D389B0426766030B9DBEB SWAP2 ADD PUSH1 0x40 MLOAD DUP1 SWAP2 SUB SWAP1 LOG2 PUSH2 0xEA1 PUSH1 0x1 DUP1 SSTORE JUMP JUMPDEST POP POP JUMP JUMPDEST PUSH1 0x2 PUSH1 0x1 SLOAD SUB PUSH2 0xEC8 JUMPI PUSH1 0x40 MLOAD PUSH4 0x3EE5AEB5 PUSH1 0xE0 SHL DUP2 MSTORE PUSH1 0x4 ADD PUSH1 0x40 MLOAD DUP1 SWAP2 SUB SWAP1 REVERT JUMPDEST PUSH1 0x2 PUSH1 0x1 SSTORE JUMP JUMPDEST PUSH1 0x2 SLOAD PUSH2 0xEE7 SWAP1 PUSH1 0x1 PUSH1 0x1 PUSH1 0xA0 SHL SUB AND DUP4 ADDRESS DUP5 PUSH2 0xFC5 JUMP JUMPDEST DUP1 PUSH1 0x7 PUSH1 0x0 DUP3 DUP3 SLOAD PUSH2 0xEF9 SWAP2 SWAP1 PUSH2 0x1172 JUMP JUMPDEST SWAP3 POP POP DUP2 SWAP1 SSTORE POP DUP2 PUSH1 0x1 PUSH1 0x1 PUSH1 0xA0 SHL SUB AND PUSH32 0x60526768E64FA67A38E9B155B9154848038BC483D7198FF3ACC14193FD42D547 PUSH1 0x0 DUP4 PUSH1 0x40 MLOAD PUSH2 0xF3C SWAP3 SWAP2 SWAP1 PUSH2 0x1185 JUMP JUMPDEST PUSH1 0x40 MLOAD DUP1 SWAP2 SUB SWAP1 LOG2 POP POP JUMP JUMPDEST PUSH1 0x0 SLOAD PUSH1 0x1 PUSH1 0x1 PUSH1 0xA0 SHL SUB AND CALLER EQ PUSH2 0x5CB JUMPI PUSH1 0x40 MLOAD PUSH4 0x118CDAA7 PUSH1 0xE0 SHL DUP2 MSTORE CALLER PUSH1 0x4 DUP3 ADD MSTORE PUSH1 0x24 ADD PUSH2 0x699 JUMP JUMPDEST PUSH1 0x0 DUP1 SLOAD PUSH1 0x1 PUSH1 0x1 PUSH1 0xA0 SHL SUB DUP4 DUP2 AND PUSH1 0x1 PUSH1 0x1 PUSH1 0xA0 SHL SUB NOT DUP4 AND DUP2 OR DUP5 SSTORE PUSH1 0x40 MLOAD SWAP2 SWAP1 SWAP3 AND SWAP3 DUP4 SWAP2 PUSH32 0x8BE0079C531659141344CD1FD0A4F28419497F9722A3DAAFE3B4186F6B6457E0 SWAP2 SWAP1 LOG3 POP POP JUMP JUMPDEST PUSH1 0x40 DUP1 MLOAD PUSH1 0x1 PUSH1 0x1 PUSH1 0xA0 SHL SUB DUP6 DUP2 AND PUSH1 0x24 DUP4 ADD MSTORE DUP5 AND PUSH1 0x44 DUP3 ADD MSTORE PUSH1 0x64 DUP1 DUP3 ADD DUP5 SWAP1 MSTORE DUP3 MLOAD DUP1 DUP4 SUB SWAP1 SWAP2 ADD DUP2 MSTORE PUSH1 0x84 SWAP1 SWAP2 ADD SWAP1 SWAP2 MSTORE PUSH1 0x20 DUP2 ADD DUP1 MLOAD PUSH1 0x1 PUSH1 0x1 PUSH1 0xE0 SHL SUB AND PUSH4 0x23B872DD PUSH1 0xE0 SHL OR SWAP1 MSTORE PUSH2 0x101F SWAP1 DUP6 SWAP1 PUSH2 0x1025 JUMP JUMPDEST POP POP POP POP JUMP JUMPDEST PUSH1 0x0 DUP1 PUSH1 0x20 PUSH1 0x0 DUP5 MLOAD PUSH1 0x20 DUP7 ADD PUSH1 0x0 DUP9 GAS CALL DUP1 PUSH2 0x1048 JUMPI PUSH1 0x40 MLOAD RETURNDATASIZE PUSH1 0x0 DUP3 RETURNDATACOPY RETURNDATASIZE DUP2 REVERT JUMPDEST POP POP PUSH1 0x0 MLOAD RETURNDATASIZE SWAP2 POP DUP2 ISZERO PUSH2 0x1060 JUMPI DUP1 PUSH1 0x1 EQ ISZERO PUSH2 0x106D JUMP JUMPDEST PUSH1 0x1 PUSH1 0x1 PUSH1 0xA0 SHL SUB DUP5 AND EXTCODESIZE ISZERO JUMPDEST ISZERO PUSH2 0x101F JUMPI PUSH1 0x40 MLOAD PUSH4 0x5274AFE7 PUSH1 0xE0 SHL DUP2 MSTORE PUSH1 0x1 PUSH1 0x1 PUSH1 0xA0 SHL SUB DUP6 AND PUSH1 0x4 DUP3 ADD MSTORE PUSH1 0x24 ADD PUSH2 0x699 JUMP JUMPDEST PUSH1 0x0 PUSH1 0x20 DUP3 DUP5 SUB SLT ISZERO PUSH2 0x10A8 JUMPI PUSH1 0x0 DUP1 REVERT JUMPDEST DUP2 CALLDATALOAD PUSH1 0x1 PUSH1 0x1 PUSH1 0xA0 SHL SUB DUP2 AND DUP2 EQ PUSH2 0x10BF JUMPI PUSH1 0x0 DUP1 REVERT JUMPDEST SWAP4 SWAP3 POP POP POP JUMP JUMPDEST PUSH1 0x0 PUSH1 0x20 DUP3 DUP5 SUB SLT ISZERO PUSH2 0x10D8 JUMPI PUSH1 0x0 DUP1 REVERT JUMPDEST POP CALLDATALOAD SWAP2 SWAP1 POP JUMP JUMPDEST PUSH1 0x0 DUP1 PUSH1 0x0 PUSH1 0x60 DUP5 DUP7 SUB SLT ISZERO PUSH2 0x10F4 JUMPI PUSH1 0x0 DUP1 REVERT JUMPDEST POP POP DUP2 CALLDATALOAD SWAP4 PUSH1 0x20 DUP4 ADD CALLDATALOAD SWAP4 POP PUSH1 0x40 SWAP1 SWAP3 ADD CALLDATALOAD SWAP2 SWAP1 POP JUMP JUMPDEST PUSH1 0x0 DUP1 PUSH1 0x40 DUP4 DUP6 SUB SLT ISZERO PUSH2 0x111E JUMPI PUSH1 0x0 DUP1 REVERT JUMPDEST POP POP DUP1 CALLDATALOAD SWAP3 PUSH1 0x20 SWAP1 SWAP2 ADD CALLDATALOAD SWAP2 POP JUMP JUMPDEST PUSH4 0x4E487B71 PUSH1 0xE0 SHL PUSH1 0x0 MSTORE PUSH1 0x21 PUSH1 0x4 MSTORE PUSH1 0x24 PUSH1 0x0 REVERT JUMPDEST PUSH4 0x4E487B71 PUSH1 0xE0 SHL PUSH1 0x0 MSTORE PUSH1 0x11 PUSH1 0x4 MSTORE PUSH1 0x24 PUSH1 0x0 REVERT JUMPDEST PUSH1 0x0 PUSH1 0x1 DUP3 ADD PUSH2 0x116B JUMPI PUSH2 0x116B PUSH2 0x1143 JUMP JUMPDEST POP PUSH1 0x1 ADD SWAP1 JUMP JUMPDEST DUP1 DUP3 ADD DUP1 DUP3 GT ISZERO PUSH2 0xCF2 JUMPI PUSH2 0xCF2 PUSH2 0x1143 JUMP JUMPDEST PUSH1 0x40 DUP2 ADD PUSH1 0x5 DUP5 LT PUSH2 0x11A7 JUMPI PUSH4 0x4E487B71 PUSH1 0xE0 SHL PUSH1 0x0 MSTORE PUSH1 0x21 PUSH1 0x4 MSTORE PUSH1 0x24 PUSH1 0x0 REVERT JUMPDEST SWAP3 DUP2 MSTORE PUSH1 0x20 ADD MSTORE SWAP1 JUMP INVALID LOG2 PUSH5 0x6970667358 0x22 SLT KECCAK256 PUSH10 0x2EBFC243EDA1968ED2DA RETURNDATACOPY INVALID CREATE2 0xAF PUSH2 0xA7F2 SWAP1 0x4F 0xAA EQ CODESIZE RETURNDATASIZE 0xE 0x21 PUSH23 0x1DAE145D0E64736F6C6343000814003300000000000000 "},"methodIdentifiers":{"ACCELERATOR_25_COST()":"ba01be59","ACCELERATOR_50_COST()":"7920bb39","ACCELERATOR_DURATION()":"167280fa","COLONY_PERMIT_COST()":"57d1cb6e","EMERGENCY_RECALL_COST()":"60a44161","INSTANT_BUILD_COST()":"5aaa7dff","STEALTH_MODE_COST()":"74ea739e","STEALTH_MODE_DURATION()":"d37b2ff9","VOID_SHIELD_COST()":"823d6937","VOID_SHIELD_DURATION()":"700dab7f","YIELD_AMPLIFIER_COST()":"72b9b71d","YIELD_AMPLIFIER_DURATION()":"ec9a1d51","activateAccelerator(uint256)":"4cb8efd4","activateStealthMode()":"596dfe74","activateVoidShield()":"533f90a1","activateYieldAmplifier()":"eacf9751","buyResources(uint256,uint256,uint256)":"47d3b956","gameContract()":"d3f33009","getAcceleratorMultiplier(address)":"46355d6c","getExtraColonySlots(address)":"1dd0f31e","getYieldMultiplier(address)":"7f600bf8","hasVoidShield(address)":"18265e08","isShieldActive(address)":"c3df9ba3","isStealthActive(address)":"0791f8b3","owner()":"8da5cb5b","purchaseColonyPermit()":"22ad3ea1","renounceOwnership()":"715018a6","sellResources(uint256,uint256,uint256)":"40205762","setGameContract(address)":"405ebd4d","totalSpentOnAccelerators()":"2e0036f2","totalSpentOnColonyPermit()":"8fb8a532","totalSpentOnEmergencyRecall()":"22cd39ad","totalSpentOnInstantBuild()":"46648b56","totalSpentOnResources()":"fd22ef67","totalSpentOnStealthMode()":"91618664","totalSpentOnVoidShield()":"260f8844","totalSpentOnYieldAmplifier()":"7d56b1fb","transferOwnership(address)":"f2fde38b","useEmergencyRecall(uint256)":"2aab971f","useInstantBuild(uint256,uint256)":"f3f8e2aa","voidShieldExpiry(address)":"42d4fa5c","voidToken()":"f80b3dd0"}}}}}