{
  "_format": "hh-sol-artifact-1",
  "contractName": "VoidGame",
  "sourceName": "contracts/VoidGame.sol",
  "abi": [
    {
      "inputs": [
        {
          "internalType": "address",
          "name": "_voidToken",
          "type": "address"
        }
      ],
      "stateMutability": "nonpayable",
      "type": "constructor"
    },
    {
      "inputs": [
        {
          "internalType": "address",
          "name": "owner",
          "type": "address"
        }
      ],
      "name": "OwnableInvalidOwner",
      "type": "error"
    },
    {
      "inputs": [
        {
          "internalType": "address",
          "name": "account",
          "type": "address"
        }
      ],
      "name": "OwnableUnauthorizedAccount",
      "type": "error"
    },
    {
      "inputs": [],
      "name": "ReentrancyGuardReentrantCall",
      "type": "error"
    },
    {
      "anonymous": false,
      "inputs": [
        {
          "indexed": true,
          "internalType": "address",
          "name": "player",
          "type": "address"
        },
        {
          "indexed": true,
          "internalType": "uint256",
          "name": "colonyId",
          "type": "uint256"
        },
        {
          "indexed": false,
          "internalType": "uint256",
          "name": "galaxy",
          "type": "uint256"
        },
        {
          "indexed": false,
          "internalType": "uint256",
          "name": "system",
          "type": "uint256"
        },
        {
          "indexed": false,
          "internalType": "uint256",
          "name": "position",
          "type": "uint256"
        }
      ],
      "name": "ColonyCreated",
      "type": "event"
    },
    {
      "anonymous": false,
      "inputs": [
        {
          "indexed": true,
          "internalType": "uint256",
          "name": "fleetId",
          "type": "uint256"
        },
        {
          "indexed": true,
          "internalType": "uint256",
          "name": "targetColonyId",
          "type": "uint256"
        },
        {
          "indexed": false,
          "internalType": "bool",
          "name": "attackerWon",
          "type": "bool"
        }
      ],
      "name": "CombatResolved",
      "type": "event"
    },
    {
      "anonymous": false,
      "inputs": [
        {
          "indexed": true,
          "internalType": "uint256",
          "name": "colonyId",
          "type": "uint256"
        },
        {
          "indexed": false,
          "internalType": "enum VoidGame.FacilityType",
          "name": "facilityType",
          "type": "uint8"
        },
        {
          "indexed": false,
          "internalType": "uint256",
          "name": "level",
          "type": "uint256"
        }
      ],
      "name": "FacilityUpgradeCompleted",
      "type": "event"
    },
    {
      "anonymous": false,
      "inputs": [
        {
          "indexed": true,
          "internalType": "uint256",
          "name": "colonyId",
          "type": "uint256"
        },
        {
          "indexed": false,
          "internalType": "enum VoidGame.FacilityType",
          "name": "facilityType",
          "type": "uint8"
        },
        {
          "indexed": false,
          "internalType": "uint256",
          "name": "newLevel",
          "type": "uint256"
        },
        {
          "indexed": false,
          "internalType": "uint256",
          "name": "completionTime",
          "type": "uint256"
        }
      ],
      "name": "FacilityUpgradeStarted",
      "type": "event"
    },
    {
      "anonymous": false,
      "inputs": [
        {
          "indexed": true,
          "internalType": "uint256",
          "name": "fleetId",
          "type": "uint256"
        },
        {
          "indexed": true,
          "internalType": "address",
          "name": "owner",
          "type": "address"
        },
        {
          "indexed": false,
          "internalType": "uint256",
          "name": "originId",
          "type": "uint256"
        },
        {
          "indexed": false,
          "internalType": "uint256",
          "name": "targetId",
          "type": "uint256"
        },
        {
          "indexed": false,
          "internalType": "uint256",
          "name": "arrivalTime",
          "type": "uint256"
        }
      ],
      "name": "FleetDispatched",
      "type": "event"
    },
    {
      "anonymous": false,
      "inputs": [
        {
          "indexed": true,
          "internalType": "address",
          "name": "previousOwner",
          "type": "address"
        },
        {
          "indexed": true,
          "internalType": "address",
          "name": "newOwner",
          "type": "address"
        }
      ],
      "name": "OwnershipTransferred",
      "type": "event"
    },
    {
      "anonymous": false,
      "inputs": [
        {
          "indexed": true,
          "internalType": "address",
          "name": "player",
          "type": "address"
        },
        {
          "indexed": false,
          "internalType": "uint256",
          "name": "timestamp",
          "type": "uint256"
        }
      ],
      "name": "PlayerRegistered",
      "type": "event"
    },
    {
      "anonymous": false,
      "inputs": [
        {
          "indexed": true,
          "internalType": "address",
          "name": "player",
          "type": "address"
        },
        {
          "indexed": false,
          "internalType": "enum VoidGame.ResearchType",
          "name": "researchType",
          "type": "uint8"
        },
        {
          "indexed": false,
          "internalType": "uint256",
          "name": "level",
          "type": "uint256"
        }
      ],
      "name": "ResearchCompleted",
      "type": "event"
    },
    {
      "anonymous": false,
      "inputs": [
        {
          "indexed": true,
          "internalType": "address",
          "name": "player",
          "type": "address"
        },
        {
          "indexed": false,
          "internalType": "enum VoidGame.ResearchType",
          "name": "researchType",
          "type": "uint8"
        },
        {
          "indexed": false,
          "internalType": "uint256",
          "name": "level",
          "type": "uint256"
        },
        {
          "indexed": false,
          "internalType": "uint256",
          "name": "completionTime",
          "type": "uint256"
        }
      ],
      "name": "ResearchStarted",
      "type": "event"
    },
    {
      "anonymous": false,
      "inputs": [
        {
          "indexed": true,
          "internalType": "uint256",
          "name": "colonyId",
          "type": "uint256"
        },
        {
          "indexed": false,
          "internalType": "uint256",
          "name": "ore",
          "type": "uint256"
        },
        {
          "indexed": false,
          "internalType": "uint256",
          "name": "crystal",
          "type": "uint256"
        },
        {
          "indexed": false,
          "internalType": "uint256",
          "name": "plasma",
          "type": "uint256"
        }
      ],
      "name": "ResourcesUpdated",
      "type": "event"
    },
    {
      "anonymous": false,
      "inputs": [
        {
          "indexed": true,
          "internalType": "uint256",
          "name": "colonyId",
          "type": "uint256"
        },
        {
          "indexed": false,
          "internalType": "enum VoidGame.VesselType",
          "name": "vesselType",
          "type": "uint8"
        },
        {
          "indexed": false,
          "internalType": "uint256",
          "name": "quantity",
          "type": "uint256"
        }
      ],
      "name": "VesselBuilt",
      "type": "event"
    },
    {
      "inputs": [],
      "name": "GAME_TICK_INTERVAL",
      "outputs": [
        {
          "internalType": "uint256",
          "name": "",
          "type": "uint256"
        }
      ],
      "stateMutability": "view",
      "type": "function"
    },
    {
      "inputs": [],
      "name": "MAX_COLONIES_BASE",
      "outputs": [
        {
          "internalType": "uint256",
          "name": "",
          "type": "uint256"
        }
      ],
      "stateMutability": "view",
      "type": "function"
    },
    {
      "inputs": [],
      "name": "MAX_FACILITIES",
      "outputs": [
        {
          "internalType": "uint256",
          "name": "",
          "type": "uint256"
        }
      ],
      "stateMutability": "view",
      "type": "function"
    },
    {
      "inputs": [],
      "name": "MAX_FACILITY_LEVEL",
      "outputs": [
        {
          "internalType": "uint256",
          "name": "",
          "type": "uint256"
        }
      ],
      "stateMutability": "view",
      "type": "function"
    },
    {
      "inputs": [
        {
          "internalType": "address",
          "name": "",
          "type": "address"
        }
      ],
      "name": "activeResearch",
      "outputs": [
        {
          "internalType": "enum VoidGame.ResearchType",
          "name": "researchType",
          "type": "uint8"
        },
        {
          "internalType": "uint256",
          "name": "level",
          "type": "uint256"
        },
        {
          "internalType": "uint256",
          "name": "startTime",
          "type": "uint256"
        },
        {
          "internalType": "uint256",
          "name": "endTime",
          "type": "uint256"
        }
      ],
      "stateMutability": "view",
      "type": "function"
    },
    {
      "inputs": [],
      "name": "boostsContract",
      "outputs": [
        {
          "internalType": "address",
          "name": "",
          "type": "address"
        }
      ],
      "stateMutability": "view",
      "type": "function"
    },
    {
      "inputs": [
        {
          "internalType": "uint256",
          "name": "",
          "type": "uint256"
        }
      ],
      "name": "colonies",
      "outputs": [
        {
          "internalType": "uint256",
          "name": "id",
          "type": "uint256"
        },
        {
          "internalType": "address",
          "name": "owner",
          "type": "address"
        },
        {
          "internalType": "string",
          "name": "name",
          "type": "string"
        },
        {
          "internalType": "uint256",
          "name": "galaxy",
          "type": "uint256"
        },
        {
          "internalType": "uint256",
          "name": "system",
          "type": "uint256"
        },
        {
          "internalType": "uint256",
          "name": "position",
          "type": "uint256"
        },
        {
          "internalType": "uint256",
          "name": "fields",
          "type": "uint256"
        },
        {
          "internalType": "uint256",
          "name": "fieldsUsed",
          "type": "uint256"
        },
        {
          "internalType": "uint256",
          "name": "createdAt",
          "type": "uint256"
        }
      ],
      "stateMutability": "view",
      "type": "function"
    },
    {
      "inputs": [
        {
          "internalType": "uint256",
          "name": "",
          "type": "uint256"
        },
        {
          "internalType": "enum VoidGame.FacilityType",
          "name": "",
          "type": "uint8"
        }
      ],
      "name": "colonyFacilities",
      "outputs": [
        {
          "internalType": "enum VoidGame.FacilityType",
          "name": "facilityType",
          "type": "uint8"
        },
        {
          "internalType": "uint256",
          "name": "level",
          "type": "uint256"
        },
        {
          "internalType": "uint256",
          "name": "upgradeStartTime",
          "type": "uint256"
        },
        {
          "internalType": "uint256",
          "name": "upgradeEndTime",
          "type": "uint256"
        }
      ],
      "stateMutability": "view",
      "type": "function"
    },
    {
      "inputs": [
        {
          "internalType": "uint256",
          "name": "",
          "type": "uint256"
        }
      ],
      "name": "colonyResources",
      "outputs": [
        {
          "internalType": "uint256",
          "name": "ore",
          "type": "uint256"
        },
        {
          "internalType": "uint256",
          "name": "crystal",
          "type": "uint256"
        },
        {
          "internalType": "uint256",
          "name": "plasma",
          "type": "uint256"
        },
        {
          "internalType": "uint256",
          "name": "energy",
          "type": "uint256"
        },
        {
          "internalType": "uint256",
          "name": "lastUpdate",
          "type": "uint256"
        }
      ],
      "stateMutability": "view",
      "type": "function"
    },
    {
      "inputs": [
        {
          "internalType": "uint256",
          "name": "",
          "type": "uint256"
        },
        {
          "internalType": "enum VoidGame.VesselType",
          "name": "",
          "type": "uint8"
        }
      ],
      "name": "colonyVessels",
      "outputs": [
        {
          "internalType": "uint256",
          "name": "",
          "type": "uint256"
        }
      ],
      "stateMutability": "view",
      "type": "function"
    },
    {
      "inputs": [
        {
          "internalType": "uint256",
          "name": "colonyId",
          "type": "uint256"
        },
        {
          "internalType": "enum VoidGame.FacilityType",
          "name": "facilityType",
          "type": "uint8"
        }
      ],
      "name": "completeFacilityUpgrade",
      "outputs": [],
      "stateMutability": "nonpayable",
      "type": "function"
    },
    {
      "inputs": [],
      "name": "completeResearch",
      "outputs": [],
      "stateMutability": "nonpayable",
      "type": "function"
    },
    {
      "inputs": [
        {
          "internalType": "uint256",
          "name": "",
          "type": "uint256"
        },
        {
          "internalType": "enum VoidGame.VesselType",
          "name": "",
          "type": "uint8"
        }
      ],
      "name": "fleetComposition",
      "outputs": [
        {
          "internalType": "uint256",
          "name": "",
          "type": "uint256"
        }
      ],
      "stateMutability": "view",
      "type": "function"
    },
    {
      "inputs": [
        {
          "internalType": "uint256",
          "name": "",
          "type": "uint256"
        }
      ],
      "name": "fleets",
      "outputs": [
        {
          "internalType": "uint256",
          "name": "id",
          "type": "uint256"
        },
        {
          "internalType": "address",
          "name": "owner",
          "type": "address"
        },
        {
          "internalType": "uint256",
          "name": "originColonyId",
          "type": "uint256"
        },
        {
          "internalType": "uint256",
          "name": "targetColonyId",
          "type": "uint256"
        },
        {
          "internalType": "uint256",
          "name": "departureTime",
          "type": "uint256"
        },
        {
          "internalType": "uint256",
          "name": "arrivalTime",
          "type": "uint256"
        },
        {
          "internalType": "uint256",
          "name": "missionType",
          "type": "uint256"
        },
        {
          "internalType": "bool",
          "name": "isReturning",
          "type": "bool"
        }
      ],
      "stateMutability": "view",
      "type": "function"
    },
    {
      "inputs": [
        {
          "internalType": "uint256",
          "name": "colonyId",
          "type": "uint256"
        }
      ],
      "name": "getColonyResources",
      "outputs": [
        {
          "internalType": "uint256",
          "name": "ore",
          "type": "uint256"
        },
        {
          "internalType": "uint256",
          "name": "crystal",
          "type": "uint256"
        },
        {
          "internalType": "uint256",
          "name": "plasma",
          "type": "uint256"
        },
        {
          "internalType": "uint256",
          "name": "energy",
          "type": "uint256"
        }
      ],
      "stateMutability": "view",
      "type": "function"
    },
    {
      "inputs": [
        {
          "internalType": "uint256",
          "name": "colonyId",
          "type": "uint256"
        }
      ],
      "name": "getCrystalProduction",
      "outputs": [
        {
          "internalType": "uint256",
          "name": "",
          "type": "uint256"
        }
      ],
      "stateMutability": "view",
      "type": "function"
    },
    {
      "inputs": [
        {
          "internalType": "uint256",
          "name": "colonyId",
          "type": "uint256"
        },
        {
          "internalType": "enum VoidGame.FacilityType",
          "name": "",
          "type": "uint8"
        },
        {
          "internalType": "uint256",
          "name": "level",
          "type": "uint256"
        }
      ],
      "name": "getFacilityBuildTime",
      "outputs": [
        {
          "internalType": "uint256",
          "name": "",
          "type": "uint256"
        }
      ],
      "stateMutability": "view",
      "type": "function"
    },
    {
      "inputs": [
        {
          "internalType": "enum VoidGame.FacilityType",
          "name": "facilityType",
          "type": "uint8"
        },
        {
          "internalType": "uint256",
          "name": "level",
          "type": "uint256"
        }
      ],
      "name": "getFacilityCost",
      "outputs": [
        {
          "internalType": "uint256",
          "name": "ore",
          "type": "uint256"
        },
        {
          "internalType": "uint256",
          "name": "crystal",
          "type": "uint256"
        },
        {
          "internalType": "uint256",
          "name": "plasma",
          "type": "uint256"
        }
      ],
      "stateMutability": "pure",
      "type": "function"
    },
    {
      "inputs": [
        {
          "internalType": "uint256",
          "name": "colonyId",
          "type": "uint256"
        },
        {
          "internalType": "enum VoidGame.FacilityType",
          "name": "facilityType",
          "type": "uint8"
        }
      ],
      "name": "getFacilityLevel",
      "outputs": [
        {
          "internalType": "uint256",
          "name": "",
          "type": "uint256"
        }
      ],
      "stateMutability": "view",
      "type": "function"
    },
    {
      "inputs": [
        {
          "internalType": "uint256",
          "name": "colonyId",
          "type": "uint256"
        }
      ],
      "name": "getOreProduction",
      "outputs": [
        {
          "internalType": "uint256",
          "name": "",
          "type": "uint256"
        }
      ],
      "stateMutability": "view",
      "type": "function"
    },
    {
      "inputs": [
        {
          "internalType": "uint256",
          "name": "colonyId",
          "type": "uint256"
        }
      ],
      "name": "getPlasmaProduction",
      "outputs": [
        {
          "internalType": "uint256",
          "name": "",
          "type": "uint256"
        }
      ],
      "stateMutability": "view",
      "type": "function"
    },
    {
      "inputs": [
        {
          "internalType": "address",
          "name": "player",
          "type": "address"
        }
      ],
      "name": "getPlayerColonies",
      "outputs": [
        {
          "internalType": "uint256[]",
          "name": "",
          "type": "uint256[]"
        }
      ],
      "stateMutability": "view",
      "type": "function"
    },
    {
      "inputs": [
        {
          "internalType": "enum VoidGame.ResearchType",
          "name": "researchType",
          "type": "uint8"
        },
        {
          "internalType": "uint256",
          "name": "level",
          "type": "uint256"
        }
      ],
      "name": "getResearchCost",
      "outputs": [
        {
          "internalType": "uint256",
          "name": "ore",
          "type": "uint256"
        },
        {
          "internalType": "uint256",
          "name": "crystal",
          "type": "uint256"
        },
        {
          "internalType": "uint256",
          "name": "plasma",
          "type": "uint256"
        }
      ],
      "stateMutability": "pure",
      "type": "function"
    },
    {
      "inputs": [
        {
          "internalType": "address",
          "name": "player",
          "type": "address"
        },
        {
          "internalType": "enum VoidGame.ResearchType",
          "name": "researchType",
          "type": "uint8"
        }
      ],
      "name": "getResearchLevel",
      "outputs": [
        {
          "internalType": "uint256",
          "name": "",
          "type": "uint256"
        }
      ],
      "stateMutability": "view",
      "type": "function"
    },
    {
      "inputs": [
        {
          "internalType": "uint256",
          "name": "colonyId",
          "type": "uint256"
        },
        {
          "internalType": "enum VoidGame.ResearchType",
          "name": "",
          "type": "uint8"
        },
        {
          "internalType": "uint256",
          "name": "level",
          "type": "uint256"
        }
      ],
      "name": "getResearchTime",
      "outputs": [
        {
          "internalType": "uint256",
          "name": "",
          "type": "uint256"
        }
      ],
      "stateMutability": "view",
      "type": "function"
    },
    {
      "inputs": [],
      "name": "lastGameTick",
      "outputs": [
        {
          "internalType": "uint256",
          "name": "",
          "type": "uint256"
        }
      ],
      "stateMutability": "view",
      "type": "function"
    },
    {
      "inputs": [],
      "name": "nextColonyId",
      "outputs": [
        {
          "internalType": "uint256",
          "name": "",
          "type": "uint256"
        }
      ],
      "stateMutability": "view",
      "type": "function"
    },
    {
      "inputs": [],
      "name": "nextFleetId",
      "outputs": [
        {
          "internalType": "uint256",
          "name": "",
          "type": "uint256"
        }
      ],
      "stateMutability": "view",
      "type": "function"
    },
    {
      "inputs": [],
      "name": "owner",
      "outputs": [
        {
          "internalType": "address",
          "name": "",
          "type": "address"
        }
      ],
      "stateMutability": "view",
      "type": "function"
    },
    {
      "inputs": [
        {
          "internalType": "address",
          "name": "",
          "type": "address"
        },
        {
          "internalType": "uint256",
          "name": "",
          "type": "uint256"
        }
      ],
      "name": "playerColonies",
      "outputs": [
        {
          "internalType": "uint256",
          "name": "",
          "type": "uint256"
        }
      ],
      "stateMutability": "view",
      "type": "function"
    },
    {
      "inputs": [
        {
          "internalType": "address",
          "name": "",
          "type": "address"
        },
        {
          "internalType": "enum VoidGame.ResearchType",
          "name": "",
          "type": "uint8"
        }
      ],
      "name": "playerResearch",
      "outputs": [
        {
          "internalType": "uint256",
          "name": "",
          "type": "uint256"
        }
      ],
      "stateMutability": "view",
      "type": "function"
    },
    {
      "inputs": [
        {
          "internalType": "address",
          "name": "",
          "type": "address"
        }
      ],
      "name": "players",
      "outputs": [
        {
          "internalType": "uint256",
          "name": "totalColonies",
          "type": "uint256"
        },
        {
          "internalType": "uint256",
          "name": "totalFleetPower",
          "type": "uint256"
        },
        {
          "internalType": "uint256",
          "name": "totalResearchPoints",
          "type": "uint256"
        },
        {
          "internalType": "uint256",
          "name": "combatWins",
          "type": "uint256"
        },
        {
          "internalType": "uint256",
          "name": "combatLosses",
          "type": "uint256"
        },
        {
          "internalType": "uint256",
          "name": "registeredAt",
          "type": "uint256"
        },
        {
          "internalType": "bool",
          "name": "isActive",
          "type": "bool"
        }
      ],
      "stateMutability": "view",
      "type": "function"
    },
    {
      "inputs": [
        {
          "internalType": "string",
          "name": "colonyName",
          "type": "string"
        },
        {
          "internalType": "uint256",
          "name": "galaxy",
          "type": "uint256"
        },
        {
          "internalType": "uint256",
          "name": "system",
          "type": "uint256"
        },
        {
          "internalType": "uint256",
          "name": "position",
          "type": "uint256"
        }
      ],
      "name": "register",
      "outputs": [],
      "stateMutability": "nonpayable",
      "type": "function"
    },
    {
      "inputs": [],
      "name": "renounceOwnership",
      "outputs": [],
      "stateMutability": "nonpayable",
      "type": "function"
    },
    {
      "inputs": [
        {
          "internalType": "address",
          "name": "_boosts",
          "type": "address"
        }
      ],
      "name": "setBoostsContract",
      "outputs": [],
      "stateMutability": "nonpayable",
      "type": "function"
    },
    {
      "inputs": [
        {
          "internalType": "uint256",
          "name": "colonyId",
          "type": "uint256"
        },
        {
          "internalType": "enum VoidGame.ResearchType",
          "name": "researchType",
          "type": "uint8"
        }
      ],
      "name": "startResearch",
      "outputs": [],
      "stateMutability": "nonpayable",
      "type": "function"
    },
    {
      "inputs": [],
      "name": "totalPlayers",
      "outputs": [
        {
          "internalType": "uint256",
          "name": "",
          "type": "uint256"
        }
      ],
      "stateMutability": "view",
      "type": "function"
    },
    {
      "inputs": [
        {
          "internalType": "address",
          "name": "newOwner",
          "type": "address"
        }
      ],
      "name": "transferOwnership",
      "outputs": [],
      "stateMutability": "nonpayable",
      "type": "function"
    },
    {
      "inputs": [
        {
          "internalType": "uint256",
          "name": "",
          "type": "uint256"
        },
        {
          "internalType": "uint256",
          "name": "",
          "type": "uint256"
        },
        {
          "internalType": "uint256",
          "name": "",
          "type": "uint256"
        }
      ],
      "name": "universeMap",
      "outputs": [
        {
          "internalType": "uint256",
          "name": "",
          "type": "uint256"
        }
      ],
      "stateMutability": "view",
      "type": "function"
    },
    {
      "inputs": [
        {
          "internalType": "uint256",
          "name": "colonyId",
          "type": "uint256"
        },
        {
          "internalType": "enum VoidGame.FacilityType",
          "name": "facilityType",
          "type": "uint8"
        }
      ],
      "name": "upgradeFacility",
      "outputs": [],
      "stateMutability": "nonpayable",
      "type": "function"
    },
    {
      "inputs": [],
      "name": "voidToken",
      "outputs": [
        {
          "internalType": "contract IERC20",
          "name": "",
          "type": "address"
        }
      ],
      "stateMutability": "view",
      "type": "function"
    }
  ],
  "bytecode": "0x6080604052600160045560016005553480156200001b57600080fd5b5060405162002aa738038062002aa78339810160408190526200003e91620000ef565b33806200006557604051631e4fbdf760e01b81526000600482015260240160405180910390fd5b62000070816200009f565b5060018055600280546001600160a01b0319166001600160a01b03929092169190911790554260075562000121565b600080546001600160a01b038381166001600160a01b0319831681178455604051919092169283917f8be0079c531659141344cd1fd0a4f28419497f9722a3daafe3b4186f6b6457e09190a35050565b6000602082840312156200010257600080fd5b81516001600160a01b03811681146200011a57600080fd5b9392505050565b61297680620001316000396000f3fe608060405234801561001057600080fd5b50600436106102535760003560e01c80637dae9b4211610146578063b8b4b173116100c3578063e2eb41ff11610087578063e2eb41ff146106ef578063ec37e93214610774578063f2fde38b1461077c578063f60cdcf61461078f578063f62754ff14610798578063f80b3dd0146107a057600080fd5b8063b8b4b173146105fd578063bd7e3656146106a0578063c1dfc73c146106b3578063d676b9ed146106d3578063d849d4ec146106e657600080fd5b80638da5cb5b1161010a5780638da5cb5b146105a057806392fdc366146105b1578063a16c1f15146105c4578063b2e1cf4e146105d7578063b522bef4146105ea57600080fd5b80637dae9b421461051f5780637f314b931461052857806380198ce11461053b5780638547e80b1461054457806386d2d07e1461055757600080fd5b8063494d988e116101d45780637137babd116101985780637137babd14610463578063715018a61461046c57806374840f7b146104745780637a50225a146104a75780637c00deff146104ba57600080fd5b8063494d988e146103b95780634c7d3fb9146103e45780634f11f4931461040f5780636943a2d11461043d5780636d11d0931461045057600080fd5b8063293a96f01161021b578063293a96f01461030f5780632cfb2053146103225780632fa4f3f61461034a5780633de4a70d1461035257806347ff13f61461036557600080fd5b8063096de6be146102585780630af3ffe014610296578063127ba5a2146102a95780631379e144146102da57806324c733b5146102e4575b600080fd5b610283610266366004612237565b600f60209081526000928352604080842090915290825290205481565b6040519081526020015b60405180910390f35b6102836102a4366004612287565b6107b3565b6102836102b73660046122b1565b601260209081526000938452604080852082529284528284209052825290205481565b6102e26107e4565b005b6003546102f7906001600160a01b031681565b6040516001600160a01b03909116815260200161028d565b6102e261031d3660046122ec565b61098c565b610335610330366004612318565b610cdc565b60405161028d99989796959493929190612331565b610283601681565b610283610360366004612318565b610db5565b6103a96103733660046122ec565b600e602090815260009283526040808420909152908252902080546001820154600283015460039093015460ff90921692909184565b60405161028d94939291906123f1565b6102836103c7366004612237565b601160209081526000928352604080842090915290825290205481565b6102836103f2366004612429565b600a60209081526000928352604080842090915290825290205481565b61042261041d366004612453565b610e1e565b6040805193845260208401929092529082015260600161028d565b6102e261044b3660046122ec565b610f36565b6102e261045e36600461246f565b61109a565b61028360075481565b6102e26110c4565b610487610482366004612318565b6110d8565b60408051948552602085019390935291830152606082015260800161028d565b6102836104b5366004612429565b6111a3565b6104f76104c8366004612318565b600d60205260009081526040902080546001820154600283015460038401546004909401549293919290919085565b604080519586526020860194909452928401919091526060830152608082015260a00161028d565b61028361025881565b6102e261053636600461248a565b6111f7565b61028360055481565b610283610552366004612318565b6115de565b61059061056536600461246f565b600b60205260009081526040902080546001820154600283015460039093015460ff90921692909184565b60405161028d94939291906124bd565b6000546001600160a01b03166102f7565b6102836105bf3660046122ec565b61162d565b6102e26105d23660046124cb565b611679565b6102836105e5366004612553565b611b1a565b6102836105f8366004612318565b611be8565b61065b61060b366004612318565b6010602052600090815260409020805460018201546002830154600384015460048501546005860154600687015460079097015495966001600160a01b0390951695939492939192909160ff1688565b604080519889526001600160a01b039097166020890152958701949094526060860192909252608085015260a084015260c0830152151560e08201526101000161028d565b6102836106ae366004612588565b611c35565b6106c66106c136600461246f565b611cb6565b60405161028d91906125ad565b6104226106e13660046125f1565b611d22565b61028360045481565b61073d6106fd36600461246f565b6008602052600090815260409020805460018201546002830154600384015460048501546005860154600690960154949593949293919290919060ff1687565b604080519788526020880196909652948601939093526060850191909152608084015260a0830152151560c082015260e00161028d565b610283601e81565b6102e261078a36600461246f565b612011565b61028360065481565b610283600181565b6002546102f7906001600160a01b031681565b600960205281600052604060002081815481106107cf57600080fd5b90600052602060002001600091509150505481565b336000908152600b6020526040902060038101546108495760405162461bcd60e51b815260206004820152601760248201527f4e6f20726573656172636820696e2070726f677265737300000000000000000060448201526064015b60405180910390fd5b42816003015411156108955760405162461bcd60e51b81526020600482015260156024820152745265736561726368206e6f7420636f6d706c65746560581b6044820152606401610840565b6001810154336000908152600a60205260408120835490919060ff16600f8111156108c2576108c26123c7565b600f8111156108d3576108d36123c7565b815260208101919091526040016000205560018101546108f4906064612623565b336000908152600860205260408120600201805490919061091690849061263a565b90915550508054600182015460405133927fcdda533d22dbea0702cee709f0ab1a26531b5852167fe00782329cd385e127ac926109589260ff9092169161264d565b60405180910390a250336000908152600b60205260408120805460ff19168155600181018290556002810182905560030155565b61099461204f565b6000828152600c6020526040902060018101546001600160a01b031633146109f15760405162461bcd60e51b815260206004820152601060248201526f2737ba1031b7b637b73c9037bbb732b960811b6044820152606401610840565b6000838152600e6020526040812081846014811115610a1257610a126123c7565b6014811115610a2357610a236123c7565b81526020019081526020016000209050806003015460001480610a4a575042816003015411155b610a8c5760405162461bcd60e51b81526020600482015260136024820152725570677261646520696e2070726f677265737360681b6044820152606401610840565b600081600101546001610a9f919061263a565b9050601e811115610ae65760405162461bcd60e51b815260206004820152601160248201527013585e081b195d995b081c995858da1959607a1b6044820152606401610840565b6000806000610af58785611d22565b60008b8152600d602052604090209295509093509150610b1489612079565b8054841115610b585760405162461bcd60e51b815260206004820152601060248201526f496e73756666696369656e74206f726560801b6044820152606401610840565b8281600101541015610ba35760405162461bcd60e51b8152602060048201526014602482015273125b9cdd59999a58da595b9d0818dc9e5cdd185b60621b6044820152606401610840565b8181600201541015610bed5760405162461bcd60e51b8152602060048201526013602482015272496e73756666696369656e7420706c61736d6160681b6044820152606401610840565b83816000016000828254610c019190612668565b9250508190555082816001016000828254610c1c9190612668565b9250508190555081816002016000828254610c379190612668565b9091555060009050610c4a8a8a88611b1a565b87549091508990889060ff19166001836014811115610c6b57610c6b6123c7565b02179055504260028801819055610c8390829061263a565b600388018190556040518b917f50d13fd41dab8891dacb9ff0ea7f54b7d6e6b2b7a2b70398e261f0b84f94bc6f91610cbf918d918b919061267b565b60405180910390a25050505050505050610cd860018055565b5050565b600c6020526000908152604090208054600182015460028301805492936001600160a01b0390921692610d0e9061269a565b80601f0160208091040260200160405190810160405280929190818152602001828054610d3a9061269a565b8015610d875780601f10610d5c57610100808354040283529160200191610d87565b820191906000526020600020905b815481529060010190602001808311610d6a57829003601f168201915b5050505050908060030154908060040154908060050154908060060154908060070154908060080154905089565b6000818152600e60209081526040808320838052909152812060010154808203610de25750601e92915050565b610ded81600a6127b8565b610df882600b6127b8565b610e0383601e612623565b610e0d9190612623565b610e1791906127c4565b9392505050565b60008080600885600f811115610e3657610e366123c7565b1480610e535750600985600f811115610e5157610e516123c7565b145b80610e6f5750600a85600f811115610e6d57610e6d6123c7565b145b15610ec4576002610e8085826127b8565b610e8c90610320612623565b610e9691906127c4565b92506002610ea485826127b8565b610eaf9060c8612623565b610eb991906127c4565b915060009050610f2f565b6002610ed085826127b8565b610edb9060c8612623565b610ee591906127c4565b92506002610ef385826127b8565b610eff90610190612623565b610f0991906127c4565b91506002610f1785826127b8565b610f22906064612623565b610f2c91906127c4565b90505b9250925092565b6000828152600e6020526040812081836014811115610f5757610f576123c7565b6014811115610f6857610f686123c7565b815260200190815260200160002090506000816003015411610fc55760405162461bcd60e51b81526020600482015260166024820152754e6f207570677261646520696e2070726f677265737360501b6044820152606401610840565b42816003015411156110105760405162461bcd60e51b815260206004820152601460248201527355706772616465206e6f7420636f6d706c65746560601b6044820152606401610840565b600181018054906000611022836127e6565b909155505060006002820181905560038201819055838152600c60205260408120600701805491611052836127e6565b9190505550827fac2deb87f89c37c0b0266760f2ad79245e2dc19ba7604cc511a2eb082608f04383836001015460405161108d9291906127ff565b60405180910390a2505050565b6110a26121ba565b600380546001600160a01b0319166001600160a01b0392909216919091179055565b6110cc6121ba565b6110d660006121e7565b565b6000818152600d6020526040812060048101548291829182919082906110fe9042612668565b9050610e108161110d89610db5565b6111179190612623565b61112191906127c4565b825461112d919061263a565b9550610e108161113c89611be8565b6111469190612623565b61115091906127c4565b826001015461115f919061263a565b9450610e108161116e896115de565b6111789190612623565b61118291906127c4565b8260020154611191919061263a565b93508160030154925050509193509193565b6001600160a01b0382166000908152600a602052604081208183600f8111156111ce576111ce6123c7565b600f8111156111df576111df6123c7565b81526020019081526020016000205490505b92915050565b6111ff61204f565b6000828152600c60205260409020600101546001600160a01b0316331461125b5760405162461bcd60e51b815260206004820152601060248201526f2737ba1031b7b637b73c9037bbb732b960811b6044820152606401610840565b336000908152600b6020526040902060030154158061128c5750336000908152600b60205260409020600301544210155b6112cf5760405162461bcd60e51b8152602060048201526014602482015273526573656172636820696e2070726f677265737360601b6044820152606401610840565b6000828152600e60209081526040808320600a8452909152902060019081015410156113345760405162461bcd60e51b81526020600482015260146024820152734e65656420536369656e63652041636164656d7960601b6044820152606401610840565b336000908152600a602052604081208183600f811115611356576113566123c7565b600f811115611367576113676123c7565b81526020019081526020016000205490506000816001611387919061263a565b905060008060006113988685610e1e565b60008a8152600d6020526040902092955090935091506113b788612079565b80548411156113fb5760405162461bcd60e51b815260206004820152601060248201526f496e73756666696369656e74206f726560801b6044820152606401610840565b82816001015410156114465760405162461bcd60e51b8152602060048201526014602482015273125b9cdd59999a58da595b9d0818dc9e5cdd185b60621b6044820152606401610840565b81816002015410156114905760405162461bcd60e51b8152602060048201526013602482015272496e73756666696369656e7420706c61736d6160681b6044820152606401610840565b838160000160008282546114a49190612668565b92505081905550828160010160008282546114bf9190612668565b92505081905550818160020160008282546114da9190612668565b90915550600090506114ed898988611c35565b9050604051806080016040528089600f81111561150c5761150c6123c7565b81526020018781526020014281526020018242611529919061263a565b9052336000908152600b6020526040902081518154829060ff1916600183600f811115611558576115586123c7565b021790555060208281015160018301556040808401516002840155606090930151600392830155336000818152600b9092529083902090910154915190917fdadb32e3914b3c41e6d60cda49731910d44116b464a5cca2257c559758792937916115c6918c918b919061280d565b60405180910390a250505050505050610cd860018055565b6000818152600e602090815260408083206002845290915281206001015480820361160c5750600092915050565b61161781600a6127b8565b61162282600b6127b8565b610e0383600a612623565b6000828152600e602052604081208183601481111561164e5761164e6123c7565b601481111561165f5761165f6123c7565b815260200190815260200160002060010154905092915050565b61168161204f565b3360009081526008602052604090206006015460ff16156116d95760405162461bcd60e51b8152602060048201526012602482015271105b1c9958591e481c9959da5cdd195c995960721b6044820152606401610840565b600183101580156116eb575060098311155b6117285760405162461bcd60e51b815260206004820152600e60248201526d496e76616c69642067616c61787960901b6044820152606401610840565b6001821015801561173b57506101f38211155b6117785760405162461bcd60e51b815260206004820152600e60248201526d496e76616c69642073797374656d60901b6044820152606401610840565b6001811015801561178a5750600f8111155b6117c95760405162461bcd60e51b815260206004820152601060248201526f24b73b30b634b2103837b9b4ba34b7b760811b6044820152606401610840565b600083815260126020908152604080832085845282528083208484529091529020541561182c5760405162461bcd60e51b8152602060048201526011602482015270141bdcda5d1a5bdb881bd8d8dd5c1a5959607a1b6044820152606401610840565b6040805160e08101825260018082526000602080840182815284860183815260608601848152608087018581524260a0890190815260c08901888152338852600890965298862097518855925195870195909555516002860155925160038501559151600484015592516005830155516006918201805460ff19169115159190911790558054916118bc836127e6565b909155505060048054600091826118d2836127e6565b919050559050604051806101200160405280828152602001336001600160a01b0316815260200187878080601f0160208091040260200160405190810160405280939291908181526020018383808284376000920182905250938552505050602080830188905260408084018890526060840187905260a3608085015260a084018390524260c090940193909352848252600c81529082902083518155908301516001820180546001600160a01b0319166001600160a01b039092169190911790559082015160028201906119a79082612880565b5060608281015160038084019190915560808085015160048086019190915560a080870151600587015560c0870151600687015560e0870151600787015561010090960151600890950194909455336000818152600960209081526040808320805460018181018355918552838520018b90558d8452601283528184208d855283528184208c855283528184208b90558151998a0182526101f4808b528a84019081528a8301858152988b0185815242978c018881528d8752600d909552948390209a518b5551908a01559551600289015590519387019390935591519490930193909355517f324cb0062138d65997c86cd3012489ceb351d602f2f55c7408306e8040c79f3f91611abc9190815260200190565b60405180910390a26040805185815260208101859052908101839052819033907f8706ac3778f134396813c204b8b38c9c98ad59346ddd7b8c74d76bd97666289c9060600160405180910390a350611b1360018055565b5050505050565b600080611b2983610e10612623565b6000868152600e6020908152604080832060088452808352818420600190810154600b86529190935292200154919250906127108215611b9157611b6e836005612623565b611b7990606461263a565b611b84826064612623565b611b8e91906127c4565b90505b8115611bc557611ba2826019612623565b611bad90606461263a565b611bb8826064612623565b611bc291906127c4565b90505b612710611bd28286612623565b611bdc91906127c4565b98975050505050505050565b6000818152600e602090815260408083206001808552925282200154808203611c145750600f92915050565b611c1f81600a6127b8565b611c2a82600b6127b8565b610e03836014612623565b600080611c4483611c20612623565b6000868152600e60209081526040808320600a84529091529020600190810154919250811115611cad57611c79600182612668565b611c8490600a612623565b611c8f90606461263a565b611c9a836064612623565b611ca491906127c4565b92505050610e17565b50949350505050565b6001600160a01b038116600090815260096020908152604091829020805483518184028101840190945280845260609392830182828015611d1657602002820191906000526020600020905b815481526020019060010190808311611d02575b50505050509050919050565b6000808080856014811115611d3957611d396123c7565b03611d8c57611d4984600a6127b8565b611d5485600f6127b8565b611d5f90603c612623565b611d6991906127c4565b9250611d7684600a6127b8565b611d8185600f6127b8565b610eaf90600f612623565b6001856014811115611da057611da06123c7565b03611df357611db084600a6127b8565b611dbb8560106127b8565b611dc6906030612623565b611dd091906127c4565b9250611ddd84600a6127b8565b611de88560106127b8565b610eaf906018612623565b6002856014811115611e0757611e076123c7565b03611e5a57611e1784600a6127b8565b611e2285600f6127b8565b611e2d9060e1612623565b611e3791906127c4565b9250611e4484600a6127b8565b611e4f85600f6127b8565b610eaf90604b612623565b6003856014811115611e6e57611e6e6123c7565b03611ec157611e7e84600a6127b8565b611e8985600f6127b8565b611e9490604b612623565b611e9e91906127c4565b9250611eab84600a6127b8565b611eb685600f6127b8565b610eaf90601e612623565b6009856014811115611ed557611ed56123c7565b03611f49576002611ee685826127b8565b611ef290610190612623565b611efc91906127c4565b92506002611f0a85826127b8565b611f159060c8612623565b611f1f91906127c4565b91506002611f2d85826127b8565b611f38906064612623565b611f4291906127c4565b9050610f2f565b600a856014811115611f5d57611f5d6123c7565b03611fc0576002611f6e85826127b8565b611f799060c8612623565b611f8391906127c4565b92506002611f9185826127b8565b611f9d90610190612623565b611fa791906127c4565b91506002611fb585826127b8565b611f389060c8612623565b6002611fcc85826127b8565b611fd7906064612623565b611fe191906127c4565b92506002611fef85826127b8565b611ffa906064612623565b61200491906127c4565b9150600090509250925092565b6120196121ba565b6001600160a01b03811661204357604051631e4fbdf760e01b815260006004820152602401610840565b61204c816121e7565b50565b60026001540361207257604051633ee5aeb560e01b815260040160405180910390fd5b6002600155565b6000818152600d6020526040812060048101549091906120999042612668565b9050806000036120a857505050565b60006120b384610db5565b905060006120c085611be8565b905060006120cd866115de565b9050610e106120dc8585612623565b6120e691906127c4565b8560000160008282546120f9919061263a565b90915550610e10905061210c8584612623565b61211691906127c4565b856001016000828254612129919061263a565b90915550610e10905061213c8583612623565b61214691906127c4565b856002016000828254612159919061263a565b90915550504260048601558454600186015460028701546040805193845260208401929092529082015286907fe7cdf9ff4e2c570b9d5045dd48cd9588959ff685ef33039c635272cb2be00c6d9060600160405180910390a2505050505050565b6000546001600160a01b031633146110d65760405163118cdaa760e01b8152336004820152602401610840565b600080546001600160a01b038381166001600160a01b0319831681178455604051919092169283917f8be0079c531659141344cd1fd0a4f28419497f9722a3daafe3b4186f6b6457e09190a35050565b6000806040838503121561224a57600080fd5b823591506020830135600f811061226057600080fd5b809150509250929050565b80356001600160a01b038116811461228257600080fd5b919050565b6000806040838503121561229a57600080fd5b6122a38361226b565b946020939093013593505050565b6000806000606084860312156122c657600080fd5b505081359360208301359350604090920135919050565b80356015811061228257600080fd5b600080604083850312156122ff57600080fd5b8235915061230f602084016122dd565b90509250929050565b60006020828403121561232a57600080fd5b5035919050565b60006101208b8352602060018060a01b038c16818501528160408501528a518083860152600092505b80831015612379578b830182015185840161014001529181019161235a565b6000610140828701810191909152606086019b909b52608085019990995250505060a081019490945260c084019290925260e0830152610100820152601f909101601f191601019392505050565b634e487b7160e01b600052602160045260246000fd5b601581106123ed576123ed6123c7565b9052565b608081016123ff82876123dd565b84602083015283604083015282606083015295945050505050565b80356010811061228257600080fd5b6000806040838503121561243c57600080fd5b6124458361226b565b915061230f6020840161241a565b6000806040838503121561246657600080fd5b6122a38361241a565b60006020828403121561248157600080fd5b610e178261226b565b6000806040838503121561249d57600080fd5b8235915061230f6020840161241a565b601081106123ed576123ed6123c7565b608081016123ff82876124ad565b6000806000806000608086880312156124e357600080fd5b853567ffffffffffffffff808211156124fb57600080fd5b818801915088601f83011261250f57600080fd5b81358181111561251e57600080fd5b89602082850101111561253057600080fd5b60209283019a909950918801359760408101359750606001359550909350505050565b60008060006060848603121561256857600080fd5b83359250612578602085016122dd565b9150604084013590509250925092565b60008060006060848603121561259d57600080fd5b833592506125786020850161241a565b6020808252825182820181905260009190848201906040850190845b818110156125e5578351835292840192918401916001016125c9565b50909695505050505050565b6000806040838503121561260457600080fd5b6122a3836122dd565b634e487b7160e01b600052601160045260246000fd5b80820281158282048414176111f1576111f161260d565b808201808211156111f1576111f161260d565b6040810161265b82856124ad565b8260208301529392505050565b818103818111156111f1576111f161260d565b6060810161268982866123dd565b602082019390935260400152919050565b600181811c908216806126ae57607f821691505b6020821081036126ce57634e487b7160e01b600052602260045260246000fd5b50919050565b600181815b8085111561270f5781600019048211156126f5576126f561260d565b8085161561270257918102915b93841c93908002906126d9565b509250929050565b600082612726575060016111f1565b81612733575060006111f1565b816001811461274957600281146127535761276f565b60019150506111f1565b60ff8411156127645761276461260d565b50506001821b6111f1565b5060208310610133831016604e8410600b8410161715612792575081810a6111f1565b61279c83836126d4565b80600019048211156127b0576127b061260d565b029392505050565b6000610e178383612717565b6000826127e157634e487b7160e01b600052601260045260246000fd5b500490565b6000600182016127f8576127f861260d565b5060010190565b6040810161265b82856123dd565b6060810161268982866124ad565b634e487b7160e01b600052604160045260246000fd5b601f82111561287b57600081815260208120601f850160051c810160208610156128585750805b601f850160051c820191505b8181101561287757828155600101612864565b5050505b505050565b815167ffffffffffffffff81111561289a5761289a61281b565b6128ae816128a8845461269a565b84612831565b602080601f8311600181146128e357600084156128cb5750858301515b600019600386901b1c1916600185901b178555612877565b600085815260208120601f198616915b82811015612912578886015182559484019460019091019084016128f3565b50858210156129305787850151600019600388901b60f8161c191681555b5050505050600190811b0190555056fea2646970667358221220f0c649a9db17ce33ff99f5140e5459c710b1e4a64f906d5b05b229e3502b72cf64736f6c63430008140033",
  "linkReferences": {},
  "deployedLinkReferences": {}
}