{
  "_format": "hh-sol-artifact-1",
  "contractName": "VoidBoosts",
  "sourceName": "contracts/VoidBoosts.sol",
  "abi": [
    {
      "inputs": [
        {
          "internalType": "address",
          "name": "_voidToken",
          "type": "address"
        },
        {
          "internalType": "address",
          "name": "_gameContract",
          "type": "address"
        }
      ],
      "stateMutability": "nonpayable",
      "type": "constructor"
    },
    {
      "inputs": [
        {
          "internalType": "address",
          "name": "owner",
          "type": "address"
        }
      ],
      "name": "OwnableInvalidOwner",
      "type": "error"
    },
    {
      "inputs": [
        {
          "internalType": "address",
          "name": "account",
          "type": "address"
        }
      ],
      "name": "OwnableUnauthorizedAccount",
      "type": "error"
    },
    {
      "inputs": [],
      "name": "ReentrancyGuardReentrantCall",
      "type": "error"
    },
    {
      "inputs": [
        {
          "internalType": "address",
          "name": "token",
          "type": "address"
        }
      ],
      "name": "SafeERC20FailedOperation",
      "type": "error"
    },
    {
      "anonymous": false,
      "inputs": [
        {
          "indexed": true,
          "internalType": "address",
          "name": "player",
          "type": "address"
        },
        {
          "indexed": false,
          "internalType": "enum VoidBoosts.BoostType",
          "name": "boostType",
          "type": "uint8"
        },
        {
          "indexed": false,
          "internalType": "uint256",
          "name": "expiresAt",
          "type": "uint256"
        }
      ],
      "name": "BoostActivated",
      "type": "event"
    },
    {
      "anonymous": false,
      "inputs": [
        {
          "indexed": true,
          "internalType": "address",
          "name": "player",
          "type": "address"
        },
        {
          "indexed": false,
          "internalType": "uint256",
          "name": "totalSlots",
          "type": "uint256"
        }
      ],
      "name": "ColonyPermitPurchased",
      "type": "event"
    },
    {
      "anonymous": false,
      "inputs": [
        {
          "indexed": true,
          "internalType": "address",
          "name": "player",
          "type": "address"
        },
        {
          "indexed": false,
          "internalType": "uint256",
          "name": "fleetId",
          "type": "uint256"
        }
      ],
      "name": "EmergencyRecallUsed",
      "type": "event"
    },
    {
      "anonymous": false,
      "inputs": [
        {
          "indexed": true,
          "internalType": "address",
          "name": "player",
          "type": "address"
        },
        {
          "indexed": false,
          "internalType": "uint256",
          "name": "colonyId",
          "type": "uint256"
        },
        {
          "indexed": false,
          "internalType": "uint256",
          "name": "facilityId",
          "type": "uint256"
        }
      ],
      "name": "InstantBuildUsed",
      "type": "event"
    },
    {
      "anonymous": false,
      "inputs": [
        {
          "indexed": true,
          "internalType": "address",
          "name": "previousOwner",
          "type": "address"
        },
        {
          "indexed": true,
          "internalType": "address",
          "name": "newOwner",
          "type": "address"
        }
      ],
      "name": "OwnershipTransferred",
      "type": "event"
    },
    {
      "anonymous": false,
      "inputs": [
        {
          "indexed": true,
          "internalType": "address",
          "name": "player",
          "type": "address"
        },
        {
          "indexed": false,
          "internalType": "uint256",
          "name": "amount",
          "type": "uint256"
        }
      ],
      "name": "TokensRedeemed",
      "type": "event"
    },
    {
      "anonymous": false,
      "inputs": [
        {
          "indexed": true,
          "internalType": "address",
          "name": "player",
          "type": "address"
        },
        {
          "indexed": false,
          "internalType": "enum VoidBoosts.BoostType",
          "name": "boostType",
          "type": "uint8"
        },
        {
          "indexed": false,
          "internalType": "uint256",
          "name": "amount",
          "type": "uint256"
        }
      ],
      "name": "TokensSpent",
      "type": "event"
    },
    {
      "anonymous": false,
      "inputs": [
        {
          "indexed": true,
          "internalType": "address",
          "name": "player",
          "type": "address"
        },
        {
          "indexed": false,
          "internalType": "uint256",
          "name": "amount",
          "type": "uint256"
        },
        {
          "indexed": false,
          "internalType": "string",
          "name": "reason",
          "type": "string"
        }
      ],
      "name": "TokensSpentGeneric",
      "type": "event"
    },
    {
      "anonymous": false,
      "inputs": [
        {
          "indexed": true,
          "internalType": "address",
          "name": "player",
          "type": "address"
        },
        {
          "indexed": false,
          "internalType": "uint256",
          "name": "expiresAt",
          "type": "uint256"
        }
      ],
      "name": "VoidShieldActivated",
      "type": "event"
    },
    {
      "inputs": [],
      "name": "ACCELERATOR_25_COST",
      "outputs": [
        {
          "internalType": "uint256",
          "name": "",
          "type": "uint256"
        }
      ],
      "stateMutability": "view",
      "type": "function"
    },
    {
      "inputs": [],
      "name": "ACCELERATOR_50_COST",
      "outputs": [
        {
          "internalType": "uint256",
          "name": "",
          "type": "uint256"
        }
      ],
      "stateMutability": "view",
      "type": "function"
    },
    {
      "inputs": [],
      "name": "ACCELERATOR_DURATION",
      "outputs": [
        {
          "internalType": "uint256",
          "name": "",
          "type": "uint256"
        }
      ],
      "stateMutability": "view",
      "type": "function"
    },
    {
      "inputs": [],
      "name": "COLONY_PERMIT_COST",
      "outputs": [
        {
          "internalType": "uint256",
          "name": "",
          "type": "uint256"
        }
      ],
      "stateMutability": "view",
      "type": "function"
    },
    {
      "inputs": [],
      "name": "EMERGENCY_RECALL_COST",
      "outputs": [
        {
          "internalType": "uint256",
          "name": "",
          "type": "uint256"
        }
      ],
      "stateMutability": "view",
      "type": "function"
    },
    {
      "inputs": [],
      "name": "INSTANT_BUILD_COST",
      "outputs": [
        {
          "internalType": "uint256",
          "name": "",
          "type": "uint256"
        }
      ],
      "stateMutability": "view",
      "type": "function"
    },
    {
      "inputs": [],
      "name": "STEALTH_MODE_COST",
      "outputs": [
        {
          "internalType": "uint256",
          "name": "",
          "type": "uint256"
        }
      ],
      "stateMutability": "view",
      "type": "function"
    },
    {
      "inputs": [],
      "name": "STEALTH_MODE_DURATION",
      "outputs": [
        {
          "internalType": "uint256",
          "name": "",
          "type": "uint256"
        }
      ],
      "stateMutability": "view",
      "type": "function"
    },
    {
      "inputs": [],
      "name": "VOID_SHIELD_COST",
      "outputs": [
        {
          "internalType": "uint256",
          "name": "",
          "type": "uint256"
        }
      ],
      "stateMutability": "view",
      "type": "function"
    },
    {
      "inputs": [],
      "name": "VOID_SHIELD_DURATION",
      "outputs": [
        {
          "internalType": "uint256",
          "name": "",
          "type": "uint256"
        }
      ],
      "stateMutability": "view",
      "type": "function"
    },
    {
      "inputs": [],
      "name": "YIELD_AMPLIFIER_COST",
      "outputs": [
        {
          "internalType": "uint256",
          "name": "",
          "type": "uint256"
        }
      ],
      "stateMutability": "view",
      "type": "function"
    },
    {
      "inputs": [],
      "name": "YIELD_AMPLIFIER_DURATION",
      "outputs": [
        {
          "internalType": "uint256",
          "name": "",
          "type": "uint256"
        }
      ],
      "stateMutability": "view",
      "type": "function"
    },
    {
      "inputs": [
        {
          "internalType": "uint256",
          "name": "level",
          "type": "uint256"
        }
      ],
      "name": "activateAccelerator",
      "outputs": [],
      "stateMutability": "nonpayable",
      "type": "function"
    },
    {
      "inputs": [],
      "name": "activateStealthMode",
      "outputs": [],
      "stateMutability": "nonpayable",
      "type": "function"
    },
    {
      "inputs": [],
      "name": "activateVoidShield",
      "outputs": [],
      "stateMutability": "nonpayable",
      "type": "function"
    },
    {
      "inputs": [],
      "name": "activateYieldAmplifier",
      "outputs": [],
      "stateMutability": "nonpayable",
      "type": "function"
    },
    {
      "inputs": [
        {
          "internalType": "uint256",
          "name": "amount",
          "type": "uint256"
        },
        {
          "internalType": "uint256",
          "name": "resourceType",
          "type": "uint256"
        },
        {
          "internalType": "uint256",
          "name": "quantity",
          "type": "uint256"
        }
      ],
      "name": "buyResources",
      "outputs": [],
      "stateMutability": "nonpayable",
      "type": "function"
    },
    {
      "inputs": [],
      "name": "gameContract",
      "outputs": [
        {
          "internalType": "address",
          "name": "",
          "type": "address"
        }
      ],
      "stateMutability": "view",
      "type": "function"
    },
    {
      "inputs": [
        {
          "internalType": "address",
          "name": "player",
          "type": "address"
        }
      ],
      "name": "getAcceleratorMultiplier",
      "outputs": [
        {
          "internalType": "uint256",
          "name": "",
          "type": "uint256"
        }
      ],
      "stateMutability": "view",
      "type": "function"
    },
    {
      "inputs": [
        {
          "internalType": "address",
          "name": "player",
          "type": "address"
        }
      ],
      "name": "getExtraColonySlots",
      "outputs": [
        {
          "internalType": "uint256",
          "name": "",
          "type": "uint256"
        }
      ],
      "stateMutability": "view",
      "type": "function"
    },
    {
      "inputs": [
        {
          "internalType": "address",
          "name": "player",
          "type": "address"
        }
      ],
      "name": "getYieldMultiplier",
      "outputs": [
        {
          "internalType": "uint256",
          "name": "",
          "type": "uint256"
        }
      ],
      "stateMutability": "view",
      "type": "function"
    },
    {
      "inputs": [
        {
          "internalType": "address",
          "name": "",
          "type": "address"
        }
      ],
      "name": "hasVoidShield",
      "outputs": [
        {
          "internalType": "bool",
          "name": "",
          "type": "bool"
        }
      ],
      "stateMutability": "view",
      "type": "function"
    },
    {
      "inputs": [
        {
          "internalType": "address",
          "name": "player",
          "type": "address"
        }
      ],
      "name": "isShieldActive",
      "outputs": [
        {
          "internalType": "bool",
          "name": "",
          "type": "bool"
        }
      ],
      "stateMutability": "view",
      "type": "function"
    },
    {
      "inputs": [
        {
          "internalType": "address",
          "name": "player",
          "type": "address"
        }
      ],
      "name": "isStealthActive",
      "outputs": [
        {
          "internalType": "bool",
          "name": "",
          "type": "bool"
        }
      ],
      "stateMutability": "view",
      "type": "function"
    },
    {
      "inputs": [],
      "name": "owner",
      "outputs": [
        {
          "internalType": "address",
          "name": "",
          "type": "address"
        }
      ],
      "stateMutability": "view",
      "type": "function"
    },
    {
      "inputs": [],
      "name": "purchaseColonyPermit",
      "outputs": [],
      "stateMutability": "nonpayable",
      "type": "function"
    },
    {
      "inputs": [],
      "name": "renounceOwnership",
      "outputs": [],
      "stateMutability": "nonpayable",
      "type": "function"
    },
    {
      "inputs": [
        {
          "internalType": "uint256",
          "name": "amount",
          "type": "uint256"
        },
        {
          "internalType": "uint256",
          "name": "resourceType",
          "type": "uint256"
        },
        {
          "internalType": "uint256",
          "name": "quantity",
          "type": "uint256"
        }
      ],
      "name": "sellResources",
      "outputs": [],
      "stateMutability": "nonpayable",
      "type": "function"
    },
    {
      "inputs": [
        {
          "internalType": "address",
          "name": "_gameContract",
          "type": "address"
        }
      ],
      "name": "setGameContract",
      "outputs": [],
      "stateMutability": "nonpayable",
      "type": "function"
    },
    {
      "inputs": [],
      "name": "totalSpentOnAccelerators",
      "outputs": [
        {
          "internalType": "uint256",
          "name": "",
          "type": "uint256"
        }
      ],
      "stateMutability": "view",
      "type": "function"
    },
    {
      "inputs": [],
      "name": "totalSpentOnColonyPermit",
      "outputs": [
        {
          "internalType": "uint256",
          "name": "",
          "type": "uint256"
        }
      ],
      "stateMutability": "view",
      "type": "function"
    },
    {
      "inputs": [],
      "name": "totalSpentOnEmergencyRecall",
      "outputs": [
        {
          "internalType": "uint256",
          "name": "",
          "type": "uint256"
        }
      ],
      "stateMutability": "view",
      "type": "function"
    },
    {
      "inputs": [],
      "name": "totalSpentOnInstantBuild",
      "outputs": [
        {
          "internalType": "uint256",
          "name": "",
          "type": "uint256"
        }
      ],
      "stateMutability": "view",
      "type": "function"
    },
    {
      "inputs": [],
      "name": "totalSpentOnResources",
      "outputs": [
        {
          "internalType": "uint256",
          "name": "",
          "type": "uint256"
        }
      ],
      "stateMutability": "view",
      "type": "function"
    },
    {
      "inputs": [],
      "name": "totalSpentOnStealthMode",
      "outputs": [
        {
          "internalType": "uint256",
          "name": "",
          "type": "uint256"
        }
      ],
      "stateMutability": "view",
      "type": "function"
    },
    {
      "inputs": [],
      "name": "totalSpentOnVoidShield",
      "outputs": [
        {
          "internalType": "uint256",
          "name": "",
          "type": "uint256"
        }
      ],
      "stateMutability": "view",
      "type": "function"
    },
    {
      "inputs": [],
      "name": "totalSpentOnYieldAmplifier",
      "outputs": [
        {
          "internalType": "uint256",
          "name": "",
          "type": "uint256"
        }
      ],
      "stateMutability": "view",
      "type": "function"
    },
    {
      "inputs": [
        {
          "internalType": "address",
          "name": "newOwner",
          "type": "address"
        }
      ],
      "name": "transferOwnership",
      "outputs": [],
      "stateMutability": "nonpayable",
      "type": "function"
    },
    {
      "inputs": [
        {
          "internalType": "uint256",
          "name": "fleetId",
          "type": "uint256"
        }
      ],
      "name": "useEmergencyRecall",
      "outputs": [],
      "stateMutability": "nonpayable",
      "type": "function"
    },
    {
      "inputs": [
        {
          "internalType": "uint256",
          "name": "colonyId",
          "type": "uint256"
        },
        {
          "internalType": "uint256",
          "name": "facilityId",
          "type": "uint256"
        }
      ],
      "name": "useInstantBuild",
      "outputs": [],
      "stateMutability": "nonpayable",
      "type": "function"
    },
    {
      "inputs": [
        {
          "internalType": "address",
          "name": "",
          "type": "address"
        }
      ],
      "name": "voidShieldExpiry",
      "outputs": [
        {
          "internalType": "uint256",
          "name": "",
          "type": "uint256"
        }
      ],
      "stateMutability": "view",
      "type": "function"
    },
    {
      "inputs": [],
      "name": "voidToken",
      "outputs": [
        {
          "internalType": "contract IERC20",
          "name": "",
          "type": "address"
        }
      ],
      "stateMutability": "view",
      "type": "function"
    }
  ],
  "bytecode": "0x608060405234801561001057600080fd5b506040516200132c3803806200132c83398101604081905261003191610102565b338061005757604051631e4fbdf760e01b81526000600482015260240160405180910390fd5b61006081610096565b5060018055600280546001600160a01b039384166001600160a01b03199182161790915560038054929093169116179055610135565b600080546001600160a01b038381166001600160a01b0319831681178455604051919092169283917f8be0079c531659141344cd1fd0a4f28419497f9722a3daafe3b4186f6b6457e09190a35050565b80516001600160a01b03811681146100fd57600080fd5b919050565b6000806040838503121561011557600080fd5b61011e836100e6565b915061012c602084016100e6565b90509250929050565b6111e780620001456000396000f3fe608060405234801561001057600080fd5b506004361061025e5760003560e01c8063700dab7f1161014657806391618664116100c3578063eacf975111610087578063eacf9751146104f3578063ec9a1d51146102b1578063f2fde38b146104fb578063f3f8e2aa1461050e578063f80b3dd014610521578063fd22ef671461053457600080fd5b806391618664146104b4578063ba01be59146104bd578063c3df9ba3146104cd578063d37b2ff9146102b1578063d3f33009146104e057600080fd5b80637d56b1fb1161010a5780637d56b1fb1461045a5780637f600bf814610463578063823d6937146104765780638da5cb5b146104865780638fb8a532146104ab57600080fd5b8063700dab7f14610418578063715018a61461042257806372b9b71d1461042a57806374ea739e1461043a5780637920bb391461044a57600080fd5b8063405ebd4d116101df5780634cb8efd4116101a35780634cb8efd4146103c5578063533f90a1146103d857806357d1cb6e146103e0578063596dfe74146103f05780635aaa7dff146103f857806360a441611461040857600080fd5b8063405ebd4d1461036357806342d4fa5c1461037657806346355d6c1461039657806346648b56146103a957806347d3b956146103b257600080fd5b806322cd39ad1161022657806322cd39ad14610322578063260f88441461032b5780632aab971f146103345780632e0036f214610347578063402057621461035057600080fd5b80630791f8b314610263578063167280fa146102b157806318265e08146102c95780631dd0f31e146102ec57806322ad3ea114610318575b600080fd5b61029c610271366004611096565b6001600160a01b03166000908152600460208181526040808420928452919052902060020154421090565b60405190151581526020015b60405180910390f35b6102bb6201518081565b6040519081526020016102a8565b61029c6102d7366004611096565b60056020526000908152604090205460ff1681565b6102bb6102fa366004611096565b6001600160a01b031660009081526004602052604090206001015490565b61032061053d565b005b6102bb600c5481565b6102bb60075481565b6103206103423660046110c6565b6105cd565b6102bb60085481565b61032061035e3660046110df565b61064c565b610320610371366004611096565b61072d565b6102bb610384366004611096565b60066020526000908152604090205481565b6102bb6103a4366004611096565b610757565b6102bb600a5481565b6103206103c03660046110df565b6107bf565b6103206103d33660046110c6565b6108d1565b610320610a92565b6102bb686c6b935b8bbd40000081565b610320610b79565b6102bb681b1ae4d6e2ef50000081565b6102bb6802b5e3af16b188000081565b6102bb6202a30081565b610320610c5d565b6102bb680ad78ebc5ac620000081565b6102bb680821ab0d441498000081565b6102bb680d8d726b7177a8000081565b6102bb60095481565b6102bb610471366004611096565b610c6f565b6102bb683635c9adc5dea0000081565b6000546001600160a01b03165b6040516001600160a01b0390911681526020016102a8565b6102bb600d5481565b6102bb600b5481565b6102bb68056bc75e2d6310000081565b61029c6104db366004611096565b610cb3565b600354610493906001600160a01b031681565b610320610cf8565b610320610509366004611096565b610de4565b61032061051c36600461110b565b610e1f565b600254610493906001600160a01b031681565b6102bb600e5481565b610545610ea5565b61055833686c6b935b8bbd400000610ecf565b33600090815260046020526040812060010180549161057683611159565b9091555050336000818152600460209081526040918290206001015491519182527fa97775681db71bd14c6bbad8726c5ed1475c8b6e9e1afabe27c001d217dddd7c910160405180910390a26105cb60018055565b565b6105d5610ea5565b6105e8336802b5e3af16b1880000610ecf565b33600090815260046020526040812060030180549161060683611159565b909155505060405181815233907f913a79b17eea7f58a029c56d7f76a12f0c4d875d08e132bdf36dfaf2074df6349060200160405180910390a261064960018055565b50565b610654610ea5565b60028211156106a25760405162461bcd60e51b8152602060048201526015602482015274496e76616c6964207265736f75726365207479706560581b60448201526064015b60405180910390fd5b600081116106e95760405162461bcd60e51b815260206004820152601460248201527305175616e74697479206d757374206265203e20360641b6044820152606401610699565b60405183815233907fcdd4c59de26b3f8623e6012ab9bc32a995eda3452d89c941fc8af6b74276ad38906020015b60405180910390a261072860018055565b505050565b610735610f48565b600380546001600160a01b0319166001600160a01b0392909216919091179055565b6001600160a01b03811660009081526004602090815260408083206001845290915280822060028084529183209182015490919042101561079d57600301549392505050565b42826002015411156107b457506003015492915050565b506127109392505050565b6107c7610ea5565b6107d13384610ecf565b600282111561081a5760405162461bcd60e51b8152602060048201526015602482015274496e76616c6964207265736f75726365207479706560581b6044820152606401610699565b600081116108615760405162461bcd60e51b815260206004820152601460248201527305175616e74697479206d757374206265203e20360641b6044820152606401610699565b82600e60008282546108739190611172565b909155505060405133907fe2f1466cf34d5087d844a6eb41230bf6bf197577ca83e45f73dc4bdba615bf2a9061071790868152604060208201819052600d908201526c427579207265736f757263657360981b606082015260800190565b6108d9610ea5565b80601914806108e85750806032145b6109245760405162461bcd60e51b815260206004820152600d60248201526c125b9d985b1a59081b195d995b609a1b6044820152606401610699565b600081601914610935576002610938565b60015b905060008260191461095357680d8d726b7177a8000061095e565b68056bc75e2d631000005b905061096a3382610ecf565b60006109796201518042611172565b905060405180608001604052808460048111156109985761099861112d565b8152602001428152602001828152602001856019146109b957613a986109bd565b6130d45b61ffff1690523360009081526004602081905260408220919086908111156109e7576109e761112d565b60048111156109f8576109f861112d565b8152602081019190915260400160002081518154829060ff19166001836004811115610a2657610a2661112d565b02179055506020820151600182015560408083015160028301556060909201516003909101555133907fc46f4259f073f7993c078b946b1b8e16f428b1b02940277d10d1e6fc4ad46ebe90610a7e9086908590611185565b60405180910390a250505061064960018055565b610a9a610ea5565b610aa333610cb3565b15610ae85760405162461bcd60e51b8152602060048201526015602482015274536869656c6420616c72656164792061637469766560581b6044820152606401610699565b610afb33683635c9adc5dea00000610ecf565b6000610b0a6202a30042611172565b336000818152600560209081526040808320805460ff1916600117905560069091529081902083905551919250907faf1157be12f167926726e9e6179192c28a7efe7892b3d367c093d5dbcb47fe0190610b679084815260200190565b60405180910390a2506105cb60018055565b610b81610ea5565b610b9433680821ab0d4414980000610ecf565b6000610ba36201518042611172565b60408051608081018252600480825242602080840191909152828401859052600060608401819052338152828252848120838252909152929092208151815494955091939092839160ff1916906001908490811115610c0457610c0461112d565b02179055506020820151600182015560408083015160028301556060909201516003909101555133907fc46f4259f073f7993c078b946b1b8e16f428b1b02940277d10d1e6fc4ad46ebe90610b67906004908590611185565b610c65610f48565b6105cb6000610f75565b6001600160a01b03811660009081526004602090815260408083206003845290915281206002810154421015610ca9576003015492915050565b5061271092915050565b6001600160a01b03811660009081526005602052604081205460ff168015610cf257506001600160a01b03821660009081526006602052604090205442105b92915050565b610d00610ea5565b610d1333680ad78ebc5ac6200000610ecf565b6000610d226201518042611172565b60408051608081018252600380825242602080840191909152828401859052613a9860608401523360009081526004909152928320939450909291908152602081019190915260400160002081518154829060ff19166001836004811115610d8c57610d8c61112d565b0217905550602082015160018201556040808301516002830155606090920151600391820155905133917fc46f4259f073f7993c078b946b1b8e16f428b1b02940277d10d1e6fc4ad46ebe91610b6791908590611185565b610dec610f48565b6001600160a01b038116610e1657604051631e4fbdf760e01b815260006004820152602401610699565b61064981610f75565b610e27610ea5565b610e3a33681b1ae4d6e2ef500000610ecf565b336000908152600460205260408120600201805491610e5883611159565b9091555050604080518381526020810183905233917f2b6cf4c9f1fb25eec2be894e99d6aad17c42bf7e515d389b0426766030b9dbeb910160405180910390a2610ea160018055565b5050565b600260015403610ec857604051633ee5aeb560e01b815260040160405180910390fd5b6002600155565b600254610ee7906001600160a01b0316833084610fc5565b8060076000828254610ef99190611172565b92505081905550816001600160a01b03167f60526768e64fa67a38e9b155b9154848038bc483d7198ff3acc14193fd42d547600083604051610f3c929190611185565b60405180910390a25050565b6000546001600160a01b031633146105cb5760405163118cdaa760e01b8152336004820152602401610699565b600080546001600160a01b038381166001600160a01b0319831681178455604051919092169283917f8be0079c531659141344cd1fd0a4f28419497f9722a3daafe3b4186f6b6457e09190a35050565b604080516001600160a01b0385811660248301528416604482015260648082018490528251808303909101815260849091019091526020810180516001600160e01b03166323b872dd60e01b17905261101f908590611025565b50505050565b600080602060008451602086016000885af180611048576040513d6000823e3d81fd5b50506000513d9150811561106057806001141561106d565b6001600160a01b0384163b155b1561101f57604051635274afe760e01b81526001600160a01b0385166004820152602401610699565b6000602082840312156110a857600080fd5b81356001600160a01b03811681146110bf57600080fd5b9392505050565b6000602082840312156110d857600080fd5b5035919050565b6000806000606084860312156110f457600080fd5b505081359360208301359350604090920135919050565b6000806040838503121561111e57600080fd5b50508035926020909101359150565b634e487b7160e01b600052602160045260246000fd5b634e487b7160e01b600052601160045260246000fd5b60006001820161116b5761116b611143565b5060010190565b80820180821115610cf257610cf2611143565b60408101600584106111a757634e487b7160e01b600052602160045260246000fd5b928152602001529056fea2646970667358221220692ebfc243eda1968ed2da3efef5af61a7f2904faa14383d0e21761dae145d0e64736f6c63430008140033",
  "linkReferences": {},
  "deployedLinkReferences": {}
}